:020000041000EA
:1000000000B5324B212058609868022188439860DF
:10001000D860186158612E4B002199600221596106
:100020000121F02299502B49196001219960352056
:1000300000F044F80222904214D00621196600F024
:1000400034F8196E01211966002018661A6600F04E
:100050002CF8196E196E196E052000F02FF8012189
:100060000842F9D1002199601B49196000215960AB
:100070001A491B48016001219960EB211966A021F2
:10008000196600F012F800219960164914480160C1
:100090000121996001BC002800D000471248134993
:1000A000086003C880F30888084703B5996A0420EC
:1000B0000142FBD001200142F8D103BD02B5186610
:1000C0001866FFF7F2FF186E186E02BD00000240BE
:1000D000000000180000070000035F00212200005C
:1000E000F4000018222000A00001001008ED00E03C
:1000F00000000000000000000000000074B24E7A12
:1001000000200420F7010010C3010010C5010010F9
:10011000C1010010C1010010C1010010C101001097
:10012000C1010010C1010010C1010010C701001081
:10013000C1010010C1010010C9010010CB01001065
:10014000CD010010CD010010CD010010CD01001037
:10015000CD010010CD010010CD010010CD01001027
:10016000CD010010CD010010CD010010CD01001017
:10017000CD010010CD010010CD010010CD01001007
:10018000CD010010CD010010CD010010CD010010F7
:10019000CD010010CD010010CD010010CD010010E7
:1001A000CD010010CD010010CD010010CD010010D7
:1001B000CD010010CD010010CD010010CD010010C7
:1001C00000BE00BE00BE00BE00BE00BEEFF3058054
:1001D000103800BEF2EB887164A4001080A40010F7
:1001E0003402001090A31AE700201F49086006C8D7
:1001F00081F3088810471D48006800282FD10DA4FE
:100200000ECC002902D000F012F8F9E71849194A7B
:10021000002000E001C19142FCD1174988471749ED
:1002200088471749884700BEFDE701C901C29A42C5
:10023000FBD3704780A40010C0000020B012002043
:1002400070B60010000004200000042070B60010FA
:10025000001004200010042000000000704709482E
:1002600004F0DAFE0047000008ED00E0000000D0D6
:10027000B012002014200020353D0010FD1F00109A
:10028000F53C00105756000006005250ABB36053C7
:10029000309D001006005250861C0302409D001045
:1002A000060052505422A29D509D0010050052504D
:1002B000DE65F46870B60010F8B5C0460648074918
:1002C000091A8B10C90FC91810B5491003D0044B77
:1002D000002B00D0984710BDB0120020B0120020B3
:1002E00000000000054B10B5002B03D00449054861
:1002F00000E000BFFFF7E2FF10BDC04600000000B5
:10030000741D0020488D001030B5C1B06B461870C8
:1003100059709A70EFF3108572B68021F824640347
:100320004901200008F0C8FC8022520069462000E4
:1003300008F0AAFC85F3108841B030BD70B5040008
:100340000D00012805D0002C02D1094B9D420AD096
:1003500070BD074B9942F6D10648522319228021DD
:1003600007F0A2FCEFE7034807F04AFCF0E7C046BD
:10037000FFFF0000B0130020074B00221A705A70D4
:100380009A70064A12781A70054A12785A70054A0D
:1003900012789A707047C0465819002000001F104C
:1003A00001001F1002001F1010B502F0D8FF10BD91
:1003B000C343DBB2542B09D89A009B1ADBB25A1EF6
:1003C000D2B212045842C0B210437047A92B0BD8C6
:1003D00056235B42181AC0B24300C018C0B20302D1
:1003E000C043C0B21843F0E755231B1ADBB25A00D2
:1003F0009B18DBB21804DB43DBB21B021843E4E7B3
:10040000F8B507000E0000240DE0094D3A00210068
:10041000280007F0DFFC280007F0E4FB3000FFF7BE
:10042000C3FF0134A4B2024B5B889C42EDD3F8BDFC
:10043000B013002070B50600002519E0E0B2EBB261
:10044000C018C0B2FFF7B4FF02000C4B2100180027
:1004500007F0C0FC0134A4B2084B5B889C42EDD38A
:10046000064807F0BFFB3000FFF79EFF0135ADB235
:10047000FF2D01D80024EFE770BDC046B013002067
:1004800070B5060000241CE0280204F0F1FDC0B2A3
:10049000E3B2C018C0B2FFF78BFF02000C4B29007B
:1004A000180007F097FC0135ADB2094B59888D4211
:1004B000EAD3180007F096FB3000FFF775FF013410
:1004C000A4B2A023DB009C4201D20025EDE770BD61
:1004D000B013002010B507F03DFF124C200007F0CC
:1004E00037FA3221200007F085FC200007F07AFB64
:1004F00002E01420FFF79EFF0B4B1B68012B07D077
:10050000022B09D0002BF4D01420FFF793FFF3E760
:100510001420FFF7B5FFEFE732210448FFF770FF23
:10052000EAE7C046B0130020641D00207F7F7F00F3
:1005300030B5002803D0002901D000210020002A76
:1005400003D0002B01D000230022D02424066468AD
:10055000640507D5002A05D0002B03D0002801D060
:10056000002914D1594C0025E57125726572A572D8
:100570000F35A570564C2468002C2BD1554C24689F
:10058000002C11DD002300220021002026E04F4B2B
:10059000FF22DA711A725A729A72FE3A9A70002326
:1005A000002200210020E5E74B4C2468013C122C7E
:1005B00037D94A4C2468013C8D256D00AC4235D9B1
:1005C000474C2468013CF82C08D800230022002165
:1005D000002003E00023002200210020414C246879
:1005E000002C14DDD0242406646824060FD5002ACC
:1005F00001D1002B03D0002801D100291BD0002AF3
:1006000005D1002B03D1002815D1002913D1D02406
:1006100024066468240641D42C4B80225A719A71B6
:1006200050E00023002200210020D7E70023002211
:1006300000210020D2E7002A0DD1002B1ED1D023AB
:100640001B065B68DB001BD5D0231B065B685B01C8
:1006500018D4B63200E000221C4B5A71002813D186
:10066000002915D1D0231B065B681B0412D5D023AB
:100670001B065B681B010FD4B62206E0FF22EBE7E6
:100680004922E9E78022E7E70022104B9A7119E03E
:10069000FF22FAE74922F8E78022F6E7002A03D191
:1006A000002B0AD0FF3200E00022084B5A710028CC
:1006B00005D1002907D0FF2202E08022F5E70022C1
:1006C000024B9A7130BD8022FAE7C046C41D00205B
:1006D0007C0C0020F0130020F4130020F8130020FD
:1006E000FC130020800C0020F8B5D0231B065B68AB
:1006F0005B0523D5D0231B065B68DB041ED4D02307
:100700001B065B68DB0519D4D0231B065B689B05C1
:1007100014D4D0231B065B681B050FD4D0231B0603
:100720005B681B063CD4AF4B01221A60D0231B062A
:100730005B685B063DD4AC4B00221A60AB4B1B6878
:100740005A1E122A47D9002B0CD1D0221206526809
:10075000520507D4A64A1268002A03D1A54A126896
:10076000002A40D0142B42D0A34B1B685A1E122AD9
:1007700049D9002B4FD1D0221206526852064AD4D2
:100780009E4A1278002A03D1964A1268012A03D0A1
:10079000944A1268012A3EDD974B01221A603CE020
:1007A000D0231B065B689B06C0D48E4B00221A60C8
:1007B000BCE7D0231B065B685B0703D48A4B01228E
:1007C0001A60BBE7D0231B065B689B07B6D4864B39
:1007D00002221A60B2E7012002F0C1FD834A1368C9
:1007E00001331360C0E7814B01221A60BCE7D023BC
:1007F0001B065B685B05B7D57C4B00221A60112095
:1008000002F0ADFDB0E7012002F0A9FD7A4A1368BD
:100810000133136001E0142B76D0794B1B685A1E0C
:10082000262A7DD9002B2ED1744A1278002A2AD08C
:10083000744A1278002A26D0734A1268D1175218C7
:100840004A40724909688A421DDBD022120652686A
:10085000120118D4D02212065268D20004D4D02239
:1008600012065268520109D4D02212065268D200F0
:1008700009D5D02212065268520104D4D0221206A1
:100880005268920054D4282B56D0614B1B685A1ED4
:10089000122A75D9002B7BD1D02212065268D200C1
:1008A00076D4D02212065268520171D4D022120698
:1008B000526812016CD4D02212065268120467D515
:1008C000D02212065268D20462D5D0221206526893
:1008D000D2055DD5D02212065268920558D5D02295
:1008E00012065268120553D5D022120652689200A1
:1008F0004ED5464A1268D11752184A40012A47DDA0
:10090000434B01221A6045E0D0231B065B685B065F
:1009100083D5394B00221A60112002F020FD7CE7BC
:10092000012002F01CFD364A136801331360ACE766
:10093000334B01221A60A8E7D0231B065B681B011A
:1009400017D4D0231B065B68DB0004D5D0231B061D
:100950005B685B010DD4D0231B065B68DB0004D40D
:10096000D0231B065B685B0103D5264B1B78002B4D
:100970008BD1234B00221A600F2002F0F0FC84E799
:10098000012002F0ECFC224A13680133136001E0FD
:10099000142B43D0164B1B68002B03D1154A126849
:1009A000002A08D0D02212065268120603D5194A2E
:1009B0001278002A61D0002B03D10E4A1268002A57
:1009C0005ED0D02212065268120659D4114A12780B
:1009D000002A55D00F4A002111700F4A01311170C1
:1009E0004EE0C046800C00207C0C0020F01300205C
:1009F000F8130020FC130020F41300200520002031
:100A0000EC13002002200020F81F0020FC1F002013
:100A1000E81300200320002000200020D0231B0624
:100A20005B68DB0022D4D0231B065B685B011DD40E
:100A3000D0231B065B681B0118D4D0231B065B6800
:100A40001B0413D5D0231B065B68DB040ED5D02313
:100A50001B065B68DB0509D5D0231B065B689B057D
:100A600004D5D0231B065B681B0593D4C64B00221C
:100A70001A600F2002F073FC8CE7C44A0121117048
:100A8000002B05DDC24A12681C32FF3293423FDD63
:100A9000002B07D1BF4A1268002A41D0BC4909681F
:100AA0008A423DD0BA4A12681D32FF3293424BD07F
:100AB000B74B1B6819001D31FF31B74A12689142CC
:100AC00052D0B54A1268002A03D1B44909680029F6
:100AD00008D0D02109064968490603D5B0490978EC
:100AE000002954D0002A03D1AC4A1268002A51D000
:100AF000D0221206526852064CD4A94A1278002A13
:100B000048D0A74A00211170A64A0131117041E076
:100B1000012002F024FCA04A136801331360C7E7E8
:100B2000D022120652681206BCD49F4A1278002ABC
:100B3000B8D09E4A1268012AB4D1974B01221A609C
:100B4000924B00221A70B3E7D0231B065B681B068A
:100B5000AED58E4A00231370954A13708E4A1360E7
:100B6000112002F0FCFBA3E78A4A1268002A01D098
:100B70009342A6D18E4A1278002AA2D0864A012139
:100B80001160824A00211170894A117099E7844AE4
:100B900001211170814A1268002A04DD1900F9311F
:100BA0008A4200DC9EE0002A07D17A4909680029C0
:100BB00000D19FE08B4200D19CE0FA339A4200D1F1
:100BC000BBE0734B1C682500FA35744B1B689D42D3
:100BD00000D1C3E0774B1B68013B122B0CD8764B3E
:100BE0001B68002B04D1754A138804210B43138022
:100BF000724B8022DA701A71714B1B68013B122B09
:100C000007D86E4B1A8801210A431A808022DA70B5
:100C10001A715D4B1B685A1E122A00D9DAE0674B25
:100C20008022DA707F321A71664B1B685A1E132AB3
:100C300000D9F9E0614B8022DA707F321A71564B8D
:100C40001F687B1E132B00D937E15C4A13884021B3
:100C50000B431380D0231B065B685B0100D502E1C8
:100C60000120D0231B065B68DB0000D5FDE00123DB
:100C7000C01A04F0F1FC544B1B78002B00D1F6E0B5
:100C8000524B1A685B6804F07AFC0022504B04F067
:100C900057FC4A4E04F01CFDF070D0231B065B6825
:100CA0001B0400D5E6E00022444B1A71142F00D13A
:100CB000E2E03A4B1B685A1E422A00D908E23F4A3A
:100CC000138840210B431380D0231B065B685B0114
:100CD00000D4E2E1D0231B065B68DB0000D5E2E133
:100CE0000022DBE1012002F03AFB2C4A13680133B9
:100CF000136066E7D02109064968C90400D45CE79F
:100D0000D02109064968C90500D456E7D021090653
:100D10004968490600D550E723490978002900D1E0
:100D20004BE722490968012900D046E71B4B012205
:100D30001A601B4B00221A7043E7D0231B065B6826
:100D40005B0600D43DE7164A00231370154A137062
:100D5000124A1360112002F002FB32E70D4B1B68B0
:100D6000002B02D09C4200D034E70E4B1B78002BA6
:100D700000D12FE7094B01221A60094B00221A709B
:100D8000084B1A7026E7C046E81300200320002015
:100D9000780C002004190020F8130020FC13002018
:100DA000042000200120002005200020800C0020CD
:100DB00000200020F01300207C0C0020C41D002027
:100DC000F4130020EC13002006200020680C002003
:100DD00000006040142B00D026E7B44B1B78002B9A
:100DE00009D0B34A1278002A05D0B24A1268002A04
:100DF00010DD002104E0AF4A1268002A0CDD262134
:100E0000AD4AD170002B09D0A94B1B78002B09D11A
:100E1000DA2204E0FF21F3E7DA21F1E7DA22A64B38
:100E20001A7101E78022FAE71A00153A122A0BD844
:100E3000A04B1B68002B05DBDA229F4BDA70DA220D
:100E40001A71FCE62622F8E7282B00D0F7E6994B2A
:100E50001B68002B05DBFF22974BDA7080221A718A
:100E6000EDE60022F8E70020FBE6002300E7002281
:100E7000924B08E7802217E7D0231B065B685B01D3
:100E800005D5D0231B065B68DB0000D511E7D02316
:100E90001B065B681B0100D40BE7D0231B065B68B5
:100EA0001B0400D405E7D0231B065B689B0000D41D
:100EB000FFE6834B64221A60FBE63B00153BA22B46
:100EC00031D8D0231B065B685B0123D40120D023DB
:100ED0001B065B68DB001FD40123C01A04F0BCFBB7
:100EE000784B1B78002B19D0774B1A685B6804F09D
:100EF00046FB0022754B04F023FB6F4E04F0E8FB29
:100F0000F070D0231B065B681B040AD400226A4BD6
:100F10001A71CEE60020DAE70023DEE70022674BF5
:100F2000E5E78022F3E73B00B83B242B08D8624B6F
:100F30001A8802210A431A808022DA701A71B8E6F0
:100F40003B00DD3B3F2B1BD8D0231B065B685B01BE
:100F500006D5D0231B065B68DB000DD4322200E0EF
:100F6000CD22554BDA70D0231B065B681B0405D4D9
:100F70000022514B1A719CE68022F2E78022F8E7AA
:100F80003B001E3BFF3B1D2B60D8D0231B065B683C
:100F90005B052FD4484A138802211943118006218A
:100FA0000B431380D0231B065B685B0106D5D0235F
:100FB0001B065B68DB0017D4002200E0FF223E4BDB
:100FC000DA70D0231B065B685B0104D5D0231B06B7
:100FD0005B68DB000AD4D0231B065B681B0407D5C3
:100FE0008022354B1A7164E68022E8E70022F8E798
:100FF0000022F6E7D0231B065B689B0520D42E4B0E
:1010000080225A7100229A71D0231B065B685B0113
:1010100006D5D0231B065B68DB000DD4323200E01E
:10102000CD22254BDA70D0231B065B681B0405D448
:101030000022214B1A713CE68022F2E78022F8E779
:1010400023001D33FF331E4A136032E69D235B00ED
:101050009F4200DC2DE623001C33FF339F4200DD5E
:1010600027E6D0231B065B685B0106D5D0231B0651
:101070005B68DB000DD4322200E0CD220E4BDA702B
:10108000D0231B065B681B0405D400220A4B1A718F
:101090000FE68022F2E78022F8E7FF22064BDA70A3
:1010A00080221A71F8BD8022F8E7C0460520002092
:1010B00002200020F81F0020C41D002000C05F4057
:1010C000F813002006200020680C0020000060407B
:1010D0001A00443A482A13D8D0231B065B685B01E8
:1010E00006D5D0231B065B68DB0007D4002200E096
:1010F000FF22664BDA7080221A71D3E78022F8E76C
:101100001A008D3A272A0BD8604B1A8840211143C8
:10111000198042210A431A808022DA701A71C1E7CD
:101120001A00B53A452A22D8D0231B065B685B011A
:1011300006D5D0231B065B68DB0010D4462200E0F6
:10114000B922524BDA70D0231B065B681B0408D50A
:10115000D0231B065B681B0107D4FF2202E080221C
:10116000EFE70022494B1A719CE78022FAE71A0048
:10117000FB3A1D2A64D8D0231B065B685B052FD47D
:10118000424A138802211943118006210B43138020
:10119000D0231B065B685B0106D5D0231B065B686A
:1011A000DB0017D4322200E0CD22384BDA70D02396
:1011B0001B065B685B0104D5D0231B065B68DB0064
:1011C0000AD4D0231B065B681B0407D580222F4B53
:1011D0001A7167E78022E8E70022F8E70022F6E7C5
:1011E000D0231B065B689B0527D4284B80225A71AD
:1011F00000229A71D0231B065B685B0106D5D023C1
:101200001B065B68DB0010D4463200E0B9221F4B9E
:10121000DA70D0231B065B681B0408D5D0231B069D
:101220005B681B0107D4FF2202E08022EFE7002267
:10123000164B1A7136E78022FAE7154B1D6031E72D
:101240008C225200934200DC2CE7F934A34200DDEB
:1012500028E7D0231B065B685B0106D5D0231B065D
:101260005B68DB000DD4E63A00E0CD22074BDA7074
:10127000D0231B065B681B0405D40022034B1A71A4
:1012800010E78022F2E78022F8E7C046C41D002064
:10129000FC130020F0B5DE4657464E464546E0B505
:1012A00089B00690079192469B46D0231B065B6847
:1012B0001B0428D401239846D0231B065B681B011E
:1012C00024D40127D0231B065B68DB0020D4012631
:1012D000D0231B065B685B011CD4012399460124C3
:1012E0004346E31A0093BA4B1B685A1E122A14D9BC
:1012F000B84A1268013A122A14D8002291460026F0
:10130000002790460EE000239846D5E70027D9E74E
:101310000026DDE700239946E1E7002291460026FA
:1013200000279046AC4A1568002D21D14A46B218D4
:101330004244D219002A1BDD5246002A08D15A46DF
:10134000002A05D1069A002A02D1079A002A0FD056
:10135000A24A1278002A0BD1A04A01211170A04A9A
:10136000002111609F4A11609F4A11609F4A1160DD
:101370004A46B01842468118C9198D4206D09C4A87
:101380001278002A02D19A4A01251570002904D149
:10139000974A00251570914A1570964A1568002DD8
:1013A00044D0012D47D0B42070434B46009C5C4391
:1013B00063001B191C01E41AE40000195A23424679
:1013C0005343C018FA00D21913019B1A5B00C018CE
:1013D0004B46F5184544ED19290003F049FEB421A8
:1013E000490003F045FE0C005A21200003F040FEA6
:1013F0005346002B0BD15B46002B08D1069B002BDC
:1014000005D1079B002B02D1022D00D1B0E14B4644
:10141000981B04F021F9784B1B78002B00D1C4E114
:10142000764B1A685B6800920193C2E1744A00240B
:101430001460744A1460002D24D0684A1278002A7F
:1014400020D15246002A0ED15A46002A05D1069ACA
:10145000002A02D1079A002A14D05B46002B0ED036
:10146000FF23029301E000230293069B002B00D090
:1014700026E2079B002B00D124E2FF20DCE1802341
:101480000293F2E704292AD0022850D04A46921B40
:1014900054490A604246D219012A56DD4346DB19F7
:1014A000022B00D184E04346FB1A4D4A13604B46A1
:1014B000F318012B00DCB3E04B46F318012B00D1ED
:1014C000E1E04346DB19012B00D06CE75346002BCB
:1014D00000D0DFE05B46002B00D164E7DAE0434B4D
:1014E0001A68D317D2185A403F4B1B68D9175B189C
:1014F0004B409A420DDD3B4B1B68012B04D000266C
:101500000027002398464EE7002399460027984677
:1015100049E7334B1B68012B04D000239946002672
:10152000984640E700239946002600273BE72E4BCC
:1015300000221A602D4B1A68324B1B689A4230DC2D
:101540005B429A4230DA0026A8E72F4A1268002A46
:101550001CD12E4A1268002A18D1002B16D11D4B1F
:101560001B68002B12D12A4B1B68002B0ED1294B74
:101570001B68002B0AD1284B1B68002B03D0274A7D
:101580001268934202D1012001F0E9FE154B1B685D
:10159000DA1799185140154A10681B184B4313600D
:1015A0007CE70023994679E700239946002675E7F2
:1015B0000D4B1B68124A126893425FDC002B5FDB05
:1015C000094B00221A6000270023984674E7C046A2
:1015D000F0130020F4130020B81D00200D2000207F
:1015E000C01D0020BC1D0020FC1F0020F81F002093
:1015F0000E2000207C0C002006200020680C00201B
:10160000600C0020640C0020E8130020EC13002084
:10161000F8130020FC13002004190020780C00208F
:10162000B44B1B68002B1ED1B34B1B68002B1AD187
:10163000B24B1B68002B16D1B14B1B68002B12D18B
:10164000B04B1B68002B0ED1AF4B1B68002B0AD18F
:10165000AE4B1B68002B03D0AD4A1268934202D1F7
:10166000012001F07CFEAB4B1B68DA179918514042
:10167000A94A10681B184B4313601DE700271BE79E
:101680000023984618E7069B002B03D1079B002BED
:1016900000D116E7A14B1868002800D083E6012E80
:1016A00039D04B46012B3ED04346012B44D0012F6D
:1016B0004AD038009A4B1B78002B56D0994B1C68A7
:1016C0005D6803F0C9FF984A984B03F058FF002269
:1016D000974B03F03AFF0090019104F013F82200B9
:1016E0002B0003F04CFF0022924B03F029FF03F084
:1016F000CBFF02900098019904F016F822002B000D
:1017000003F03DFF02000B0000208A4903F013FFA5
:1017100003F0BAFF90E0069B002B1ED1079B002B25
:10172000BFD0CB20C6E7069B002B18D1079B002B10
:10173000BAD05220FF30BDE75346002B11D15B4693
:10174000002BB4D04320B5E75346002B0BD15B46AA
:10175000002BAFD02620FF30ACE79D20AAE7172052
:10176000A8E77120A6E7F720A4E70024724DA8E7B8
:101770006A4B1B68002B00D049E6C20F801801336A
:1017800003409B1A012B01D001235B424246012AF0
:1017900008D0012F03D03A005343E41837E6674AD4
:1017A0001268F9E7664A1268F6E70022624B009277
:1017B0000193009A019B03F0E2FE04900591200042
:1017C00003F04AFF584A594B03F0D9FE0022584B08
:1017D00003F0BBFE04000D0003F094FF0A000100BB
:1017E000029103920200039949004B08049805995D
:1017F00003F0C5FE00224F4B03F0A2FE03F044FFAE
:1018000002904346F81A03F027FF009A019B03F069
:10181000B6FE009001912000290003F085FF020030
:1018200049004B080098019903F0A9FE0022414BA2
:1018300003F086FE03F028FF424B1B78002B0ED0EE
:10184000414A1278002A0AD0404A1268D117521829
:101850004A40314909688A4201DA012F34D0002B0D
:1018600000D079E0002B00D0C2E0224B1B68002B97
:101870001AD1214B1B68002B16D1224B1B68002B61
:1018800005D0234A12681D32FF3293420CD11E4B01
:101890001B68002B04D01E4A1268FA32934203D10F
:1018A0002B4B029ADA7018714E444644F619294BB4
:1018B0001E6009B0F0BCBB46B246A946A046F0BDCA
:1018C0000020B9E78020B7E74A46B218002AC6DDF3
:1018D000D022120652689200C1D51E4B1B68012B04
:1018E00000DCBBE0029B802B00DCBBE08020FF2300
:1018F0000293BAE7E8130020EC130020F013002055
:10190000F4130020F8130020FC1300200419002019
:10191000780C0020C01D0020FC1F00207C0C002043
:1019200006200020680C0020182D4454FB2109409B
:10193000008066400000604000C05F40700C0020E6
:10194000740C00200520002002200020F81F002039
:10195000C41D0020B81D0020464A1278002A00D17C
:1019600080E75246002A08D15A46002A05D1069A35
:10197000002A02D1079A002A04D03F4A1278002A8E
:1019800000D16FE73D4A1278002A04D03C4A127811
:10199000002A00D066E7D02212065268520104D510
:1019A000D02212065268D2000BD5D02212065268FD
:1019B000520100D556E7D02212065268D20000D458
:1019C00050E7D02212065268120100D44AE72D4A8D
:1019D0001268012A00D045E7D02212065268920010
:1019E00000D43FE7254B00221A70802302933CE786
:1019F000D0231B065B681B0705D5D0231B065B683D
:101A0000DB0700D531E75346002B08D15B46002B9E
:101A100005D1069B002B02D1079B002B04D0164B4F
:101A20001B78002B00D120E7012F00D01DE74B468B
:101A3000F318002B00DC18E7124B1B68012B00D0B9
:101A400013E7D0231B065B689B0000D40DE7029BC5
:101A5000802B0BDD8020FF23029306E700239946AD
:101A6000002602E7802000230293FEE68020002368
:101A70000293FAE6022000200D2000200E20002014
:101A80000F2000207C0C002070B5002005F012FB18
:101A9000002806D00D490E481B2206F03FFF002803
:101AA00000D170BD094A1B2314000021002005F05D
:101AB00023FB07490B00220031CA31C313CA13C3E9
:101AC0001188198092789A70EBE7C046C41D0020F7
:101AD0009C1D0020F0B5C64600B5D0231B065A68F1
:101AE000B1490C6894435B689B0625D5D0231B063F
:101AF0005B681B0665D5D0231B065B68DB0662D5D9
:101B0000AA4B1B68002B06D1D0231B065B681B0762
:101B10005BD5002211E0D0231B065B685B0756D51E
:101B2000D0231B065B685B0653D5D0231B065B687E
:101B30009B0750D5002200E001229D4B1A709D4B5F
:101B400000221A800021D9721A735A739A73DA73B9
:101B50001A745A749A74FEF7C7FD8025AD002540AB
:101B60006B1E9D41EDB2802636012640731E9E41BC
:101B7000F6B280277F0127407B1E9F41FFB2802362
:101B80005B0023405A1E9341DBB298463A00310075
:101B90002800FEF7CDFC43463A0031002800FFF74D
:101BA00079FB630419D5844B01221A707F4B1B68A3
:101BB000002B15D07F4A11888023DB000B43138054
:101BC0000EE00122B9E70122B7E70122B5E70122C1
:101BD000B3E70122B1E70122AFE7774B00221A7089
:101BE000A3000DD5754B01221A70704B1B68002B9A
:101BF00009D0704A118880235B000B43138002E0F8
:101C00006E4B00221A706E4B1B68002B00D0A4E0B4
:101C10006C4B1B68002B00D09FE06B4B1B68002BAC
:101C200000D09AE0694B1B68002B02D0142B00DC1B
:101C300093E05E4A1268002A47D1620604D55D49E6
:101C40000A88012002430A80220604D559490A88DD
:101C5000022002430A80A20604D556490A880420BD
:101C600002430A80620704D552490A8808200243C9
:101C70000A80E20608D5002B01D0272B04DD4D4A4F
:101C8000138810210B431380230704D5494A138876
:101C900020210B431380A30704D5464A1388402113
:101CA0000B431380E30704D5424A138880210B437A
:101CB0001380630551D5464B1B68002B4DDD3D4A13
:101CC000138804210B43138047E0424B0020424914
:101CD00018605960630604D5364A138801210B4306
:101CE0001380230604D5334A138802210B43138043
:101CF000A30604D52F4A138804210B4313806307DE
:101D000004D52C4A138808210B431380E30604D51D
:101D1000284A138880210B431380230704D5254AC2
:101D2000138840210B431380A30704D5214A13884D
:101D300020210B431380E30704D51E4A138810218A
:101D40000B431380D0231B065B685B0505D4194A3F
:101D5000118880231B010B43138080239B012200E9
:101D60001A401C420ED0154B1B78002B0AD00F4B8B
:101D70001B68002B06D10F4A11880133FF330B4338
:101D8000138033E0002A29D00B4B1B78002B25D081
:101D9000064B1B68002B21D1064A118880235B016A
:101DA0000B43138022E0C0465C0C00207C0C00201A
:101DB00002200020C41D0020052000200620002055
:101DC000F8130020FC13002004190020EC1300205D
:101DD000F0130020680C002000C05F40002A05D0EE
:101DE000074A118880239B000B431380FFF74CFEAA
:101DF000044B054A12781A7080BCB846F0BDC04644
:101E0000C41D00200F2000200220002010B5040077
:101E100000F09AF90123A340D02212069362002217
:101E20000121200000F076F910BD000010B50F2050
:101E3000FFF7ECFF1B20FFF7E9FF1C20FFF7E6FF91
:101E40001A20FFF7E3FF0520FFF7E0FF0720FFF769
:101E5000DDFF0220FFF7DAFF0620FFF7D7FF04209F
:101E6000FFF7D4FF0120FFF7D1FF0320FFF7CEFFDC
:101E70000020FFF7CBFF1D20FFF7C8FF0D20FFF765
:101E8000C5FF0E20FFF7C2FF0A20FFF7BFFF0920A2
:101E9000FFF7BCFF0B20FFF7B9FF0C20FFF7B6FFE1
:101EA0000820FFF7B3FF3C4B00221A705A709A705B
:101EB000FEF762FAD0231B065B689B051BD4374BE9
:101EC00001221A60D0231B065B681B0628D4344B02
:101ED00001221A60D0231B065B685B0636D4314BA7
:101EE00000221A602F4B1A682D4B19682B4B18686B
:101EF000FEF70AFA10BDD0231B065B681B0503D44E
:101F0000264B00221A60DDE7234B1B78012B03D000
:101F1000224B00221A60D5E7204B01221A60D1E73C
:101F2000D0231B065B689B0603D41D4B00221A605E
:101F3000D0E7194B5B78002B02D1194A00211160C0
:101F4000012BC7D1164B01221A60C3E7D0231B0611
:101F50005B685B0703D4134B01221A60C2E7D023EE
:101F60001B065B689B0703D40E4B02221A60B9E77D
:101F7000094B9B78002B02D10A4A00211160012BEA
:101F800005D0022BAED1074B02221A60AAE7054A00
:101F900001211160F5E7C04658190020601D00209E
:101FA000800C00207C0C002070B5124C1B220021FC
:101FB000200003F093FE0F23A3707133E3702371AD
:101FC0006371A3710023E3740233237500236375E7
:101FD0000233A3750023E3750233237606490B0011
:101FE000220031CA31C313CA13C3118819809278F1
:101FF0009A7070BDC41D00209C1D002010B505F016
:10200000E8FBFFF713FFFFF7CFFF05F0A1FA054844
:1020100006F08EF901200021404204F073FEFFF724
:1020200059FDF7E7D504001000487047848E001072
:10203000034B1B68012B01D0024870470248FCE7A4
:10204000601D0020048E0010AC8D00100020704731
:1020500070470000034B1B68012B01D002487047FA
:102060000248FCE7601D0020888D0010648D001080
:1020700070B500280DD0022824D8134B8000C45816
:10208000200006F083FCC0B21F2800D91F200023C7
:102090000DE00D4B19680D48022203F025FE0120CA
:1020A00007E05A1CE55C0A4B5100CD52D3B298426E
:1020B000F7D8013043009BB20548C0229200134379
:1020C000038070BD0020FCE7500C002002140020AB
:1020D0000014002010B502490120FEF72FF910BDB1
:1020E000FFFF000010B58300084A944663441A6855
:1020F00040246240803414408022520113431C600B
:10210000C000034B9C466044416010BD04C00140C8
:102110000040014080000B4B9C46604400290DD0DC
:102120000823002A0CD004221343026853400C22D7
:102130001A4080235B0103431A6070470023F0E7D5
:102140000022F1E704C0014010B501238340D022F2
:102150001206936293610521FFF7C4FF10BD0000D2
:10216000034B1B6802201840431E9841C0B27047C1
:1021700000C00640EFF3108072B6034B1B68002BC3
:10218000FBD0BFF35F8F70472C0100D0BFF35F8F90
:10219000024B00221A6080F3108870472C0100D097
:1021A000F8B506000C001500FFF7E4FFE308F71888
:1021B000F15C07222240012393400B4205D1DBB2A0
:1021C0000B433B70FFF7E2FFF8BD2100280001F050
:1021D0002DFEF0B583B00600019114001F00FFF73B
:1021E000C9FF00E00134BC420CD8E308F518F35CE9
:1021F0000721214001228A401A42F3D1D2B21A4368
:102200002A7001E001246442FFF7C0FF002C02DBCA
:10221000200003B0F0BD019B002BF9D0089801F01D
:1022200005FE000070B505000C00FFF7A3FFE308F2
:10223000EE18EA5C0721214001238B40134204D0B1
:102240009A433270FFF7A2FF70BD034B034A044864
:10225000332101F053FDC046988E0010F08E00101F
:10226000B88E0010002307E0054A9A189200BFF3C9
:102270005F8F0021116001331F2BF5D97047C046D5
:1022800040000034054A1078431CDBB21370172B52
:1022900002D9130010221A707047C046840C002027
:1022A00010B582B00100054C054B00931F23182286
:1022B0002000FFF78EFF02B010BDC046D8180020E6
:1022C000008F0010074B9B68103080001950BFF33F
:1022D0005F8FBFF35F8F044B0021196082F310887A
:1022E0007047C04600ED00E0240100D010B503881F
:1022F000DA0A1C2A05D15B055B1502335B00C018A6
:1023000010BD034B034A0448B12101F0F7FCC0465D
:102310001C8F001070910010348F001010B5091A36
:102320000B1F0A4A88180A4A904208D8C90706D4DF
:102330005B105B055B0D0748184380B210BD064B70
:10234000064A0748A32101F0D9FCC046FC0700005B
:10235000FE0F000000E0FFFF688F00106491001086
:10236000348F001010B5091A04394A08090B08D136
:102370004905490D064B0B430380064B134343802D
:1023800010BD054B054A0648AB2101F0B7FCC0461D
:1023900000F0FFFF00F8FFFF988F00103891001049
:1023A000348F001001238340034A10681840431EF5
:1023B0009841C0B27047C04600E100E0002904D057
:1023C000034B1860034B18607047034B1860FBE722
:1023D00080E200E000E100E080E100E010B50123D0
:1023E00083401800FFF7EAFF10BD0000024B9B6816
:1023F00010308000C058704700ED00E070B5040058
:102400000D00EFF3108672B60C4B1B68002BFBD04F
:10241000BFF35F8F2000FFF7E9FF094B984201D01F
:10242000A84205D1320029002000FFF74BFF70BD04
:10243000044B054A0548862101F060FC240100D0C8
:10244000CD010010A88F001098910010348F00105B
:10245000F0B5DE4657464E464546E0B589B0814662
:1024600001911500EFF3108A72B66D4B1B68002BBB
:10247000FBD0BFF35F8F6B4B00269E57002E41DBD6
:102480007400A419A400684824180622A256654BBB
:102490001A70664B9A684B4610339B00D358984687
:1024A0001F00181A2F2839D9614B984530D105AF34
:1024B000604B3B80604973009B46981980005A4BE3
:1024C000984640440230FFF729FF78805B4BBB8081
:1024D000FF23BB71FD71019B079333005B449B009D
:1024E000434407CF07C301231C43A046524641463D
:1024F0004846FFF7E7FE09B0F0BCBB46B246A94626
:10250000A046F0BD4E4B4F4A4F48D72101F0F6FB95
:102510004E4B4C4A4C48DE2101F0F0FB01380C21B7
:1025200002F0CEFD002912D101239F43BB463B00A0
:102530000027DA79AA4211D90621595600290CDB65
:102540004A005218920038491F008B18F1E7404B9F
:102550003C4A3D48EA2101F0D1FB1F00002F2ED05C
:1025600005AB3C4A1A80813A5A800623FB560293F7
:10257000002B17DA384805AB9B469880029A9A716F
:10258000DD71019A0792381D2100FFF7C7FEB88060
:10259000BE71254B7200921992009B185A4613CABD
:1025A00013C3A3E7381DFFF7A1FE010070008019D7
:1025B00080001D4BC0180430FFF7B0FEDBE705AF0D
:1025C0001C4B3B801C49730002939B199B00164ACD
:1025D00090461A0042440392901CFFF79FFE7880B9
:1025E000039A101D5946FFF799FEB8801B4B5A46B7
:1025F0004146521A524153431B0DBB71FD71019A62
:102600000792029B9B199B00434407CF07C3114BC2
:102610005A461380813B538001231C43A04665E743
:10262000240100D00C200020880C002000ED00E0E8
:10263000CD01001000A1FFFFB80C002001BDFFFF7D
:10264000E08F001080910010348F0010089000106F
:10265000309000100148000001BD0000AAAA00004F
:10266000F0B5CE46474680B583B006000D00EFF3C7
:10267000108872B64F4B1B68002BFBD0BFF35F8FE7
:102680004D4B9A6834001034A300D7584B4B9F42EF
:1026900007D0AF4200D18BE00197494BFB1A2F2B9B
:1026A00009D9424639003000FFF70CFE03B0C0BC28
:1026B000B946B046F0BD3000FFF774FE81460021F8
:1026C0003000FFF78BFEBFF35F8FEFF3058100292A
:1026D00001D08C4211D10123019C9C430020A368AE
:1026E000AB4212D00622A256002A0DDB53009B18E3
:1026F0009B00334A2000D418F1E7324B324A36218E
:102700003248FF3101F0FAFA2000AB4249D10625E8
:102710006557002D2BDB2A4B6A00521992009B183B
:102720009A68A260DA79E2719B795BB2A371002B9F
:102730000FDA2748A080224B6A00521992009B189A
:10274000244A11789971157049463000FFF746FE0A
:10275000A7E7680040198000194BC0180430FFF744
:10276000C5FD0100231D1800FFF7D8FDE2E7002991
:1027700012D100280ED0FF238371174B8380154997
:102780000B78A3710E4A154BA41A644163431B0DC9
:102790000B70D9E7094FF2E71149201DFFF7E2FD61
:1027A000D2E7104B084A6A210848FF3101F0A6FA27
:1027B000024F76E7240100D000ED00E0CD010010CB
:1027C000880C0020A490001050910010348F00104D
:1027D00001BD00000C20002001BDFFFFAAAA0000DF
:1027E000C20C0020D890001070B5012202432E4B7D
:1027F000D31A2F2B28D8EFF30583002B2BD0EFF320
:10280000108C72B6294909680029FBD0BFF35F8F8D
:10281000254C274905002D1B6D416943090D4CB21C
:10282000244989689B00C95891421BD00021032983
:1028300032D81D4B4A00521892009B189B795BB20C
:10284000A3421FD00131F2E71B4B1C4AC7211C4891
:10285000490001F053FA1B4B184A92211848FF31E6
:1028600001F04CFA134A92681749D150174B1A7865
:1028700082711C70BFF35F8F0C4B00221A608CF3C7
:10288000108870BD084B4A005518AD005D19FF2631
:10289000AE710F4AAA80E9E70E4B084AD1210848D9
:1028A000490001F02BFAC046880C0020240100D01A
:1028B000AAAA000000ED00E0E09000101C910010BA
:1028C000348F001008910010CD0100100C20002062
:1028D00001BDFFFF149100100022044B02E00449E7
:1028E00002C30132072AFAD97047C04600E400E06B
:1028F00080808080024B9C46614489000160704763
:102900004000003410B5002B02DB0260436010BDB4
:10291000024B034A03483F2101F0F0F9B491001043
:10292000B4920010D091001070B582B0060014006F
:102930001D00FA22920000230698002103F0DAF825
:1029400002000B0012196B41002B09DB6846FFF7F0
:10295000D9FF009A019B32607360300002B070BDF5
:1029600001225242004BF1E7FFFFFF7F10B582B01A
:10297000040000F073FD02000B006846FFF7C2FF81
:10298000009A019B22606360200002B010BD30B548
:1029900085B004000D0002A8FFF7E8FF029A039B30
:1029A00000952000FFF7C0FF200005B030BD10B536
:1029B0000400FFF767FC01002000FFF79BFFFF23E7
:1029C0002371BFF35F8F10BD10B50400FFF75AFCF1
:1029D00001002000FFF78EFFFF23237100236371A6
:1029E000BFF35F8F10BD0000034B9C46614489001C
:1029F0000160BFF35F8F70474000003410B50400E2
:102A00000120FFF74DFC01002000FFF7EDFF10BD96
:102A1000084B5B6A994209D8064A926A824207D2F9
:102A2000994201D0012002E0002000E00020704720
:102A30000120FCE70040054010B500290AD00368DA
:102A40001B7B8B4206D38068054B9C466144090181
:102A5000401810BD034B044A04483C2101F04EF9D4
:102A6000FFFFFF0FCC920010DC950010F0920010D9
:102A7000F8B504001700FFF7DFFF06684568390066
:102A80002000FFF7D9FF026843680120AB4201D85C
:102A900002D00020C0B2F8BDB242FBD8F9E7000076
:102AA00010B5002B02DB0260436010BD024B034AED
:102AB00003483F2101F022F9B4910010A8950010BD
:102AC000D091001010B582B0040004980599121836
:102AD0004B41002B09DB6846FFF7E2FF009A019BA0
:102AE00022606360200002B010BD01225242014BFF
:102AF000F1E7C046FFFFFF7F10B5002908D0037B38
:102B00008B4205D300684B005B18033BC01810BD17
:102B1000024B034A0348682101F0F0F820930010AB
:102B2000849500103C93001010B5437B8B4201D17B
:102B3000012010BDFFF7E0FF8378002B01D10020BA
:102B4000F7E70120F5E770B50400857B002D01D182
:102B5000280070BD2900FFF7CFFF4378A373002B37
:102B600000D1E3730023837043700370F0E700002B
:102B7000F8B506000C001500FFF7BEFF0700002C9B
:102B80000DD0002D11D0AC4215D029003000FFF738
:102B9000B3FF84703B78002B13D13D70F8BD0A4B16
:102BA0000A4A0B486F2101F0A9F80A4B074A084866
:102BB000702101F0A3F8084B044A0548712101F087
:102BC0009DF843703D70E9E77C930010609500101C
:102BD0003C930010889300109493001070B5060089
:102BE0000D001400002914D0002A14D04368806816
:102BF0009847002806D0220029003000FFF7B8FFD0
:102C0000280007E02A0021003000FFF7B1FF200074
:102C100000E0100070BD0800FCE7000070B5040083
:102C20000D1E0CD0FFF768FF002383704370037004
:102C3000617B2A002000FFF7D1FF607370BD034B5A
:102C4000034A0448A52101F059F8C046AC9300108E
:102C5000749500103C93001070B504000D1E0FD049
:102C6000FFF762FF00280BD1E17B00290ED1A37B87
:102C7000002B03D1E37B002B0DD1A573E57370BD51
:102C8000084B094A0948F62101F038F82000FFF7FF
:102C900033FF4570EBE7064B034A0448FB2101F084
:102CA0002DF8C046B0930010509500103C930010D2
:102CB000D493001010B5002907D003681B7B8B420A
:102CC00003D3C0680139401810BD034B034A0448C0
:102CD000412101F013F8C046CC9200103C95001041
:102CE000F092001070B505000C00080000F092FC96
:102CF0000949200000F0D2FBFFF7C4FA074B9C46BD
:102D00006044800068602C75D0231B061B786B75AF
:102D1000034BA400E55070BD312E0010400000347C
:102D20008C1D00200A4B1A68EFF3108172B61368ED
:102D3000002BFCD0BFF35F8F054B1B68BFF35F8F89
:102D400000221A6081F3108840BF002000217047E4
:102D5000E41F002010B582B0040000F07FFB0200E9
:102D60000B006846FFF79CFE009A019B226063609F
:102D7000200002B010BD70B584B0040016001D0024
:102D800002A8FFF7E7FF029A039B00960195200037
:102D9000FFF798FE200004B070BD0000F0B583B0CE
:102DA000070001921D000AAB1C780BAB1E78002CAB
:102DB0000BD000682100FFF7B7FE002809D0194B9F
:102DC000194A1A48672100F099FF0068FFF7BBFE17
:102DD0000400002C02D1200003B0F0BD2100380017
:102DE000FFF72AFE019B03604560089B8360099BF7
:102DF000C36038682100FFF711FFA042EBD1387D96
:102E0000019A2B0000F092FB051E01D0002E04D089
:102E10000C9B002BDFD01D70DDE73868210000F02F
:102E20003FFDF5E7E893001090950010F092001038
:102E3000F0B5DE4657464E464546E0B58FB00B909E
:102E40000021784B8200D458894682E02900200076
:102E5000FFF7F2FD804602684368921BBB41002BDE
:102E600009DD43461A685B680B9800F05FFB00239E
:102E70009846002689E0002B01D1002AF1D10021DB
:102E8000584600F003FD0700A84215D143461A68D2
:102E90005B680892099343469E68DB689846002E5B
:102EA00010D029002000FFF705FF037899461B0288
:102EB0001F432761002068E05B4B5C4A5C488E2121
:102EC00000F01CFF5B4B594A5948922100F016FF55
:102ED0002369002B77D0BB4219D1069807990023AC
:102EE00042428B4100920193089A099B0CA8FFF77C
:102EF000E9FD0C9A0D9B002104910131039102958B
:102F00004146019100962000FFF748FF16E04A4B2A
:102F1000464A4748A12100F0F1FE069A079B002B84
:102F200001D1002A52D120682900FFF795FE29001F
:102F30002000FFF7BFFE03780133037000232361F5
:102F40006268BFF35F8F13608AF310880120002846
:102F500061D00CA8FFF7FEFE0C9E0D9F00220023FF
:102F6000089209936268EFF3108A72B61368002B17
:102F7000FCD0BFF35F8F23689B465D7B002D00D0A4
:102F800064E700239846002600206368BFF35F8F44
:102F900000221A608AF31088002ED8D04B461F02F8
:102FA0002F4341463800B047069007916268EFF31F
:102FB000108A72B61368002BFCD0BFF35F8F079B9B
:102FC000002B00DA84E7079B002BA6DD2369002B8A
:102FD000A9D0BB4219D10CA8FFF7BCFE0C9A0D9BDF
:102FE00006980799009001910CA8FFF76BFD0C9AC9
:102FF0000D9B0021049101310391029541460191FD
:1030000000962000FFF7CAFE98E70B4B074A0848D6
:10301000A42100F073FE0FB0F0BCBB46B246A94637
:10302000A046F0BD8C1D002010940010C09500102B
:10303000F0920010289400103494001010B50C4B3E
:103040005B68002B04D00B480A21FFF753FC10BD2E
:10305000074C094A20682300102100F082FB03205E
:1030600000F0F0F903212000FFF73CFEEBE7C0463B
:10307000D00C0020E41F0020712A001010B5064B70
:103080005B68002B01D0044810BD044B044A05487E
:103090005E2100F033FEC046D00C0020709400107A
:1030A00024950010F0920010F0B5DE4657464E46CB
:1030B0004546E0B58DB0060090461F00169B9A4627
:1030C000179B994618AB1B780793272302AA9446AF
:1030D000634400221A7021E001003000FFF7EAFD8E
:1030E00000783CE00698002B5CD0079B002B59D061
:1030F0004946D04704000D0003000B4359D0002976
:1031000040DB08A8FFF726FE089A099B009401956A
:1031100008A8FFF7D7FC089B9846099F7268EFF351
:10312000108B72B6136859424B41D9B20691002BED
:10313000F8D1BFF35F8F273302AA94466344049308
:103140000023039302934B46019353460093424658
:103150003B003000FFF722FE0400051EBCD173685F
:10316000BFF35F8F002119608BF31088002D17D0FB
:10317000272302AA944663441B78002BB2D1000295
:103180002043B0E700236242AB41009201934246E4
:103190003B0008A8FFF796FC089B9846099FBDE7EF
:1031A000012040420DB0F0BCBB46B246A946A04645
:1031B000F0BD0698F6E7F0B5C64600B584B0050048
:1031C000884616001F000AAB1C78FFF757FF0294D1
:1031D000019700962A004346FFF766FF04B080BCC3
:1031E000B846F0BDF0B5C64600B504000D00426813
:1031F000EFF3108772B61368002BFCD0BFF35F8F1C
:10320000EEB22368984631001800FFF78DFC0028C5
:103210002AD02369AB4213D02D0AEDB23100200031
:10322000FFF748FD0378AB4211D000206368BFF37D
:103230005F8F00221A6087F3108880BCB846F0BD0B
:103240000C4B0D4A95210D48490000F057FD310007
:10325000404600F025FB0028E8D1094B064A322100
:103260000648FF3100F04AFD2369AB42DED100235E
:103270002361DBE7949400100C950010F09200108D
:10328000B894001010B50400FFF7F8FE2100FFF716
:10329000A9FF10BD30B587B004000D00EFF3058322
:1032A000002B20D106225242D31712196B418B42B8
:1032B00002D803D1824201D90022002304A8FFF7DB
:1032C000EFFB02A8FFF746FD02980399049A059BBD
:1032D000121A8B41002B0BDC08D02000290000F0D3
:1032E000C9F807B030BD144800F0A0FD002AF4D0A2
:1032F000124A0498059900230093FFF75CFF002809
:1033000013DAEAE70E4B1A68EFF3108172B613680E
:10331000002BFCD0BFF35F8F094B1B68BFF35F8F9F
:1033200000221A6081F3108820BF04980599FFF7E6
:103330006FFB0028E6D0D0E7BC940010252D0010CC
:10334000E41F002000B583B002000B006846FFF7C1
:1033500012FD00980199FFF79DFF03B000BD10B565
:10336000FA2292000023002102F0C4FBFFF7EAFFDB
:1033700010BD000030B583B005000C00EFF30583ED
:10338000002B0FD10B4A00230093FFF714FF0028F6
:103390000BDD20BFFFF776FF28002100FFF738FB89
:1033A00003B030BDFFF734FBFAE728002100FFF738
:1033B0002FFBF5E7252D001070B5EFF305801038D1
:1033C000EFF3108C72B6194B1B68002BFBD0BFF3C8
:1033D0005F8F01221300834015494B6315490B6031
:1033E000154909780C00C440224213D0104A546A8F
:1033F000124A8500AA58944205D3114AAA580E4C85
:103400009943217007E00A4A031D9B00995899507F
:10341000002200E00022BFF35F8F044B00211960FF
:103420008CF31088002A00D0904770BD280100D08E
:10343000004005403C70054010200020E81F00209F
:10344000C817002010B50100024A034B1800FEF710
:10345000A7FE10BDE89500100A200020044B5B6A0F
:10346000034A906A1900536A9942F9D17047C046DD
:1034700000400540084B5B6A01E0074B5B6A8B42EA
:10348000FBD301E0044B5B6A8B4203D1024B9B6A86
:103490008342F7D37047C0460040054070B5040032
:1034A0000E00EFF3108572B61B4B1B68002BFBD090
:1034B000BFF35F8F002E1CD02000FEF797FF174B45
:1034C00083420BD019002000FEF798FF0121200055
:1034D000FEF784FF0123A340114A1360114BA4009F
:1034E000E650BFF35F8F0C4B00221A6085F3108803
:1034F00070BD0C4BA2000021D1500122A2400A490C
:103500000B7893430B7005492000FFF7A9F80021C1
:103510002000FEF763FFE4E7280100D0B933001074
:1035200038600540C817002010200020F0B5DE46A6
:1035300000B584B00400150001921E000293FFF74D
:103540008DFF03958E4202D84ED185424CD9EFF3C0
:10355000108B72B6274B1B68002BFBD0BFF35F8F1D
:10356000254A17780125A540EBB23B431370234B46
:103570005D63221D92000199D150214AA100029859
:1035800088501B6A2B4212D11C4B1B6C2B4208D05B
:103590000020BFF35F8F174B00221A608BF3108857
:1035A00023E0184B184A1948C52100F0A7FBFFF784
:1035B00055FF8E4214D802D1039B834210D80E4B84
:1035C0001B78BB420ED00D4B1D625D631F22224053
:1035D000012393400E4A1360074B1F700120D8E768
:1035E0000020D6E70120D4E7012004B080BCBB4610
:1035F000F0BDC046280100D010200020004005404A
:10360000E81F00200C9600106896001030960010FD
:1036100080E200E0EFF3108C72B60B4B1B68002BBE
:10362000FBD0BFF35F8F01238340084A1362084930
:103630000A789A430A70BFF35F8F034B00221A6027
:103640008CF310887047C046280100D00040054028
:103650001020002010B5002908D0037B8B4205D331
:1036600000684B005B18033BC01810BD024B034AB7
:103670000348682100F042FB209300106897001077
:103680003C930010F8B506000C001500FFF7E2FFB0
:103690000700002C0DD0002D11D0AC4215D0290010
:1036A0003000FFF7D7FF84703B78002B13D13D70BB
:1036B000F8BD0A4B0A4A0B486F2100F01FFB0A4B6A
:1036C000074A0848702100F019FB084B044A0548D6
:1036D000712100F013FB43703D70E9E77C9300100B
:1036E000549700103C93001088930010949300109E
:1036F00070B506000D001400002914D0002A14D063
:10370000436880689847002806D0220029003000CE
:10371000FFF7B8FF280007E02A0021003000FFF77C
:10372000B1FF200000E0100070BD0800FCE770B59C
:1037300005000023437301338373037BC3730124A8
:1037400006E021002800FFF785FF0134E4B2447051
:10375000297BA142F5D82800FFF77CFF00234370A6
:1037600070BD10B5017342608360FFF7E0FF10BDCC
:10377000F0B5C64600B505000C1E03D1200080BC84
:10378000B846F0BDFFF766FF4678002EF6D0310050
:103790002800FFF75FFF4778002398464370210019
:1037A0002800FFF757FF43464370320021002800EE
:1037B000FFF79EFF040039002800FFF7D9FF020041
:1037C00021002800FFF794FF0400D7E7F0B5C646B4
:1037D00000B504000D001700002927D0FFF73AFFBD
:1037E0004378002B28D18378002B2BD1017820003F
:1037F000FFF7BEFF06008046002F0AD0E17B0029BC
:1038000026D1A37B002B03D1E37B002B25D1A5730D
:10381000E5734346002B26D129002000FFF71AFF4D
:1038200000234370300080BCB846F0BD114B124AF3
:103830001248382100F062FA114B0F4A0F483A2122
:1038400000F05CFA0F4B0C4A0C483B2100F056FA92
:103850002000FFF7FFFE4570D3E70B4B064A0748F1
:10386000422100F04BFA31002000FFF7F3FE002365
:103870008370D1E784960010409700108C9600105A
:10388000BC960010E4960010D493001070B50400AC
:103890000A00457B2900FFF799FF6073280070BD7F
:1038A00070B506000C1E40D0437B8B4207D0FFF75B
:1038B000D1FE05008178002906D1002036E00121E3
:1038C000FFF7E4FF012031E03000FFF7C3FE01788D
:1038D000A1420DD03000FFF7BDFE4178A1420AD0D1
:1038E0000029F7D1124B134A13486B3100F006FA46
:1038F0006B78037001E06B7843700023AB706B70E2
:10390000012221003000FFF761FF0200717B81423C
:1039100005D03000FFF7ECFE7073012006E0074B86
:10392000044A0548712100F0E9F9002070BDC04645
:1039300014910010289700108C9600100897001022
:10394000F8B5DE4657464E464546E0B506000F0040
:1039500015000A9A93424ED31A0E92461B029846BD
:103960000A9A00234046514601F0E8FB8146740064
:10397000A419A4002E4B9C4664446368834200D281
:103980006060331FDBB29B46012B3AD9C0239B01F9
:103990002343802212011A60264BB200D15800291D
:1039A00005D0586901F08CFB01300138FDD16D0163
:1039B00023685D40E0222A4080235B0123431A6094
:1039C0005A46012A28D980239B01234380221201D1
:1039D0001A604B4663604A4600234046514601F058
:1039E000ADFB144BB60098510120F0BCBB46B2466B
:1039F000A946A046F8BD104B104A11482D2100F0F1
:103A00007DF9012FC2D1C0239B01234303221A60F9
:103A1000A368DB07FCD5CAE72168794003220A4086
:103A20001A60A3680125BD401D42FAD0CBE7C0460D
:103A300000800040DC18002074970010C49700102C
:103A40008897001030B583B00C2000F017F9FEF70E
:103A500087FB00280DD0002304E02E4A99002E4851
:103A600088500133092BF8D92A4B2C4A5A6203B0EB
:103A700030BD2B4B00229A6700F008F9294B012238
:103A80001A60274B5B6C012BFBD1274B03221A607A
:103A9000234B9B6B012BFBD1013300930433234A4F
:103AA0000121234800F054F805230093214A012105
:103AB000214800F04DF8214B009300220221042000
:103AC000FFF73EFF1E4D00952B000022012105202F
:103AD000FFF736FF104C009423000022002107203E
:103AE000FFF72EFF00942300002200210820FFF79B
:103AF00027FF0A4B00932300002200210920FFF733
:103B00001FFF00952B00002200210620FFF718FF61
:103B1000ADE7C046DC180020006CDC021BB70000DB
:103B2000008000403CB0004030B00040002F685999
:103B300000800240008C864700C00240001BB70096
:103B400040597307014B8000C0587047DC180020B3
:103B5000F0B5C64600B504000D00170098460C20CD
:103B600001F0AEFA0600394BFA18394B9A4241D8A7
:103B700043011B1A9901C91AC900091889013800A3
:103B800001F09EFA0200103A98235B009A4237D85F
:103B90004346013B062B39D8069B013B062B35D803
:103BA0003F09B74238D343461E04069B1B031E43FE
:103BB0002368002B36DB274B9C4244D080235B01DB
:103BC000254A1360254A1360254A926819009143DB
:103BD000FAD12560A060221DC0239B01134321223E
:103BE0001A602268002AFCDAE66008221A6080BCAB
:103BF000B846F0BD1B4B1C4A1C48112100F07EF852
:103C00001B4B194A1948192100F078F8194B164A2C
:103C100016481C2100F072F8174B134A1348232151
:103C200000F06CF822683F231340AB42C3D1A36875
:103C30001B051B0D8342BED1E368EE22D202134066
:103C4000B342B8D1D3E780239B01B9E780E84BD3D7
:103C500080F8A93200C0024000E0004000F00040BF
:103C600000C00040D4970010EC9800103498001069
:103C70006898001084980010D098001080239B0052
:103C80000343014AD362704700800540074BAA22D4
:103C900012011A602132FF32DA60054B054A1A60C0
:103CA000024B5B68002BFBDA7047C04600400240C5
:103CB0000060024000B0FA0000BEFDE703000A4ABF
:103CC0001268002A08D0084A1068C318074A9A42A6
:103CD00006D3054A13607047034A05491160F2E7AD
:103CE00001204042F7E7C0465C1900200000042094
:103CF0001420002010B5FFF7DFFF000030B583B0BF
:103D00000D001900002A0BD0074B084C01920093BC
:103D10002B000200200002F061F90120FFF7CCFF28
:103D2000034B1A00F1E7C046F898001008990010FC
:103D30000499001070B52B4B2B4A1A602B4B2C4A60
:103D40001A602C4B9A682A4B9343FAD12A4C01E013
:103D500008CC9847294B9C42FAD3FFF773FE234BBC
:103D6000274A1A60234B9B68DB43DB01FAD1254BC2
:103D700040229A675A671A67DA66234C09E0234B98
:103D8000234A24488621FFF7B9FF2000FEF70FFEE3
:103D90000834214B9C4209D22368002BF5D0012B1B
:103DA000EDD12000FEF710FE0834F2E71B4DA968A4
:103DB0001B4CC022200001F097FFAC60EFF305839D
:103DC000002B00D000BEFEF74DFAFEF785FDFFF791
:103DD00035F9144C01E008CC9847134B9C42FAD3B8
:103DE00070BDC04600E00040BFCDFBFE00F00040CB
:103DF000FE7F3C0000C0004098120020A812002066
:103E0000FFFFFF0100F001408812002038990010E8
:103E1000A4990010589900109812002000ED00E0BD
:103E200000000020A8120020B01200200FB400B53E
:103E300083B0084802F0A2F8049B002B07D005A924
:103E40000191180002F0AAF8034802F097F8012047
:103E5000FFF732FF90990010A0990010704710B53D
:103E6000002802D00B684968984710BD0100002067
:103E700007E083001B185B00501C08601078C01816
:103E800030380A681378303BDBB2092BF1D9704720
:103E9000F0B5DE4657464E464546E0B583B09346FC
:103EA0001F000C9B9A460D9C0E9B99460F9B9B07EF
:103EB00003D0B8460F00060022E00192A3468846D0
:103EC0004E46B9460700B44207D2551C4B46414600
:103ED0002020B84701342A00F5E73D004F465C46F4
:103EE000019B9B46B1464646B84637002E0007E088
:103EF000013C551C5346185D43463900B0472A0023
:103F0000002CF5D135003E0047460F9B9B0707D498
:103F1000100003B0F0BCBB46B246A946A046F0BDB7
:103F2000B0464E46B9462F005D46531BB342EFD212
:103F3000541C4B4641462020B8472200F5E7F0B517
:103F4000CE46474680B585B0944698460C9D0D9C5C
:103F50000EAB1B789946109A119B129EB7071CD482
:103F6000002B0CD0F7070AD54F46002F02D10C3793
:103F7000374204D0013B02E030272F5501349442F0
:103F800001D21F2CF8D9F70707D59C4205D21F2C68
:103F900003D830272F550134F5E7F70612D57705FA
:103FA00005D4002C03D0944221D09C421FD00F9AFC
:103FB000102A32D00F9A022A37D01F2C0AD830226A
:103FC0002A5501341F2C05D84A46002A33D02D2209
:103FD0002A550134039602930194009543466246A4
:103FE000FFF756FF05B0C0BCB946B046F0BD621E33
:103FF000012C10D00F9F102F0BD014000F9A102AF5
:10400000D8D1B206D6D51F2CD4D858222A5501347F
:10401000D3E7023CCBE71400C9E7B206EED41F2C6D
:10402000ECD878222A550134C7E71F2CD2D8603249
:104030002A550134C1E7720703D52B222A550134D2
:10404000C8E73207C6D520222A550134C2E7F0B5A9
:10405000DE4657464E464546E0B593B081468A4611
:10406000089209931CAB10CB1B789B461E9D219B8D
:104070009846002C03D1102342469A439046802351
:10408000DB0046461E4042461A4212D0002C22D087
:1040900000260EE03033D9B2771C0AAB99552900BF
:1040A000200001F00DF8AC4216D31F2F14D83E00AB
:1040B00004002900200001F003F8CBB2092BE9D954
:1040C0004246920605D54121C918C9B20A39C9B27A
:1040D000E2E76121F8E7270043460693209B05931A
:1040E0001F9B049303955B46029301970AAB0093D1
:1040F000099B089A51464846FFF721FF13B0F0BCD0
:10410000BB46B246A946A046F0BDF0B5DE465746CE
:104110004E464546E0B597B00A900B910C929A46F0
:10412000209B9946219F22AA13789B46249B0993A2
:10413000259C289B98464A463A4302D11032934325
:1041400098468022D20045461540434613420AD085
:104150004A463A4341D000252E0053460D934D4622
:10416000099B9A461BE02E0053460D934D46099B32
:104170009A4614E03033DAB2731C99460EAB9A5566
:10418000524623002800390000F0D8FFBC4226D850
:1041900019D04B461F2B1CD84E4605000F00524627
:1041A00023002800390000F0C9FFD3B2092BE1D960
:1041B0004246920605D54122D218D2B20A3AD2B26C
:1041C000DAE76122F8E7AA45E3D94E460D9B9A4605
:1041D00008E04E460D9B9A4604E0002602E04E465B
:1041E0000D9B9A4643460693279B0593269B049373
:1041F000099B03935B46029301960EAB00935346D3
:104200000C9A0B990A98FFF79AFE17B0F0BCBB46C0
:10421000B246A946A046F0BDF0B5DE4657464E462A
:104220004546E0B591B0804689460C929A461A9C64
:104230001B9D22002B002000290001F0FAF9002824
:1042400000D0ECE001225242D44B2000290001F0C2
:10425000EBF9002800D0E2E001225242D04B2000CE
:10426000290001F0CBF9002800D0D8E0002200237B
:104270002000290001F0C2F9002800D0E4E00694F3
:1042800007958023DB001E9A1A400D921E9A1A424F
:1042900001D106231C930698079902000B0008928F
:1042A000099303000A00024300D1D9E0080D40053C
:1042B000400DBC4EB44660440A03120B1E00BA4BBC
:1042C00013431F0001F0C8F9B84AB94B01F057F980
:1042D000B84AB94B01F034F9089009910022B74B64
:1042E0003000390001F027F9B54AB64B01F047F923
:1042F00002000B000898099901F022F901F0C4F9B5
:10430000834601F0A9F906000F00AF4AAF4B01F058
:1043100036F90022AE4B01F013F901F0B5F908901F
:10432000AC4AAD4B3000390001F029F906000F000E
:10433000089801F091F9A94AA94B01F020F902006F
:104340000B003000390001F0F6F806000F00020003
:104350000B0001F014F90A900B91089BA14A9446B6
:10436000634400210022089109921B050993002350
:10437000089332003B003000390001F0E1F80E9064
:104380000F9132003B0000208021C90501F0D3F8D5
:1043900006000F000022944B0A980B9901F0D5F803
:1043A0000022924B01F0CCF802000B000A980B9906
:1043B00001F0CBF800228E4B01F0C2F802000B0096
:1043C0000A980B9901F0C1F802000B003000390087
:1043D00001F0B6F802000B000E980F9901F0B5F845
:1043E0000022714B01F0ACF8089A099B01F0C7F864
:1043F00006000F0008960997069A079B01F014F92A
:1044000000282FD001235B429C46E3440022774BD7
:104410003000390001F099F80890099122E01E9BC4
:1044200004931D9B03931C9B029300940195534698
:104430000C9A4946404600F0FFF811B0F0BCBB466C
:10444000B246A946A046F0BD00210022069107927F
:10445000069480231B069C46AC446346079310E7F2
:1044600000239B465B466333C62B20D804261E9B45
:104470001B0528D5089A099B190011430FD05D4AE6
:104480005D4B0698079901F0C7F800287AD0002202
:104490005A4B0698079901F0B1F8002872D01C9B7E
:1044A0005B4506DD5A469B1A013B1C9303E005263B
:1044B000DDE700231C938023DB001E9A1A431E9223
:1044C000002600239B461D9B9E4265D29F1B022314
:1044D0001E9A1A400A921E9A134202D0002E00D051
:1044E00000275B46002B07D0089A099B069807997E
:1044F00001F02BF8069007910022002320002900EC
:1045000001F07CF8002800D07CE03D4B1E9A13405F
:10451000049303971C9B0293069B079C00930194B2
:1045200053460C9A4946404600F086F8002E00D1CA
:1045300083E71E9B9B0671D54525441C534602000C
:1045400049462800C0475A46D317D2185A40052377
:104550000593013E0496002303930A3302935B46BE
:10456000DB0F019300925346220049464046FFF775
:104570006EFD0A9B002B00D15FE7020047460C9EB0
:104580001D9D53E01C9B002B9DD00D9B002B9AD0B2
:104590001C9B013B1C9396E7002798E7FFFFEF7FEA
:1045A000FFFFEFFF01FCFFFF0000F03FFB799F5092
:1045B0001344D33FB3C8608B288AC63F0000F83F3E
:1045C00061436F63A787D23F71A379094F930A4074
:1045D0000000E03F1655B5BBB16B0240EF39FAFE63
:1045E000422EE63FFF03000000002C400000244064
:1045F000000018402D431CEBE2361A3F80842E4108
:10460000FFF7FFFF069C079D22002900802000067F
:10461000844661440B000692079376E765258CE794
:10462000541C534649462020B8472200931BAB42F6
:10463000F6D3100001E7C046F0B5DE4657464E46B9
:104640004546E0B595B00690079193469946209F60
:104650001E9A1F9B1000190000F0EBFF002831D1BB
:1046600001225242BF4B1E981F9900F0C7FF00283D
:1046700037D101225242BC4B1E981F9900F0D4FF43
:1046800000283DD10022B94B1E981F9900F0CCFFA5
:10469000002850D10022B64B1E981F9900F0AEFFA3
:1046A000002848D1002200231E981F9900F0A6FF81
:1046B000002850D100239846229B5B0500D4B6E029
:1046C000002458E0229B0393219B02930323019330
:1046D000A84B00934B465A4607990698FFF7D8FB1C
:1046E0000EE1229B0393219B029304230193A24B8F
:1046F00000934B465A4607990698FFF7C9FBFFE01F
:104700000423229A1A4022990B4210D09B4B002A74
:104710000FD00422229903912199029101920093D2
:104720004B465A4607990698FFF7B2FBE8E0944BD0
:10473000EDE70322EEE7229B0493219B039302976C
:104740001E9B1F9C009301944B465A46079906985E
:10475000FFF762FDD4E01E9A1F9B0020002100F0AD
:10476000EAFE1E901F9101239846A5E70CAB30226C
:104770001A55013F01341F2C01D8092FF6D81E9875
:104780001F9900F081FF050000F066FF02000B009A
:104790001E981F9900F0CFFE7A4BFA009B181A68FA
:1047A0005B680A920B9300F0EAFE0890099100F012
:1047B0008FFF060000F04CFF02000B0008980999DB
:1047C00000F0B9FE0890099100226F4B00F02CFF19
:1047D00000282ED00136300000F03AFF02000B0016
:1047E0000A980B9900F010FF002801D0013500262F
:1047F000002F2CD1280000F02FFF02000B001E9884
:104800001F9900F098FE06000F0000225E4B00F09A
:10481000F5FE002846D100225B4B3000390000F045
:1048200003FF00283ED1EB073CD501353AE00627CF
:1048300046E70022544B0898099900F0DFFE002853
:10484000D6D1002E01D0F307D2D50136D0E7AA4643
:104850001F2C11D8013F0A21300000F031FC651CEB
:1048600030310CAB19550A21300000F029FC092E1B
:104870000ED906002C00EBE755461F2C0CD87B1EEA
:10488000002F09D00CAA302111551F000134F4E784
:104890002B0055461C00F0E71F2C03D80CAB2E2232
:1048A0001A5501341F2C10D80A21280000F0E0FB13
:1048B000661C30310CAB19550A21280000F0D8FBDA
:1048C000051E01D03400EDE734000323229A134083
:1048D000012B1CD01F2C06D84346002B32D00CAB2A
:1048E0002D221A550134229B0393219B029301949C
:1048F0000CAB00934B465A4607990698FFF7C8FA47
:1049000015B0F0BCBB46B246A946A046F0BD219BFF
:10491000002B13D04346002B02D10C3313420FD08F
:10492000219B013B2193190003E00CAB30221A5567
:1049300001348C42CED21F2CF7D9CBE72199F8E76E
:104940002199F6E7229B5B0704D50CAB2B221A5565
:104950000134C8E7229B1B07C5D50CAB20221A5592
:104960000134C0E7FFFFEFFFFFFFEF7F65CDCD41D3
:1049700065CDCDC1C0990010C4990010B499001044
:10498000BC990010689B00100000E03FF0B5DE46C7
:1049900057464E464546E0B593B082468846934614
:1049A0001193002900D106E300255646119B187883
:1049B000002800D102E3252809D06C1C5B462A00A0
:1049C0004146B047119B013311932500EEE70133B7
:1049D0001193002720E001231F430132119201248B
:1049E00018E002231F4301321192012412E0042334
:1049F0001F430132119201240CE008231F430132AE
:104A00001192012406E010231F4301321192012468
:104A100000E00024002C09D0119A1378203BD9B271
:104A20001029F6D88B00C449CB589F46119B1A78A1
:104A30001300303BDBB2092B10D92A2A13D00B9478
:104A4000119B1A782E2A1ED0119A1378683BD9B27E
:104A5000122959D88B00B949CB589F4611A8FFF7A6
:104A600005FA0B90ECE71C9B1A1D1C921B68002B8F
:104A700004DB0B93119B01331193E1E702221743EF
:104A80005B420B93F6E78022D20017435A1C119227
:104A90005A781300303BDBB2092B0BD92A2AD3D129
:104AA0001C9B1A1D1C921C68002C08DB119B0133F7
:104AB0001193C9E711A8FFF7D9F90400C4E700244E
:104AC000F4E780235B003B43511C119151786C2922
:104AD00001D01F0018E0C0239B001F430232119237
:104AE00012E080233B43511C11915178682901D079
:104AF0001F0009E0C0231F430232119204E080230B
:104B00005B001F4301321192119B1878672816D859
:104B1000252826D30300253BDAB2422A21D8930068
:104B2000874AD3589F4680239B001F43013211922E
:104B3000EAE780235B001F4301321192E4E7782803
:104B40000FD869280DD30200693AD2B201239340ED
:104B50007C4A13420FD11A0600D507E25B0500D547
:104B600094E16C1C5B462A004146B047119B01331F
:104B7000119325001AE778280AD062283AD06F28C6
:104B80003BD058283CD010239F43063B9C4601E075
:104B900010239C46582836D0692803D0642801D0B9
:104BA0000C2297437A0501D50122974369282DD01D
:104BB00064282BD0BA0500D5A2E0FA0500D5C3E0E1
:104BC0007A0600D4D5E01C9A111D1C911168FF22B1
:104BD0000A4005970B9B04930394634602930023BA
:104BE000019300925B462A0041463000FFF72FFAFE
:104BF00005002AE002239C46CCE708239C46C9E72F
:104C000010239C46C6E720221743C5E7BA0520D4E7
:104C1000FA0550D47A0666D51C9A111D1C911168AC
:104C2000FF220A40D0171118414005970B9B0493AF
:104C3000039463460293D20F019200915B462A00CF
:104C400041463000FFF703FA0500119B0133119331
:104C5000ACE61C9A073207218A43110008311C91E7
:104C6000116853689946DB170C930D930C9A0D9BB2
:104C7000100048400E904A4653400F930E980F99EB
:104C80000C9A0D9B801A99410E900F9108970B9BDF
:104C90000793069463460493002305934B46DA0F6B
:104CA0000292009001915B462A0041463000FFF7D6
:104CB0002CFA0500C9E71C9A111D1C911268D01727
:104CC0001118414005970B9B04930394634602938C
:104CD000D20F019200915B462A0041463000FFF757
:104CE000B6F90500B1E73A0605D51C9A111D1C91CD
:104CF0000023D25E96E71C9A111D1C91126891E761
:104D00001C9A073207218A43110008311C91089729
:104D10000B9B079306946346049300230593029329
:104D200053681268009201935B462A0041463000A6
:104D3000FFF7EBF9050088E7CC990010109A0010F6
:104D40005C9A0010419000001C9A111D1C9105975F
:104D50000B9B04930394634602930023019313680F
:104D600000935B462A0041463000FFF770F90500CA
:104D70006BE73A0606D51C9A111D1C9112681204A5
:104D8000120C26E71C9A111D1C91126821E7462877
:104D900019D01C9B0733072293431A0008321C9238
:104DA00004970B9A039202941A685B68009201932D
:104DB0005B462A0041463000FFF73EFC0500119B90
:104DC00001331193F2E520231F43E2E7672801D066
:104DD000472802D180231B011F43452801D04728C3
:104DE00001D120231F431C9B0733072293431A0042
:104DF00008321C9204970B9A039202941A685B681B
:104E0000009201935B462A0041463000FFF704FA06
:104E10000500119B01331193C8E502231A003A40A3
:104E200091463B421DD001241C9B1A1D1C926F1CF5
:104E300018785B462A004146B0474B46002B14D1F8
:104E4000119B013311933D00B0E5571C5B46414671
:104E50002020B04723003A005C1C9D42F5D8150085
:104E6000E2E701232A000B9DF6E73A00B1460B9ECC
:104E700006E0571C5B4641462020C8472C003A00FC
:104E8000651CA642F5D817004E46D9E71C9B1A1D93
:104E90001C921B689A46002C25D10122524253468F
:104EA00001E001330A001978002902D0511E002ABE
:104EB000F7D152469B1A8022D20039001140894610
:104EC000174202D0A34200D9230002221100394028
:104ED00010913A4209D02A00250057469A463300DD
:104EE0004E46994621E02200D9E72A004546A046D1
:104EF00006E0541C5B4629002020B0473B002200FE
:104F00005F1C0B999942F4D84446A8463B00250003
:104F100057469A4633004E46994606E01D00013733
:104F2000541C5B464146C84722003878002804D00C
:104F3000002EF4D06B1E002DF0D1150053464E46C6
:104F4000109A002A03D1119B013311932EE50B9F78
:104F50002A0006E0551C5B4641462020B04723004E
:104F60002A005C1C9F42F5D81500ECE721233B4347
:104F70001C9A111D1C911268059308230493039435
:104F8000083302930023019300925B462A004146B6
:104F90003000FFF75CF80500119B0133119305E524
:104FA0006C1C5B462A0041462520B047119B01330B
:104FB00011932500FAE40B4B9A46F5E4B2465D45A1
:104FC0000DD35B465A1E5B4641460020D047280061
:104FD00013B0F0BCBB46B246A946A046F0BD2A00BD
:104FE000F1E7C0465D3E001000B585B00290039128
:104FF00001210448009313004A4202A9FFF7C6FCAE
:1050000005B000BD5F3E001001480421014B184768
:10501000000D00203950001010B5010018231B8826
:1050200014221088984710BD10B5010018231B8862
:1050300016221088984710BDF0B5C64600B5070087
:105040000E0000250123984600E00135B5420AD242
:10505000AC003C192068FFF7DFFF20600028F4D186
:1050600000239846F1E7404680BCB846F0BD0000FA
:10507000124A936F9B0815D29066D166002905D01D
:10508000FFE7FFE7FFE7516F106F704704B580211E
:105090000906C2175140002800D0C84303F004FE9F
:1050A000002104BDF0B5146E556E576F166FFFF7F3
:1050B000E3FF1466556657671667F0BD000000D021
:1050C000114A936F9B0813D210665166002905D0D0
:1050D000FFE7FFE7FFE7516F106F704704B5002847
:1050E00001D00020C04303F0DFFD002104BDC04615
:1050F000F0B5146E556E576F166FFFF7E5FF146627
:10510000556657671667F0BD000000D094464A4ABE
:10511000926F9208624601D228E0C046F0B5464E32
:10512000346E756E776F366F00F020F89446424A01
:1051300014665566576716676246F0BD94463E4A48
:10514000926F9208624601D254E0C046F0B53A4EE2
:10515000346E756E776F366F00F04CF89446364AB1
:1051600014665566576716676246F0BD002B24DB50
:1051700011D000293EDA00B5C943404200D10131C7
:1051800000F038F8C943404200D10131DB435242BC
:1051900000D1013300BD002AEBD1002801D1002944
:1051A00005D00020C90FC90701D1C043410800B58F
:1051B00003F062FD0022002300BD00B500290ADBD8
:1051C000DB43524200D1013300F014F8C94340429E
:1051D00000D1013100BDC943404200D10131DB4360
:1051E000524200D1013300F005F8DB43524200D1B6
:1051F000013300BD002923D1002B18D1002A0CD087
:10520000BC460D4F38667A6600210023FFE7FFE7B2
:10521000FFE77A6F386F67467047002801D007486C
:10522000010000B503F028FD0022002300BD0200AC
:105230000B00002000217047000000D0FFFFFFFF9F
:10524000002B00D0BFE0130C28D1002AE7D080B497
:10525000114F39667A66FFE7FFE730B4040C7B6FC5
:10526000396F1B0423433B667A66FFE7FFE7FFE7DE
:10527000C04684B27B6F3D6F1B0423433B667A6656
:10528000FFE7FFE7C04600232C042D0C7A6F386F30
:1052900000196941B0BC7047000000D0F0B59446D9
:1052A0000025140E01D112020835140F01D112018C
:1052B0000435940F01D192000235D40F01D1520070
:1052C0000135D40B0134254F7C66254C3C660E0C11
:1052D00093B2FFE7FFE7FFE73C6F6643360C7703C7
:1052E000BE467343DF0B5B04C01AB941130C734312
:1052F000DB18C91ACE086643360CB64493B2734322
:105300001F0F1B01C01AB941130C73431F0B1B0560
:10531000C01AB941860D8F023E436643360C092DF3
:1053200024DB520A7243801A7703460A6643360C1E
:1053300016235B1BDE40DF40BF1964466643821BB9
:105340007046043506330100D940A840C01900D387
:105350000131A24206D20023F0BD0000000000D0BF
:10536000FFFFFFFF121B0130F3D3F1E709277F1B7B
:10537000FE406446A2B27243801A00D20139220C68
:105380007243130C1204821A99410B0070460435C3
:1053900013370100F940A840801900D30131002BD8
:1053A00002D1A2420AD2F0BD013000D30131121B5A
:1053B000FAD2013BF8D1A24200D2F0BD013000D3B5
:1053C0000131121BF7E7F0B51C0C00D080E00CB4E3
:1053D00000251C0A04D11B02160E334312020835A5
:1053E0001C0B04D11B01160F3343120104359C0B17
:1053F00004D19B00960F334392000235DC0B02D19F
:1054000092185B4101351C00971864410134464FE6
:105410007C66464C3C660E0CFFE7FFE7FFE7C046A4
:105420003C6F6643360C7703BE4697B27743C01B8A
:1054300000D20139C01B00D201399FB27743C91B8A
:10544000C91B170C77437E04FF0B801BB941CE08A4
:105450006643360C0C2D33DBB644120B1F053A4362
:105460001B0B97B27743C01B00D201399FB2774321
:10547000C91B170C77433E043F0C801BB941860DB6
:105480008F023E43664329277F1BFE400C3D774633
:10549000AF40BF1930BCA2B2ABB272437343801AA3
:1054A0009941220C7243130C1204801A9941020094
:1054B0000B000137001BA941F9D2781E0021F0BD75
:1054C0000C277F1BFE4077467F0BAF40FF19E0E7BC
:1054D00000245D1C07D0144F7D663966FFE7FFE7A7
:1054E000FFE7FFE73C6F95B29EB265436643401B02
:1054F000B141150C1E0C6543664336042F0C3E4328
:105500002D04401BB141994204D202000B0020003F
:105510000021F0BD01D19042F7D3801A99410134A6
:105520009942F2D3F6E70000000000D0FFFFFFFF32
:1055300048404140484018B4134B5B68019308BD94
:1055400018B4114B1B68019308BD94460F4A926F23
:10555000920805D2624618B40B4BDB68019308BD74
:105560000A4AF0B5146E556E576F166F6246FFF714
:10557000F2FF064A1466556657671667F0BD18B401
:10558000014B9B68019308BDE01D0020000000D086
:10559000FFB550404240504059404B40594000E018
:1055A000FFB5154F4C00640D03D0BC4204D10C0371
:1055B00014D80020090D09055C00640D03D0BC421D
:1055C00004D11C030AD800221B0D1B0501264B40E9
:1055D00009D44B4003D58B4200D18242FFBD994292
:1055E000FCD19042FFBD0B43DB1803431343F5D0BE
:1055F000C9434918FFBD0000FF07000000B5FFF7D1
:10560000CFFF804100BDC04600B5FFF7C9FF01D9FB
:10561000002000BD012000BD00B5FFF7B9FF01D992
:10562000002000BD012000BD00B5FFF7B1FF8041A3
:1056300000BD012040054A00121804D85A00121873
:1056400001D80020704701207047002070470000FB
:105650000021002805D17047C1174840401AFAD0F0
:10566000C90713B5064B1B6898470CBC441CA240E5
:105670001005120B0349091B09051943114310BDFD
:10568000E01E00201F04000010B54C00620D8023B6
:10569000D218DB00D21A5B057E2A10DD9E3A13DA9F
:1056A000CC170903490819435242D1406400013420
:1056B0001532202A05DAD0400843604310BD00208F
:1056C00010BD0846604310BDC80FC018013810BD9A
:1056D00018B4024B5B6A019308BD0000E01D002076
:1056E00018B4024B1B6E019308BD0000E01D0020A2
:1056F000024A034B00B500F0DBF900BD182D4454FD
:10570000FB2119408A0002D3920D092A04DA18B449
:10571000044BDB6B019308BD00B5FFF7E9FF04BC48
:105720009646F4E7E01D00208A0002D3920D092A74
:1057300004DA18B4044B1B6C019308BD00B5FFF7E5
:10574000D7FF04BC9646F4E7E01D002010B50148E1
:10575000FEF76CFBB89B001070B513231C78012C6E
:1057600012D0012C12DC214B214A93642148FFF70F
:1057700053FC214B186070BD20491D4A9800815090
:1057800001331F2BF8D9ECE70023FAE71C48FFF799
:105790004BFC05001B48FFF747FC023803789B00D1
:1057A0007F2B09DD12488022290000F09DFA022C8F
:1057B00008D0022CDADCD6E7134B144A1448322105
:1057C000FEF79CFA134B1A88B5231B029A4209D1A3
:1057D000114B1A88114B9A4204D1114B1A88114B64
:1057E0009A42E6D00020FEF721FBC046C15A0010C5
:1057F000E01D00204C330000E01E00204D5700103B
:105800005344000053460000D09B0010709C0010D1
:10581000309C001054380000D83800004946000081
:105820009C38000059460000F0B5DE4657464E460B
:105830004546E0B585B004000D00009201930E9B33
:105840009A46002B44DD019B191101204042FFF7CD
:1058500037FC039000239B4628E00C239946AB11AC
:10586000039A53431D224946521A134101335B10D8
:1058700098464B46203B21D422009A401700230033
:105880004A4693401E004346D917009A019B404662
:1058900000F030F934003D00241A8D415B464A4641
:1058A000934043449B4653469B1A9A465346002BCB
:1058B00011DD53460C2BD0DCD146D0E720235B1AF8
:1058C0002200DA4013002A008A4017001F43D6E75F
:1058D00000230393BEE7009A019BAB4209DC01D190
:1058E000A24206D8009A019BA41A9D4101239C461E
:1058F000E344009A019BAB4209DC01D1A24206D8E5
:10590000009A019BA41A9D4101239C46E344002D6B
:105910000DDB0F9B002B01D05A461A602000290096
:1059200005B0F0BCBB46B246A946A046F0BD009A01
:10593000019BA4185D41012149428C46E344002D9E
:10594000E7DAA4185D41E344E3E70000F0B5D6468A
:105950004F464646C0B588B0059002920393CB0FE0
:105960009A460E0D7605740D0D032D0B80235B03F7
:10597000984606002B431F00039BDB0F9946039BB1
:105980001D0D6D056D0D1B031B0B029242461A4344
:105990000392109B002B02D00023109A1360414BFE
:1059A0009C4271D0002D72D0002C00D177E09D4236
:1059B0006FD06A1EA2426CDC42D05346002B04D04A
:1059C00032003B00002756429F4107AB0193631B07
:1059D0000093029A039B30003900FFF725FF060071
:1059E0000F0003000C009B197C41220002980399D0
:1059F0008C420BDC01D1834208D802998B420CD136
:105A0000039B9A4209D1079BDB0706D5029B039CA7
:105A1000F61AA741079B013307934B46002B02D090
:105A2000079B5B420793109B002B02D0079B109AA9
:105A300013601D4A521B30003900FFF751FE28E069
:105A4000039B9F420CDD5346002B10D10298039913
:105A500000184941361A8F41013307931500DCE7DE
:105A6000029B039CA74214D19E42ECD811E00298FD
:105A7000039900184941801BB94106000F0001231A
:105A80005B4207931500C8E70020084901E00020A9
:105A9000064908B0E0BCBA46B146A846F0BD0020B1
:105AA0000021F6E7FF070000330400000000F07F4C
:105AB00010B582B000240094FFF748FF02B010BD7B
:105AC00007B56046002800D100BE01880A0A0230EE
:105AD000DF2AFAD1C9B2820804D3028840880004C0
