:020000041000EA
:1000000000B5324B212058609868022188439860DF
:10001000D860186158612E4B002199600221596106
:100020000121F02299502B49196001219960352056
:1000300000F044F80222904214D00621196600F024
:1000400034F8196E01211966002018661A6600F04E
:100050002CF8196E196E196E052000F02FF8012189
:100060000842F9D1002199601B49196000215960AB
:100070001A491B48016001219960EB211966A021F2
:10008000196600F012F800219960164914480160C1
:100090000121996001BC002800D000471248134993
:1000A000086003C880F30888084703B5996A0420EC
:1000B0000142FBD001200142F8D103BD02B5186610
:1000C0001866FFF7F2FF186E186E02BD00000240BE
:1000D000000000180000070000035F00212200005C
:1000E000F4000018222000A00001001008ED00E03C
:1000F00000000000000000000000000074B24E7A12
:1001000000200420F7010010CB010010CD010010E9
:10011000C9010010C9010010C9010010C901001077
:10012000C9010010C9010010C9010010CF01001061
:10013000C9010010C9010010D1010010D301001045
:10014000C1010010C1010010C1010010C101001067
:10015000C1010010C1010010C1010010C101001057
:10016000C1010010C1010010C1010010C101001047
:10017000C1010010C1010010C1010010C101001037
:10018000C1010010C1010010C1010010C101001027
:10019000C1010010C1010010C1010010C101001017
:1001A000C1010010C1010010C1010010C101001007
:1001B000C1010010C1010010C1010010C1010010F7
:1001C000EFF30580103800BE00BE00BE00BE00BECA
:1001D00000BE00BEF2EB8871107700102C77001083
:1001E0003802001090A31AE71E481F49086006C88D
:1001F00081F3088810471D480068002801D019487D
:10020000F3E70DA40ECC002902D000F012F8F9E7B4
:100210001749184A002000E001C19142FCD116495B
:100220008847164988471649884700BEFDE701C937
:1002300001C29A42FBD370472C770010C000002007
:1002400068170020D48D0010000004200000042056
:10025000D48D0010001004200010042000000000C5
:10026000704700000000000008ED00E0000000D032
:1002700068170020DC260020094400100128001027
:1002800001440010F8B5C0460448054B10B5834240
:1002900003D0044B002B00D0984710BD68170020F6
:1002A000681700200000000006480749091A8B1053
:1002B000C90FC91810B5491003D0044B002B00D04A
:1002C000984710BD68170020681700200000000044
:1002D00010B5074C2378002B09D1FFF7D5FF054B4C
:1002E000002B02D0044800E000BF0123237010BDA2
:1002F000201A00200000000014730010054B10B5F8
:10030000002B03D00449054800E000BFFFF7CCFFF5
:1003100010BDC04600000000241A00201473001015
:10032000FF23F0B5D6464F4646469846033BFF3B73
:100330009A46C0B5224F7B88002B2FD04346DEB2B1
:100340000223740034195B4200259946E4B210E0A0
:10035000E243D2B2120422432900380005F00AFF1A
:1003600001357B88013E033CADB2F6B2E4B2AB424C
:1003700014D9542EECD9A92E07D84B46621CD2B200
:100380001B1B1202DBB21A43E6E75346A21C1B1BDF
:10039000D2B2DBB212041B021A43DDE7380005F0CB
:1003A000C1FE142003F0C4F84346013B9BB29846BB
:1003B000044B9845BFD1E0BCBA46B146A846F0BD53
:1003C000E8190020FFFF0000F8B5DE4657464E460C
:1003D0004546E0B506F076F93E4E300005F05EFC8D
:1003E0003221300005F040FF300005F09BFE3A4B13
:1003F0009B4655239A465B461B68012B07D0022B70
:1004000052D0FFF78DFF5B461B68012BF7D1002709
:10041000718800293BD0FBB2984656235B420024EA
:100420000025994613E09A01D21A92009B18DBB27C
:100430005A1ED2B25B421204DBB21A4329003000CA
:1004400005F098FE01347188A5B2A9421FD9200297
:1004500003F006FC4044C0B2C343DBB2542BE2D9E4
:10046000A92B09D84B46181A4300C018C0B2020283
:10047000C043C0B20243E1E75346181A4300C01814
:10048000C0B2C243D2B2120200040243D6E7300027
:1004900005F048FE142003F04BF8A0230137BFB24B
:1004A000DB009F42B4D1A6E773880024002BA2D0C2
:1004B00021000A4A300005F05DFE300005F032FEF2
:1004C000322003F035F801347388A4B2A342EFD888
:1004D00091E7C046E81900204C2500207F7F7F006F
:1004E000F0B5002802D0012048400021002A01D0A8
:1004F000002B4AD1D024240664680025604CE571A5
:100500002581A5720F25A5705E4D2D68002D03D1A4
:100510005D4D2D68002D3EDD0023002200210020CE
:100520005A4D2D68002D13DDD026802536067768BC
:100530003D420DD0002A40D000281FD1002900D113
:1005400072E073681D421CD00025FF2365711AE01C
:10055000D0252D066D682D0613D50025002A05D15E
:100560005A1E93417F355B421D4080350023002891
:10057000ECD180330029E8D1657104E073681D4235
:100580004ED180236371A371F0BDD0231B065B683D
:1005900000220023B1E73E4D2D68013D122DBBD94D
:1005A0008D263C4D76002D68013DB542B4D93A4DBB
:1005B0002D68013DF82DAFD9B2E7002B0AD10028F4
:1005C00034D1002932D173681D42DAD080258023CE
:1005D0006571D8E700281CD1002949D1FF23637138
:1005E000D02109064A6849231204CCD52B4B1B683D
:1005F000013B5A425341802212059446DB064A6869
:10060000634413405A1E934135225B429343B633F1
:10061000B9E773681D42B4D0FF2500236571B2E7C6
:10062000002500236571AEE76171D9E71B4BD0252A
:100630001B682D06013B5A425341802252059446C5
:100640005B42DB0EDB066E6863444922334205D011
:1006500035236A685201D2179A43B6320023627179
:10066000002800D08FE7FF33002900D08BE7B7E7E1
:1006700073681D4200D184E7FF25FF2366E7C0466B
:1006800098250020541100204C1D00205C110020F2
:10069000501D0020541D0020581D0020581100201E
:1006A000F0B5DE4657464E464546D022E0B5120626
:1006B000536885B05B0503D55368DB0400D48FE035
:1006C000734C23685A1E122A00D85CE3002B76D0A4
:1006D000142B06D1D0231B065B685B0501D500F007
:1006E00032FD6C4B6C4E98466C4B9B461B685A1EF9
:1006F000122A00D83EE3002B00D0B5E2D0231B061F
:100700005B685B060CD4664A664B12781B68002A4D
:1007100001D1012B01D0012B02DD01235A461360C8
:10072000614B9A461B685A1E262A00D819E3002BF3
:1007300000D0DFE25A4B1B78002B01D000F067FCA1
:100740005A4B99461B685A1E122A00D800E3002B08
:1007500000D099E28021564B49051B688C46013B2D
:100760005A425341D0215B42DA0E0906D20648684C
:100770006244024201D100F00FFC43461A684D4B1F
:1007800001931B68002A4CD0D02580202D06696873
:10079000084200D101E348490F78002F01D100F051
:1007A00072FC07006D682F40284200D0FBE2012058
:1007B0000F7042490870002A00DDF6E2FBE2D02308
:1007C0001B065A68344E334B316898461B680B43FE
:1007D0008021C9000A40134386D10123236083E7A7
:1007E0005368DB0500D56BE753689B0500D567E7C9
:1007F00053681B0500D563E753681B0601D500F05D
:10080000F2FD0122274B1A604022D0211000090678
:100810004B6818401A4201D000F0DDFD284B1860EB
:100820004EE73168002912D0D020802100064568AB
:10083000294201D100F03AFC1F4D2F78002F01D141
:1008400000F0C2FC4068014201D100F09CFD1D494E
:100850000968002900D1FCE0994200D1F9E01A4969
:100860008B4200D1C3E23568002D00D193E1D02145
:1008700040220906486802422AD014480778002F0F
:1008800001D000F01EFD3F3A0270002D2DDC32E059
:100890004C1D0020541D0020581D0020501D00201C
:1008A000D12600205C110020481D0020441D00209E
:1008B0005811002050110020CF260020CC26002007
:1008C000541100202C210020E4FEFFFFD026002040
:1008D000D02212065268520604D4C04A1178002968
:1008E00000D07EE2002D00DC52E11A00F932AA426B
:1008F00001DB00F036FCFA33AB4200D18FE1019B03
:100900001F68FA239C46BC44634603936B1E029502
:1009100001932368013B122B0BD8B14BB14C1B68E0
:10092000002B03D104222388134323808023E37008
:1009300023715B461B68013B122B07D80121A94B91
:100940001A880A431A808022DA701A714B461B6893
:100950005A1E122A00D903E18022A24BDA707F329C
:100960001A7153461B685A1E132A00D9E7E08022E9
:100970009C4BDA707F321A7143461B689A46013BE2
:10098000132B00D9A3E04022964C01202388134367
:10099000D0221206238053689B0E9843924B1B680B
:1009A0009B46013B59424B415B42DB0EDB069946BD
:1009B00080235B059C46E14453684A4613405A42F3
:1009C0005341C01A03F0CEF9884B1B78002B00D19D
:1009D0003BE2874B1A685B6803F0B7F90022854B4E
:1009E00003F094F903F0FAF9D022E070120653688C
:1009F0001B04DB0FDB0123715346142B00D1B9E339
:100A0000019B422B42D8D0214022764C09062388F4
:100A100013434A682380FF23520110D5724B1B6891
:100A2000013B5A4253418022520594465B42DB0E01
:100A30004A68DB06634413405A1E9341DB01E370AE
:100A40008023237105B0F0BCBB46B246A946A04640
:100A5000F0BD8025D0202F000006406807400542E9
:100A600000D0FCE664480078002800D1F7E663482F
:100A70000068012800D0F2E642461060604A6148F2
:100A800017700122834200D1B8E199E1029B443BF7
:100A9000482B00D9DCE1D02109064A68FF23520126
:100AA00010D5514B1B68013B5A42534180225205DD
:100AB00094465B42DB0E4A68DB06634413405A1ED1
:100AC0009341DB01474AD37080231371BAE7534641
:100AD000153BA22B00D9E8E1D02201201206536871
:100AE00052689B0E9843404B1B68013B59424B4157
:100AF000802149058C465B42DB0EDB0663441340D4
:100B00005A425341C01A03F02DF9384B1B78002B81
:100B100000D1DCE2364B1A685B6803F016F900225C
:100B2000344B03F0F3F803F059F92E4CE070D02366
:100B30001B065B681B04DB0FDB01237160E71A00F7
:100B4000153A122A00D9FAE12F4BB4221B68DB4375
:100B5000DB171340234A2633D370DA2313710BE7D4
:100B6000142B00D0FDE6284B1A68234B1B78002B72
:100B700000D122E3254B1B78002B00D0B2E3DA230F
:100B8000002A00DDB43BDA21164AD3701171E8E681
:100B9000002D00D0AFE61E4A1268002A03D00025BF
:100BA0009A4200D0A7E6D02109064A68D20431D57E
:100BB0004A68D2052ED54A684021080010401142EB
:100BC00028D10D4A1278002A24D00C4A12680392C8
:100BD000012A1FD1014B326018709DE2D0260020FF
:100BE000541100209825002058110020D226002002
:100BF0004011002000006040D12600205C11002040
:100C0000CF260020E5FEFFFFC4260020CE260020D0
:100C10002C2100200025FA33AB4200D06FE6D02310
:100C20001B065B685B0600D56AE2019B1F68FA231E
:100C30009C46BC4463460393CB4B1B68002B02D0FD
:100C4000BB4200D062E6C94B1A78002A00D15DE6AB
:100C500000210122197000233260C54A019301333B
:100C600001251170029354E6142B00D058E5D023CF
:100C70001B065B685B0600D452E500235A46112030
:100C8000136002F055FC4BE5142B00D075E5802174
:100C9000B84B49051B688C46013B5A425341D02151
:100CA0005B42DA0E0906D2064868624402421AD153
:100CB0004A68520117D480221205944613404A68AC
:100CC000634413420FD14B681B040CD54B68DB0403
:100CD00009D54B68DB0506D54B689B0503D54B68EA
:100CE0001B0500D549E500234A460F20136002F09A
:100CF0001FFC42E5282B00D022E59E4B1B68012BF0
:100D000000D117E2D0231B065B681B0113D480239C
:100D10005B05D022120651680B4202D05268520184
:100D200009D4D022120651680B4200D012E2536857
:100D30005B0100D50EE2002352460F20136002F043
:100D4000F7FB8D4B99461B685A1E122A00D9FEE408
:100D5000012002F0EDFB4B464A461B68013313604D
:100D60000BE5012002F0E4FB534652461B680133B9
:100D70001360E5E4012002F0DBFB5B465A461B688A
:100D800001331360CCE4012002F0D2FB23687B4ED8
:100D9000013323607A4B9846A6E4696805000D404C
:100DA000084200D168E1002A05DD19001C31FF313D
:100DB0008A4200DC72E119001D31FF318A4216D0EF
:100DC000D0204021000642683568114200D17FE5FD
:100DD000674A1778002F00D185E14068014200D0B2
:100DE00080E500211170614A013111707AE5D0214E
:100DF00009064968090610D45B490968002900D032
:100E0000A9E06049087800281AD001224046026013
:100E100000205D4A08701070D2E700235A4A112062
:100E20001370584A13704246136002F081FB434628
:100E30001A68019B1B6819001D31FF319142DBD0FC
:100E40003568002A00D10FE5BAE700224F4BC3E511
:100E5000029B8D3B272B00D849E1029BB53B452BDC
:100E600000D9E7E1D02109064A68B923520100D52B
:100E70003EE2474CD021E37009064A680023120481
:100E800011D53C4B1B68013B5A425341802212054D
:100E90009446DB064A68634413405A1E93417E22FF
:100EA0005B429343FF332371CCE55346B83B242B7D
:100EB00000D80FE15346DD3B3F2B00D895E1534668
:100EC0001E3BFF3B1D2B00D982E1D0221206536846
:100ED0005B0500D5B9E206212D4C23880B435168F0
:100EE0002380FF23490110D5224B52681B68013B28
:100EF00059424B41802149058C465B42DB0EDB06A3
:100F0000634413405A1E9341DB01E370D0231B0658
:100F10005A68520100D40AE6164A1268013A514250
:100F20004A41802149058C465242D20E5968D20668
:100F3000624400230A4200D1F9E5237160E5282BC1
:100F400000D019E5134B124A1B68DB43DB17D37043
:100F50008023137110E58B4200D152E73568002AD7
:100F600000D181E42CE7C0462C210020CD260020B2
:100F7000D026002058110020441D0020581D0020BC
:100F8000541D0020CC260020CF26002000C05F404A
:100F900098250020C42600204A68520101D5FFF799
:100FA000ECFB80221205944613404A6863441342C6
:100FB00001D0FFF7E2FB4B681B0401D4FFF7DDFB18
:100FC0004B68DB0401D4FFF7D8FB4B68DB0501D489
:100FD000FFF7D3FB4B689B0501D4FFF7CEFB4B68B3
:100FE0001B0501D4FFF7C9FB4B689B0001D4FFF739
:100FF000C4FBE84B1B68DA179B185340012B01DC3C
:10100000FFF7BBFB01234A461360FFF7B6FBE24B39
:101010001B78002B01D1FFF793FBE04B1B68DA171D
:101020009B185340DB4A1268934201DAFFF788FBB2
:10103000DB4B1B68012B00D12EE2D0231B065B6823
:101040001B0101D5FFF77CFB80235B05D022120634
:1010500051680B4200D0B1E15268520100D4ADE1B9
:10106000D0231B065B689B0001D4FFF769FB0123BB
:1010700052461360FFF764FBCA490878002800D184
:1010800091E60D70C84901200870002A00DC92E644
:1010900019001C31FF318A4200DD8CE6012002F08C
:1010A00047FA43461A6801321A60C2E640680142B4
:1010B00001D0FFF7CCFBBB490878002801D1FFF72E
:1010C000C6FB01200A70B8490870FFF7C0FB002278
:1010D000B64B22E50221B64B1A880A431A808022B9
:1010E000DA701A718CE401211170FFF7FBFB4221C9
:1010F000AF4B1A880A431A808022DA701A71A1E471
:101100000023AC4A11201370AB4A3360137002F015
:101110000FFA33681A000393019B15001F683B0008
:10112000FA33934200D187E50292013A0192039388
:10113000FFF7EFFBD0231B065B68DB0000D5FAE569
:1011400080231B05E5E500231120236002F0F0F960
:10115000FFF7C7FA904B1B78002B01D0FFF7F0FA8E
:10116000E9E5012002F0E4F9336801331A00039342
:101170003360D1E753685B0104D553684A461A428D
:1011800000D03DE45B46013B5A42534180221205A8
:101190009446D0221206DB06516863440B4200D10C
:1011A0002EE453681B0400D42AE453689B0000D447
:1011B00026E464234246136022E42623002A00DD4D
:1011C000E1E4DA23DA21DFE47F392970FFF73FFB1E
:1011D0009D235B009A4501DCFFF712FC3B001C33AA
:1011E000FF339A4501DDFFF70BFCD0221206516850
:1011F000CD23490113D56A4B52681B68013B594204
:101200004B41802149058C465B42DB0EDB06634483
:1012100013405A1E93414E225B4213403233644ABC
:10122000D370D0231B065B681B04DB0FDB0113713B
:10123000FFF7E6FB029BFB3B1D2B6ED8D02212066C
:1012400053685B0500D5DAE00621594C23880B432F
:1012500051682380CD23490113D5514B52681B6837
:10126000013B59424B41802149058C465B42DB0ED4
:10127000DB06634413405A1E93414E225B421340E7
:101280003233D021E37009064B685B0110D5444B23
:1012900049681A68013A53425A4180235B059C46CB
:1012A0005242D20ED206624400230A4200D0FAE52E
:1012B000D0231B065B681B04DB0FDB012371FFF7E8
:1012C000C1FB170049680F40BC460A4255D162462F
:1012D00001210270384A1170002D01DDFFF705FB76
:1012E000FFF709FB531E1343DB178021DBB24BE4EE
:1012F0002B4B1B68013B5A425341802252059446B6
:101300005B42DB0E4A68DB06634413405A1E93417E
:101310003A225B4213404633ABE58C235B009D428F
:1013200001DCFFF78FFBF937AF4201DAFFF78AFBE9
:10133000D02109064A684B3B520113D5184B1B6854
:10134000013B5A4253418022520594465B42DB0ED8
:101350004A68DB06634413405A1E93414E225B42A7
:1013600013403233124AD370D0231B065B681B0430
:10137000DB0FDB011371FFF765FB002D01DDFFF7CC
:10138000B4FAFFF7B8FA012007492A700870FFF78E
:101390005EFAC046C8260020CE260020C4260020C3
:1013A00058110020CF260020CC26002000C05F402E
:1013B00098250020D0260020CD260020D02212061D
:1013C00051680B4201D1FFF7BBF953685B0101D5AE
:1013D000FFF7B6F944E64B685B0767D401223E4B42
:1013E0001A60FFF76DF953682022110019401A4264
:1013F00001D0FFF709FA394B1960FFF705FA516878
:10140000802308009B001840194260D1344C813B76
:10141000FF3B6371A07151683933490100D429E55C
:10142000304B52681B68013B59424B4180214905B2
:101430008C465B42DB0EDB06634413405A1E93412D
:101440003A225B421340463314E55168802308007A
:101450009B001840194233D1214C813BFF3B637103
:10146000A07151684D33490113D51E4B52681B685A
:10147000013B59424B41802149058C465B42DB0EC2
:10148000DB06634413405A1E93414E225B421340D5
:101490003233E370FFF74BFBD0231B065B68DB00A6
:1014A00001D5FFF74DF980231B05CFE502234A68DC
:1014B000134201D0FFF704F9074A1360FFF700F960
:1014C0003B0042461D33FF331360FFF799FA039B3D
:1014D0003360FFF7B7FAC046541100205C110020BA
:1014E0009825002058110020F0B54E46DE4657469C
:1014F0004546E0B595B00793D023039280221B06A2
:101500005E6812021640D94A5B680E9212680C900F
:101510000D91012A00D15EE20122DB0E80209A4368
:1015200091464005D02331001B065D685A684B1E6A
:101530009941CF4C08912368CE495F1E8A460968BD
:10154000122F05D9CC4F3F68013F122F00D9C1E1BE
:1015500000270022914693469446C84900920020F5
:10156000C74A08701070C74DC74A2968C74E9046D1
:101570000691126831680491002A00D131E2012AF3
:1015800000D1E5E0009AB4249446BC4463461E00B2
:101590000293B423089864003840524240421340FA
:1015A0002040C0185B465A425A231340C018872275
:1015B0004B4652005E445B4213404E44C01831001B
:1015C00002F04EFB210002F04BFB0C005A212000E0
:1015D00002F046FB009A0500B81A02F0C3FB4B4626
:1015E0005A4608900991981A02F0BCFB069B049A8F
:1015F0000A900B9113430693039B002B03D1079B87
:10160000002B00D189E2A24B1B78002B00D1DDE139
:10161000A04B1A685B6800920193200002F0A2FBC5
:101620009D4A9E4B02F091FB00229D4B02F073FB02
:1016300006000F0002F0ECFB089A099B04000D0065
:101640000098019902F081FB049405952200059C05
:101650006400630802F079FB0022924B02F056FB13
:1016600002F098FB39000890300002F0E3FB0A9A80
:101670000B9B0E00050000980199740002F065FBB9
:101680002A00630802F061FB0022864B02F03EFB59
:1016900002F080FB844B1B78002B00D175E1834B5B
:1016A0001B78002B00D164E1814B1B68DA179B1873
:1016B0005340804A1268934203DA4B46012B00D113
:1016C000BAE3039B002B00D06BE2079B002B00D1F9
:1016D00072E36B4A1378002B00D1CAE367490B7899
:1016E000002B04D0744B1B78002B00D041E1D02399
:1016F00080221B065C68D204144200D02CE15B6897
:10170000134200D035E10E9B1B68012B01D100F084
:1017100086FCD0231B065B68DB0000D429E1802413
:101720002405D0231B065A68144200D121E1424609
:101730001268012A00D01CE15B689B0000D418E10C
:1017400000230B70029B9C468023E34408931FE117
:101750004B4A1278002A00D103E2042800D147E165
:101760005A464A440A926246022A00D150E200993F
:1017700052488C46BC447A1A614602910A990F90ED
:101780000260022900D176E106990B4304990B43CC
:101790003949109109680B434949119109680B4374
:1017A0004849129109680B430CD1474B1B68002B29
:1017B00000D190E3454909688B4200D18BE30023B7
:1017C000049306933A49D0170B68D3181218424075
:1017D0005A434B460A605A46991A3D4B1393196077
:1017E000029B022B00D0FAE2069B049A01271343C6
:1017F0000693012300930A9B012B00D14FE1009A2D
:10180000B4249446BC4463461E000293B423089853
:10181000640038405242404213402040C0185B46AA
:101820005A425A231340C01887224B4652005E4446
:101830005B4213404E44C018310002F011FA2100FF
:1018400002F00EFA0C005A21200002F009FA009A68
:101850000500B81A02F086FA4B465A4608900991DC
:10186000981A02F07FFA0A900B91C5E658110020F1
:101870004C1D00208C250020501D0020D926002062
:10188000D8260020441D002054110020481D0020AF
:10189000D226002040110020182D4454FB2109407D
:1018A0000080664000006040D1260020CE26002047
:1018B000C4260020C8260020DA260020902500201B
:1018C000541D0020581D00202C2100205011002004
:1018D0009425002028404542454177427741900EAB
:1018E0000122BB461700AC4687435846BC446044BF
:1018F00000954844002901D000F020FC002801D1C7
:1019000000F018FCB3490D780295039D002D0ED10F
:10191000079D002D0BD10C9D002D08D10D9D002D94
:1019200005D1029D002D00D01DE60A701BE6AA4AD3
:101930001578002D00D041E101261670A74A1560E8
:10194000A74A1560A74A1560A74A1560029A002A9F
:1019500000D008E60E7006E60E9C2468012C00D12B
:1019600056E35C68E40000D4D9E65B68134200D11A
:10197000CFE6D022120653681B0761D4039B002BCD
:1019800062D0954A1378002B67D1029B9C46E344B2
:10199000069B002B0FD1954B1B68002B00D0F8E065
:1019A000934B1B68002B00D10FE1924A1268FA3268
:1019B000934200D109E14B4652465B44136015B097
:1019C000F0BCBB46B246A946A046F0BD00228A4BF9
:1019D0000092019321E680201B0F9A439146000557
:1019E000A0E586490A6086490A60042800D0B7E667
:1019F000069B049A134306937B4B1A68D317D2189D
:101A00005A40784B1B68D9175B184B409A4200DC50
:101A100062E1734B1B680293012B00D197E2002314
:101A200000240A930B940023764C00250893099414
:101A30000123029300230024012699469B46DBE5FF
:101A40005368DB079AD5A0E7079B002B99D10C9B25
:101A5000002B96D10D9B002B93D14B46012B94D19B
:101A6000029A002A94D043461B68012B00D1F2E26F
:101A70009446E3448CE7069A04995A4B0A4306922B
:101A80005E4A0F9312681B689A4200DBC9E1029B11
:101A9000012B00D110E20023994601339B46039BA2
:101AA000002B00D031E1079B002B00D02DE1009AE4
:101AB000B4249446BC4463461E000293B4230898A1
:101AC000640038405242404213402040C0185B46F8
:101AD0005A425A231340C01887224B4652005E4494
:101AE0005B4213404E44C018310002F0B9F82100A7
:101AF00002F0B6F80C005A21200002F0B1F8009A6A
:101B00000500B81A02F02EF94B465A460890099182
:101B1000981A02F027F90A900B910C9B002B00D029
:101B200071E50D9B002B00D06DE5022E00D06AE51B
:101B300043461B68002B00D065E501331A002A409C
:101B40002B4201D1012252425B46012B00D1E8E237
:101B50004B46012B00D056E52B4B1B685343E41832
:101B600051E5039A002A00D00EE1079A002A00D01E
:101B70007BE10C9A002A00D138E2009B00209C46B1
:101B8000BC4463460293069B0B4306938023089351
:101B900080E5184A12681D32FF32934200D00AE7EE
:101BA000FEE60D4A1378002B00D097E5D0221206EE
:101BB00053681B0700D4E8E65368E6E6029A002A59
:101BC00000D0D0E401320A70CDE4104B089A1871AD
:101BD000DA70F0E6D9260020D826002094250020CF
:101BE00090250020C8260020C4260020541D002077
:101BF000581D00205011002000C05F403811002007
:101C00003C1100200000F03F4811002098250020E2
:101C1000D74A11000F9200220A60D64A1168D64AAC
:101C20001268914200DDDEE052420127914200DB62
:101C300040E10022029700920A9A022A00D154E160
:101C40004A465946511ACD4A13921160CC4A109215
:101C5000CC4A1192CC4A1292069C049A11981443D1
:101C6000109A0068126806940243129800680243B2
:101C70001343234312D1C54B1B68002B05D0002012
:101C8000C34A06901268934208D1012001F050FC2B
:101C9000139B2A68196833681A4306920F98CA176B
:101CA0000368CB18891851405943029B0160012BEE
:101CB00000D0A0E50C9B002B00D199E043461B68A7
:101CC000002B00D09BE5009B012B00D1DCE1012F14
:101CD00000D1F6E0029725E0A84B1B689B46012B3C
:101CE00000D173E10023AB4C03250A930B9400232E
:101CF0000024089309940023029301338724994612
:101D0000002301269B46640076E443461B68002BB3
:101D100000D074E5009B012B00D1A4E10297012FB4
:101D200000D1CEE15B46012B00D182E14B46012B75
:101D300000D1B3E1CB468020FF23002600270022FC
:101D40000893944B94490978002900D1A2E493495F
:101D50000C684D682000290001F0F7FF0022904B2D
:101D600001F0D4FF02F016F832003B000890290081
:101D7000200001F0EAFF02000B000020884901F07A
:101D8000C0FF02F007F885E400230A000893009BD7
:101D900000209C46BC4463460293069B1343069373
:101DA0000C9B002B00D075E40D9B584258417E23BC
:101DB00040429843FF306DE40C9B002B64D10D9B97
:101DC000002B00D18AE4774A1378002B00D085E4F9
:101DD000D0231B065B681B0700D43BE65FE0644A28
:101DE00023680F9238E7012200270292009223E72E
:101DF0000D9B002B5AD043461B68002B00D0FEE4FD
:101E0000009B012B00D181E1012F00D062E701236B
:101E1000B1200293F3330893634E644F644A654BD9
:101E200090E7002B6ADA029B012B00D144E10123E9
:101E3000994600239B4632E6029A002A00D140E4EC
:101E4000D0231B065B689B0000D43AE453461B6812
:101E5000012B00DC9CE5089B802B00DC43E19446D1
:101E6000FF238020E344089392E5FF230A000893B0
:101E70008DE7D02109064B681B0700D482E54B682B
:101E8000DB0700D47EE580E5464A1378002B00D0BE
:101E900024E4D0231B065B681B0700D472E5D02323
:101EA0001B065B68DB0700D4D1E56EE55B464B445F
:101EB0000A93A0E40027BCE601239B460023994631
:101EC000F8E601234E200293F33308933A4E3B4F3A
:101ED0003B4A384B36E7012001F02AFB0F9B1A687A
:101EE0002B680693336804936CE4069B049A1343AF
:101EF0000693344B1B68002B00DAC8E500230F9AC9
:101F000002991360012900D1A1E00898009E384091
:101F10006933FF33404272421840B43B1340C0184B
:101F2000894601F09DFE5A21040001F099FE05004A
:101F3000B81B01F017FF002300220A920B93002325
:101F40004E469B46994608900991FFF755FB0023A2
:101F500000240A930B9400231B4C01260893099438
:101F600000230225B42499469B46FFF745FBC04653
:101F7000C8260020C42600203C1100209425002003
:101F8000501D0020541D0020581D00202C21002031
:101F9000501100200000F03FD22600204011002008
:101FA00000006040D8260020BCFF9822BD01D9BFA8
:101FB0006B662C98C674ED3FAAFF9822BD01D93FED
:101FC0006F662C98381100200000F0BF0023634C8E
:101FD00001250A930B9400230024089309940023FD
:101FE00001265A2499460293FFF706FB0D9A002A10
:101FF00001D1FFF7B2FB009BFF209C46BC44634627
:102000000293069B0B43069380230893FFF742FB42
:102010005C68240109D55B68134200D0A9E4D02391
:102020001B065B681B0100D4A3E480246405FFF752
:1020300078FB039B002B4ED1079B002B63D0B12371
:102040000B200893464E474F474A484B7AE60023F9
:1020500099469B462EE6D0231B065B689B0049D41D
:102060009446E34494E47B1C02930C9B002B0DD11B
:102070000D9B002B00D155E60B23B12008933C4E5D
:102080003C4F3D4A3D4B5DE67B1C02930B234E20AB
:1020900008933B4E354F3B4A384B53E6039B002B8E
:1020A00037D1079B002B2ED0B123F4200893364E56
:1020B000324F364A2D4B45E60123994600239B4675
:1020C000F8E50C9B002B32D10D9B002B00D129E6AB
:1020D000B120F4239FE64E230B200893264E214F78
:1020E0002B4A244B2EE6029B80209C460023E3448F
:1020F00008934DE4089B802BF5DD9446FF23802058
:10210000E344089344E48020FF3316E67B1C0293EB
:10211000B2E74E23F4200893114E184F1D4A154B79
:1021200010E61D4B1B685343E418FFF76CFA4E2072
:10213000F423CAE600273A00FFF70CFA884201D1DF
:10214000FFF711FA15490D78002D00D10A7000280B
:1021500001D0FFF708FAFFF702FAC0460000F0BF0F
:102160006E662C98C674ED3FAEFF9822BD01D93F34
:10217000A7FF9822BD01D9BF6F662C98C674EDBF2A
:10218000B2FF98226D662C9870662C98A6FF982254
:10219000A8FF9822ACFF98224C110020D9260020DD
:1021A000F0B5D023DE4657464E464546AD491B06A0
:1021B000E0B55A680C6883B094435A6801219206CE
:1021C00003D55A68120600D5C1E0A74B002219704A
:1021D0009B4600230126A54D92462B80EA72EB60B8
:1021E0002B82AA74FEF75CFA630A33401800230BB3
:1021F00033409846230A33409946E70A374042461F
:1022000039000190FEF76CF94B46424639000198BF
:10221000FFF76AF9630400D4A5E0954B1E70954B57
:102220001B68002B00D08CE0802322009B0501203E
:102230001A401C4200D1A1E001228F4B1A708D4B35
:102240001B68002B04D080232A885B0013432B805B
:1022500001218A4B8A4A1B6812681343894A126813
:10226000134349D1884B1A68002A00D0AAE04027BE
:10227000804B27401B68002B00D0B2E0002F03D01A
:1022800001262B8833432B80230603D502262B8877
:1022900033432B80A30603D504262B8833432B809E
:1022A000630703D508262B8833432B80E30607D525
:1022B000002A01D0272A03DD10222B8813432B800C
:1022C000230703D520222B8813432B80A30703D594
:1022D00040222B8813432B80E30703D580222B88D1
:1022E00013432B80630507D5684B1B68002B03DD68
:1022F00004222B8813432B80A4040AD52A880029A2
:1023000040D05C4B1B68002B57D080239B001343AD
:102310002B80002003F06CF9002807D05C4C1B22B6
:102320002900200004F072FE002836D15A46594B8D
:1023300012781A7003B0F0BCBB46B246A946A0465C
:10234000F0BD80232A88DB0013432B806CE75A689A
:10235000D20600D439E7474A1268002A35D15B68B3
:10236000DB08994331E75246414B00201A70802325
:1023700022009B051A401C4200D05DE73E4B002125
:102380001A7066E70028C0D03A4B1B68002BBCD1FE
:1023900080235B0113432B80BBE72A0000211B2312
:1023A000002003F041F9230007CD07C307CD07C381
:1023B0002A881A80AA789A70B8E70133FF3313434A
:1023C0002B80A6E7142A97DD51E75A68520700D4FC
:1023D000FBE65A68520600D4F7E65B685B0899434F
:1023E000F3E600222C4E2D4B32607360002F03D099
:1023F00001222B8813432B80230603D502222B882E
:1024000013432B80A30603D504222B8813432B8070
:10241000630703D508222B8813432B80E30603D5DB
:1024200080222B8813432B80230703D540222B883F
:1024300013432B80A30703D520222B8813432B8023
:10244000E30703D510222B8813432B80D0231B06D0
:102450005B685B0500D54FE780232A881B01134387
:102460002B8049E734110020CE260020982500203B
:10247000D126002054110020D2260020541D002017
:10248000581D00202C210020481D00204C1D00203C
:1024900070250020DA2600204011002000C05F4097
:1024A000F0B5C64600B50F20C0B000F055FAD024F4
:1024B000802324061B0200220121A3620F2000F0CA
:1024C00037FA1B2000F048FA80231B050022012167
:1024D000A3621B2000F02CFA1C2000F03DFA8023A0
:1024E0005B0500220121A3621C2000F021FA1A20C2
:1024F00000F032FA8023DB0400220121A3621A20BB
:1025000000F016FA052000F027FA2023002201210E
:10251000A362052000F00CFA072000F01DFA8023CA
:1025200000220121A362072000F002FA022000F03D
:1025300013FA042300220121A362022000F0F8F91B
:10254000062000F009FA402300220121A3620620A0
:1025500000F0EEF9042000F0FFF910230022012121
:10256000A362042000F0E4F9012000F0F5F9022351
:1025700000220121A362012000F0DAF9032000F01B
:10258000EBF9082300220121A362032000F0D0F917
:10259000002000F0E1F9012300220121A3620020C4
:1025A00000F0C6F91D2000F0D7F980239B0500221A
:1025B0000121A3621D2000F0BBF90D2000F0CCF931
:1025C00080239B0100220121A3620D2000F0B0F9BD
:1025D0000E2000F0C1F98023DB0100220121A3625B
:1025E0000E2000F0A5F90A2000F0B6F9802380251E
:1025F000DB00A362002201210A2000F099F9AD005E
:10260000092000F0A9F9002201210920A56200F0AB
:102610008FF90B2000F0A0F980231B01002201217B
:10262000A3620B20984600F083F90C2000F094F987
:1026300080235B0100220121A3620C2000F078F9C5
:10264000082000F089F980235B0000220121082086
:10265000A36200F06DF94D4A4D4B12784D491A7046
:1026600008784D4958700F784C499F700E78DE708D
:1026700063682B4244D0414663680B423ED100213F
:10268000474A00231160D02109064A68120640D447
:1026900001210120434A1160D02109064A685206EF
:1026A00043D54A68520751D4D02401213E4A24061A
:1026B000116061680122C90440D400243B490C60C8
:1026C0000021000212040343090613430B43009345
:1026D000EFF3108472B68021F8204901400304F022
:1026E000B3FD8022F82069465200400304F09CFDAF
:1026F00084F3108840B080BCB846F0BD012ABED13A
:102700000121274A01231160D02109064A681206D7
:10271000BED54A68920625D40021224A00201160C5
:10272000D02109064A685206BBD400211E4A116016
:102730000022D02424066168C904BED56168C90599
:1027400018D4012419490C600121BAE74A6892079C
:1027500017D5002FE9D0012FA6D0022F11D0124A91
:102760001278E6E70028D7D0012800D190E70D4A7B
:10277000107891E7002EA0D0012EE2D00B49097805
:102780009FE70221084A11600222D2E700001F10D1
:102790003C21002001001F1002001F1003001F1029
:1027A000442500205C110020541100205811002005
:1027B00070B50F4C00211B22200001F0D9FD0D4BFC
:1027C000002263800C4BE274A38080236275E27563
:1027D0000A4AA3717E3B2375A3752376130023CC8D
:1027E00023C307CC07C322881A80A2789A7070BDD1
:1027F000982500200F80FFFF8080FFFF70250020BC
:1028000010B503F023FAFFF74BFEFFF7D1FF0021CD
:10281000002003F0B5F8054803F028FF012000214F
:10282000404202F067F9FFF7BBFCF7E7C90300106D
:10283000004870479C750010034B1B68012B01D0AA
:10284000024870470248FCE7442500201C75001030
:10285000C4740010002070477047C046034B1B68CB
:10286000012B01D0024870470248FCE744250020B4
:10287000A07400107C74001070B5002822D00228CB
:1028800029D8164B8000C558280004F011FCC0B2AE
:10289000041C1F2814D8C026E4B2631CDBB25B0002
:1028A000B6001E43002808D000230D4AE95C01331E
:1028B0001180D9B202328C42F8D80A48068070BD25
:1028C0001F24E8E7C126054B02220548196801F0DC
:1028D00055FDB600F1E70020F1E7C04628110020C1
:1028E0005E1D00205C1D002010B55223192280219E
:1028F000014803F001FA10BDE8190020094A8300DD
:102900009A1810B514684022544080322240064C78
:10291000C000A44663441A60044B9C466044416076
:1029200010BDC04604C0014004D001400040014039
:10293000074B8000C3181B68C90092000A435A4025
:102940000C231340034A9446604403607047C0461A
:1029500004C0014004D001400123D022834012066C
:1029600093629361094A83009A181168402251408A
:1029700080320A400649C0008C4663441A60054B09
:102980009C460523604443607047C04604C0014034
:1029900004D00140004001408023DB051868000F8F
:1029A0007047C0460FB400B5084883B001F060FE20
:1029B000049B002B07D005A91800019101F0ECFC45
:1029C000034801F055FE012001F0FEFC30730010B9
:1029D00040730010EFF3108072B6034A1368002BA7
:1029E000FCD0BFF35F8F70472C0100D0BFF35F8F27
:1029F0000022024B1A6080F3108870472C0100D02F
:102A000070B5EFF3108C72B60D4D2B68002BFCD017
:102A1000BFF35F8F0724CB08C618C05C01230C40AE
:102A2000A3401C000440034207D118433070BFF399
:102A30005F8F2C608CF3108870BD1000FFF7B2FF21
:102A40002C0100D0F8B54746CE46884680B5EFF356
:102A5000108C72B6214D2C68002CFCD0BFF35F8F18
:102A60009A422CD8D4080727055D0619012417407F
:102A7000BC402C421FD007210127894609E0D40819
:102A8000055D06194C4639001440A1400C0029424E
:102A900011D001329342F2D201204042BFF35F8F46
:102AA00000220E4B1A608CF3108800280FDBC0BC8C
:102AB000B946B046F8BD254310003570EEE7BFF3C8
:102AC0005F8F00232B608CF3108801204042434627
:102AD000002BECD00898FFF765FFC0462C0100D012
:102AE000044A1078431CDBB2172B00D91023137053
:102AF0007047C0466011002010B5064B064C82B0EE
:102B00000100009318221F232000FFF79BFF02B053
:102B100010BDC04644730010F82000200021044B73
:102B2000044ABFF35F8F02C39342FAD17047C04695
:102B3000000100D0800100D0054B064A1360064A10
:102B4000136053609360D360136153619361704766
:102B50008080808000E400E004E400E01F2318404F
:102B60001E3B8340002905D0C021044A4900535030
:102B700013607047802201498B50FAE700E100E0C2
:102B800001228240034B1B6813405A1E9341D8B266
:102B90007047C04600E100E070B50D00EFF310860D
:102BA00072B60F4A1368002BFCD0BFF35F8F0D4B3A
:102BB00010309B6884001B590B4A934203D09D42FE
:102BC00001D000F00FFF074B9B681D51BFF35F8FD3
:102BD000BFF35F8F0022024B1A6086F3108870BD2E
:102BE000240100D000ED00E0C1010010F0B557460F
:102BF0004E46DE464546E0B585B00600009117001A
:102C0000EFF3108B72B66A4A1368002BFCD0BFF347
:102C10005F8F0025674B5D579A46002D00DAA9E0CB
:102C20006B00654C01935B199B009846A146C1441B
:102C30004B4652469B7910361370604BB6009B682A
:102C400099590B1B2F2B33D95D4B994200D0ACE027
:102C5000019B42469C465B4B6544AD0063535A4B17
:102C60000232A218043B9B1A1B05584A5B0D6519DA
:102C700013436B80564B0121AB80FF23AB71009B4C
:102C8000EF71AB604B460B4319004C4B9B6899515D
:102C9000BFF35F8FBFF35F8F0022454B1A608BF34A
:102CA000108805B0F0BCBB46B246A946A046F0BDB0
:102CB00001200A008243D3798C46BB4231D8454675
:102CC000130044491B1B5B415943090D3D4B6353A2
:102CD0003D4B02356519043B5B1B1B053B4D5B0DF2
:102CE0002B43AA464D466B800425AC465546E0442E
:102CF000131F44441B1B1B055B0D1D434B46997161
:102D000000999D8099604946DF71334B0143136000
:102D1000BBE75800C01880002018C179B9422FD9EC
:102D200002000623D356002BF3DA02932B4B6146A5
:102D30000393131D9A4604235B429C46E14450468C
:102D40004B461B1A1B055B0D9C46204B9571984604
:102D50006346404603439380019B5A199200039BAC
:102D6000A418A380029B1C4AA371009B2260E771F8
:102D7000A3608AE700F036FE002553465D574FE713
:102D8000908802934005131D9A46031561469C46A0
:102D90004046D444634604302018181AE023000546
:102DA000400D1B0218430390C5E700F01BFE4FE7E0
:102DB000240100D0D72600206411002000ED00E09F
:102DC000C101001000A1FFFF9411002000E0FFFFEF
:102DD00001BDFFFFAAAA00000148804701BD000015
:102DE00070B501240443EFF30581EFF3108C72B644
:102DF000214A1368002BFCD0BFF35F8F1F4B0500E7
:102E00001F4AED1A6D416A43120D1E4D8900AE68CE
:102E100052B27658A6421CD00621595691421CD077
:102E200012215956914222D01E215956914220D04A
:102E30002A2159560324914210D0134B19781A7045
:102E40008171BFF35F8F00220B4B1A608CF31088E7
:102E500070BDAB680D4C5C50EFE7002461000919B0
:102E600089005B18FF21997109499980E5E70124E0
:102E7000F4E70224F2E7C046240100D064110020E8
:102E8000AAAA000000ED00E0D7260020C101001032
:102E900001BDFFFF024B9C46614489000160704701
:102EA0004000003470B5114C114DAC420FD2FF26DA
:102EB0002368002B0CD0FFF713FE01002000FFF762
:102EC000E9FFA680BFF35F8F0834AC42F0D370BD3A
:102ED000FFF706FE01002000FFF7DCFF2671BFF3BD
:102EE0005F8F0834AC42E3D3F1E7C04658170020A7
:102EF0006817002010B50400FFF7F2FD0100200064
:102F0000FFF7C8FFFF232371BFF35F8F10BDC046DB
:102F100010B504000120FFF7EFFD034BC3189B0021
:102F20002360BFF35F8F10BD400000340A4B196867
:102F3000EFF3108072B60A68002AFCD0BFF35F8FEF
:102F40001B68BFF35F8F00221A6080F3108840BFB8
:102F5000002000217047C046C0260020F0B5DE46A4
:102F600057464E464546E0B583B0EFF3058203234E
:102F70001340B54A990052580091904601229A4058
:102F80009346B24B1A60B24B01935B46B148436320
:102F9000434608229B5E9946002B3ADA43469B88BB
:102FA0001BB2002B00DB9DE043469B79002B00D039
:102FB000E1E0434608241C5F002C20DB43465A69AD
:102FC00063001B19DB00D3189D68DC686B1C00D103
:102FD00003E1A048009984466144826A0B69AE1AF5
:102FE0009B1A9E4213D35A46036A1A420FD099483D
:102FF00000F040FB8C4202DCC7D18542C5D940BFFE
:1030000003B0F0BCBB46B246A946A046F0BD0D6178
:10301000EDE7424652695B0092464B44DB009A441E
:1030200053469E68DF6800F025FB8F42B6DC00D176
:10303000F8E0002F00DAD9E05246534654691B6984
:10304000019A934200D1CCE0414652460820085EE6
:103050005288000421001043984704000D0023000B
:103060002B4300D1C2E0002D00DBDFE0300039004F
:10307000001BA94153469860D96000229A5E002A3D
:1030800000DA8BE743465D6953009C18E4002C1975
:10309000A768E4688C4200DD80E702D1874200D94E
:1030A0007CE74646328108360DE08C4200D1C6E00E
:1030B0001E000023F25E002A0ADB53009C18E40085
:1030C0002C19A768E4689B18DB00EB188C42ECDD38
:1030D00053461A804B46338043469B881BB2002BD5
:1030E00000DA61E743461A69EFF3108172B613689C
:1030F000002BFCD0BFF35F8F43469E8801234246DE
:103100005B42938036B21369BFF35F8F00221A606F
:1031100081F31088002E00DA46E743465D690833E4
:1031200042469C467700BF19FF00EF19BB68604616
:1031300098460823D15E9246FC68002907DA0EE023
:10314000A24246D018000023C15E002906DB4B00D6
:103150005B18DB00EB18DA68A242F1DD524606800C
:103160000023FE5E3980002EDCDA904643469B79D0
:10317000002B00D11DE7002342469371434646468B
:103180000821595E08364B1C00D138E7474689466E
:10319000556902E006004B1C18D04B005B18DB00A1
:1031A000E8180A008C46E95E43881BB2002BF1DA6E
:1031B00001235B42DC178360C4604A4503D0318041
:1031C0003B8903803A81E1464B1CE6D1B8464C4628
:1031D000F2E69A684245B5D9C0E7631C00D0F8E62C
:1031E00005E7200023699847002825D15346424629
:1031F0001B8813811269EFF3108372B611680029DE
:10320000FCD0BFF35F8F4246514652880A80424647
:10321000494651801269BFF35F8F0021116083F32B
:103220001088BBE6864200D803E7B7E6094800F0FD
:1032300021FA001969411DE7656824680FE7874294
:1032400000D835E744E7C046602500203C700540C3
:103250005D2F00100040054070B52E4C2569002DF3
:1032600004D00A212C48FFF715FE70BD2B4E032118
:10327000300000F0F5F9E660FFF732FC284B03223E
:103280009C46D02322701B061B6801216370254BCE
:103290006044A3600F238000206102206380636983
:1032A0004942A18019800231198647311D83585245
:1032B00018315A5275325C3999521832013199528B
:1032C00018320131995218320131995208351832A9
:1032D0009D520231183299521832013199521832E6
:1032E00001319952183201319952183201319952F3
:1032F0001832013199520C4B0C49DC6001303562B7
:10330000FFF74AFC01210320FFF728FC084B1D6052
:10331000A7E7C046AC110020C026002000400540B1
:1033200040000034FFFF1000602500205D2F0010DA
:103330003860054070B501000469EFF3108C72B677
:1033400020680028FCD0BFF35F8F02200D5E4C691F
:1033500068004019C0002418002D37DB2088488001
:103360000869BFF35F8F002606608CF31088E36066
:1033700063880498013320615B0405985B0CA260AC
:1033800060611A1C002B1FD093B22804628018437E
:103390000A69EFF3108C72B61368002BFCD0BFF3F0
:1033A0005F8F8B8823808D800B69BFF35F8F002236
:1033B0001A608CF310880B7801329A40CB68084968
:1033C0008C4663441A6070BD0122DDE70B69BFF3D0
:1033D0005F8F00221A608CF3108801204042F2E7D0
:1033E0003C20000010B543890A1493421ADD5300B3
:1033F0009B184269DB00D3180469EFF3108C72B696
:103400002268002AFCD0BFF35F8F5A88090494B267
:10341000090C8A4208D00369BFF35F8F00221A604B
:103420008CF31088002010BD8022120214435C80AF
:10343000012302698371BFF35F8F002111608CF358
:103440001088044902788C469340C2680120624487
:103450001360E8E73C200000F0B504000D000626EC
:103460007642F717C64636196F4100B582B08F42D3
:1034700014D811D000F006F932003B00121A8B412B
:10348000002B17DC002B47D02000290000F004F9A6
:1034900002B080BCB846F0BD8642EBD900220023C2
:1034A00016001F0000F0EEF832003B00121A8B41AC
:1034B000002BE7DD00F0E6F832003B00121A8B41EA
:1034C000002B0ADB00230193154B320000931548B3
:1034D0003B00FFF72FFF0028D6DB00239C46B046B9
:1034E000114A124E736A9F4204D8B16A8845CBD9FB
:1034F0009F42C9D11168EFF3108072B60B68002BA0
:10350000FCD0BFF35F8F1368BFF35F8F6146196014
:1035100080F3108820BFE5E7002AB5D0CAE7C0468F
:103520002D2F0010AC110020C026002000400540C7
:1035300070B5060000F0A6F8FA2204000D00002382
:1035400030000021920000F039FE8023001969410B
:103550001B06994202D3012002494042FFF77CFF3B
:1035600070BDC046FFFFFF7FF0B5D6464F464646CA
:10357000C0B504000D0082B0EFF305878946002F27
:103580000ED0344900204B6AAB4203D38A6A013023
:10359000A24226D302B0E0BCBA46B146A846F0BD6E
:1035A0002D4B9846DB689A46434650461E7800F0FD
:1035B00061F80B00514602000436B6007158200035
:1035C0008E1A2900801A99418F4211DC0ED020BF3B
:1035D000204A0020536A4B45DCD3926A0130A24254
:1035E000D8D25B1B5A1E9341D8B2D3E78642EED99C
:1035F00000F048F822002B00121A8B41002B1ADB36
:1036000000230193154B2200009340462B00FFF747
:1036100091FE011E0FDD0F4B5A6A4A4517D39B6A74
:10362000A34212D34046FFF7DDFE0A4A0020536A48
:103630004B45AFD3D1E7074A0020536A4B45A9D386
:10364000926A0120A242A5D2CBE74A45EAD120BF27
:10365000E8E7C04600400540AC1100202D2F0010C7
:1036600010B5024A0248FFF7CBF910BD6073001095
:10367000FC2000200300416A0A00986A596A8A42C5
:10368000FAD17047034B596A0A00986A596A914205
:10369000FAD1704700400540064A536A9942FCD867
:1036A00007D1044B02E05A6A914202D19A6A8242DF
:1036B000F9D3704700400540F8B5DE464E46574600
:1036C0004546E0B58B4605000A991800160000F043
:1036D000EFFA0A9B6C001F02324B64199C46A4004F
:1036E0006444636881469F4200D967602B1FDBB248
:1036F0009846012B30D9C02380229B01E318120188
:103700001A60294BAD0059599A4600291BD1730103
:10371000E026226853401E40802342465B01E318A6
:103720001E60012A30D9802380229B01E3181201F8
:103730001A6053464A4667605A51F0BCBB46B246CF
:10374000A946A046F8BD586900F0B2FA013043001E
:103750001B18033BFDD2DAE75B46012BCBD1C0231C
:1037600003229B01E3181A60023AA3681A42FCD0B4
:103770007301E0262268AD0053401E4080230A4AB0
:103780005B019246E3181E605A46216851400322AD
:103790000A401A6001225B469A40A3681A42FCD094
:1037A000C1E7C0460080004004210020F0B5464635
:1037B0004F46D646C0B51F00344B44009C462418E3
:1037C000A4006444636888461600FF2B02D8802357
:1037D0005B006360031FDBB29A46012B30D9C02324
:1037E00080229B01E31812011A60294B8500595968
:1037F000994600291BD17301E026226853401E40E0
:10380000802352465B01E3181E60012A30D98023D1
:1038100080229B01E31812011A6080235B00636021
:103820004B465F51E0BCBA46B146A846F0BD586968
:1038300000F03EFA013043001B18033BFDD2DAE7EB
:103840004346012BCBD1C02303229B01E3181A600E
:10385000023AA3681A42FCD07301E0262268850070
:1038600053401E4080230A4A5B019146E3181E60C4
:1038700042462168514003220A401A600123424611
:103880009340A2681342FCD0C1E7C04600800040CC
:1038900004210020014B8000C05870470421002003
:1038A000F8B5040021481E0017000D0000F000FAD2
:1038B0000100380000F0FCF9069B36041B031E4390
:1038C0002368002B20DB1A4B1A49E3185A1E934138
:1038D0008022920194465B421B0B174A1B036344F0
:1038E0001360164A13601F000A689743FBD1144BFC
:1038F0002560E2182123A06013602368002BFCDA06
:103900000823E6601360F8BD3F2322681340AB42F2
:10391000D9D1A3681B051B0D8342D4D1EE22E368E5
:10392000D2021340B342CED1EDE7C046001BB70030
:103930000040FDBF08C0004000E0004000F0004033
:10394000043000008023024A9B000B43D36270477F
:1039500000800540142310B50100188804331B882B
:10396000984710BD162310B50100188802331B8834
:10397000984710BDF8B54746CE4680B50F1E19D002
:1039800014239946043304000025012698464B462B
:103990001888434621681B88984701C4431E9841F4
:1039A000013540420640AF42F1D13000C0BCB946BB
:1039B000B046F8BD0126F8E7AA23064A1B011360AA
:1039C0002133FF33D3600449044B19605368002B43
:1039D000FCDA70470040024000B0FA00006002408C
:1039E0007047C04610B50148FEF7DCFF8473001035
:1039F00070B5074D074EB54209D20024013E761B33
:103A0000B60808CD984723000134B342F9D170BD00
:103A1000C87200100473001070B5074D074EB54210
:103A200009D20024013E761BB60808CD9847230032
:103A30000134B342F9D170BDFC7200100473001060
:103A4000054B064A06491A60064A074B1A601000E1
:103A50000B689843FBD1704700E00040BFCDFBFEF0
:103A600008C00040FE7F3C0000F00040044BDB6CCF
:103A7000002B03D18022034BD2021A607047C0464C
:103A8000000011504C201150044A054B1A60054AA1
:103A90001368DB018033FBD17047C046FFFFFF0195
:103AA00000F0004008C000404022034B9A675A676C
:103AB0001A67DA667047C04600F0014010B5FFF79C
:103AC0002DF810BDF8B52749274C284D641AA610CB
:103AD0003200302E00D930222800920000F04EFC37
:103AE000BC2C3BD830202F232C196407204A801B84
:103AF000E40F9B1B052B16D93700002C02D0B30016
:103B0000771CEA50001B33199B004108EB18C900D1
:103B1000C9181A605A6008339942FAD10123034246
:103B20001CD09843C619B300EA50731C2F2E15D031
:103B30009B00EA50B31C2E2E10D09B00EA50F31CC1
:103B40002D2E0BD09B00EA50331D2C2E06D09B004F
:103B5000EA50731D2B2E01D09B00EA50054B9D604F
:103B6000F8BDC04600010010C00100100000002098
:103B7000C101001000ED00E0002310B5294C82B017
:103B8000A367FFF719FF0122274B1A60636C012B13
:103B9000FCD10322254B1A60224A936B012BFCD1E6
:103BA000013300930121224A22480433FFF778FEB3
:103BB000052301210093204A2048FFF771FE0022CF
:103BC000022104201E4BFFF7F1FD002201210520F8
:103BD0001C4BFFF7EBFD0022002107201A4BFFF7DB
:103BE000E5FD002200210820174BFFF7DFFD8023B1
:103BF000DB000093002200210920134BFFF75CFD3E
:103C00000022104B00210620FFF7D0FD0420FFF713
:103C100041FE0E4900F04CF801000020FFF792FE33
:103C200002B010BD008000403CB0004030B0004009
:103C3000002F685900800240008C864700C0024077
:103C4000001BB70040597307006CDC0240420F00B4
:103C500001480421014B1847D0110020753900108C
:103C6000124A936F9B0815D29066D166002905D041
:103C7000FFE7FFE7FFE7516F106F704704B5802142
:103C80000906C2175140002800D0C84303F0D4FAF7
:103C9000002104BDF0B5146E556E576F166FFFF717
:103CA000E3FF1466556657671667F0BD000000D045
:103CB000114A936F9B0813D210665166002905D0F4
:103CC000FFE7FFE7FFE7516F106F704704B500286B
:103CD00001D00020C04303F0AFFA002104BDC0466C
:103CE000F0B5146E556E576F166FFFF7E5FF14664B
:103CF000556657671667F0BD000000D04840414048
:103D0000484018B4134B5B68019308BD18B4114BBD
:103D10001B68019308BD94460F4A926F920805D222
:103D2000624618B40B4BDB68019308BD0A4AF0B534
:103D3000146E556E576F166F6246FFF7F2FF064A14
:103D40001466556657671667F0BD18B4014B9B683B
:103D5000019308BDE8180020000000D000210028D1
:103D600005D17047C1174840401AFAD0C90713B5AA
:103D7000064B1B6898470CBC441CA2401005120B54
:103D80000349091B09051943114310BDBC25002037
:103D90001F04000010B54C00620D8023D218DB0018
:103DA000D21A5B057E2A10DD9E3A13DACC1709037E
:103DB000490819435242D140640001341532202A87
:103DC00005DAD0400843604310BD002010BD08460E
:103DD000604310BDC80FC018013810BD18B4024BA5
:103DE0005B6A019308BD0000E818002018B4024B7C
:103DF0001B6E019308BD0000E8180020024A034B27
:103E000000B500F0BDF900BD182D4454FB21194048
:103E10008A0002D3920D092A04DA18B4044BDB6B32
:103E2000019308BD00B5FFF7E9FF04BC9646F4E72F
:103E3000E81800208A0002D3920D092A04DA18B487
:103E4000044B1B6C019308BD00B5FFF7D7FF04BC02
:103E50009646F4E7E818002010B50148FEF7A2FDE9
:103E600090730010132370B51D78012D19D014DD47
:103E70001D48FFF777FD06001C48FFF773FD1C4C3B
:103E800080223100200000F079FA022D06D0194876
:103E9000FFF760FD184B186070BD154C174BA364FD
:103EA000F5E7174B124C23606360A360E360236166
:103EB0006361A361E36123626362A362E3622363DC
:103EC0006363A363E36323646364A364E3642365BC
:103ED0006365A365E36523666366A366E36623679C
:103EE0006367A367E367D9E75344000053460000C4
:103EF000E81800204C330000BC2500209141001040
:103F0000593E0010F0B545464E46DE4657461C0069
:103F10001300E0B589B0049305944D00129B9046C0
:103F200064006A0D81469446640D002B02D01A008D
:103F3000002313608F4DAC456FD0002C6DD06346CD
:103F4000002B00D174E002000B00AC4267D0651E6C
:103F5000654564DC8022CB0F9B460B0352031B0B91
:103F600013431F00059B4E461B031B0B9A464346FB
:103F7000029353461A430392654500D18FE05B4696
:103F8000002B00D1ADE03B003200002756429F419C
:103F900063461D1B002D00DCB4E00120039B404262
:103FA0001911FFF785FE00239B461D3381469A4673
:103FB000A846079418E032009A4001923300AB40C3
:103FC00020000093E117029A039B00F0F7F8009E8F
:103FD000019F5B46A346AB409B4443465B1B361A9E
:103FE0008F419846002B26DD45460C2D00DD0C2523
:103FF0004B46BC115C4353465B1B1C412B000134F8
:104000006410203BD7D5202332005B1BDA4013001D
:104010003A00AA401A430192D0E70022564B100002
:10402000190009B0F0BCBB46B246A946A046F0BD97
:1040300000220023F3E7079C029A039BBB4200DDAA
:104040007CE000D176E0029A039BB61A9F41BB4206
:1040500000DD8BE000D185E0029A039BB61A9F41F8
:1040600002239C46E3443200029803993B009219D4
:104070007B418B420BDC01D1824208D802998A42F3
:104080001BD1039A934218D15B46DB0715D5029AE0
:10409000039BB61A9F4101239C46E3440DE09742DF
:1040A0003FDD029A039B594692185B41002948D193
:1040B000B61A9F4101232C009B46059B002B02DA78
:1040C0005B465B429B46129B002B01D05A461A600E
:1040D0002A4A3000121B3900FFF788FE02000B004D
:1040E0009DE763461D1B002D00DD56E7029A039BEA
:1040F000BB42CCDC33D0029A039BB61A9F4101230A
:104100009B46B0E700239B46029A039BB6185F418B
:10411000002F1FDAB6185F4102235B429C46E3443E
:10412000A1E7029B039CA74201D19E42B9D802009D
:104130000B0074E7029BB34200D884E7002F92DAA9
:10414000E2E7921BBB411F0001235B4216002C00DB
:104150009B46B2E701235B429C46E34483E7B242BD
:10416000C9D994E7029BB34200D875E701239C4666
:10417000E34478E7FF0700000000F07F330400000D
:1041800010B5002482B00094FFF7BCFE02B010BD51
:1041900007B5604601880A0A0230DF2AFAD1C9B29F
:1041A000820804D3028840880004104300E00068BD
:1041B000014A5050039007BDE81800205143434383
:1041C000C9188C46110C83B24B4310B4040C6143E4
:1041D00092B280B2504362431C041B0C001910BC05
:1041E00059411304120CC01851416144704700003A
:1041F0004840414048400E4B5B6818470C4B1B68D9
:1042000018470C4A936F9B0802D2094BDB6818478A
:10421000F0B5146E556E576F166FFFF7F6FF054A2F
:104220001466556657671667F0BD014B9B681847C3
:10423000C0250020000000D0491A002808D10846F7
:1042400070470000C10FC90700D54042002817D0B1
:10425000F44603B40B4B1B68984706BC81409E385C
:104260004042803107D20B0607D04900490AC005F9
:104270001043084360470130F8E7490A8902F5E72F
:1042800070470000BC250020014B5B6A1847000006
:10429000C025002010B50148FEF784FB2C730010E8
:1042A000132310B510481C78FFF75CFB0100012CAC
:1042B0000AD003DD80220D4800F060F80C48FFF7BB
:1042C00049FB0C4B186010BD084C5422200000F034
:1042D00055F82200084980322368002B00D1216064
:1042E00004349442F8D1E9E753460000C025002089
:1042F0004C330000BC25002095420010F8B50600A4
:104300000C000C4F380002F0D7FF2100300002F003
:10431000FFF90500380002F07FFF7443002D05D03F
:10432000054B2C199C4201D82800F8BD0348FEF724
:1043300039FBC0465817002000000420A873001065
:1043400070B50400054D280002F0B6FF200002F011
:104350008BFE280002F060FF70BDC0465817002099
:1043600001480421014B1847E01100207539001065
:10437000014B1B6818470000E0110020014B5B68EF
:1043800018470000E011002010B5002800D110BD32
:1043900000F022F9FBE7C04610B5094A0300146893
:1043A00084B0002C08D0012200910648524203A993
:1043B000A047012004B010BD00F05AF90020F9E731
:1043C000482500208943001000BEFDE7094A03008C
:1043D0001068002805D00849C3188B4207D813601D
:1043E000704706480449C31810608B42F7D9012072
:1043F0004042F5E74021002000000420DC26002098
:1044000010B5FFF7E1FFC04670B5FFF7F1FA074DB1
:10441000074EB54209D20024013E761BB60808CDEE
:10442000984723000134B342F9D170BD04730010E2
:1044300014730010030010B5080011001B689847A2
:1044400010BDC046F0B5C64600B5437D07000D005F
:104450001600002B38D0002A2EDD00216A1E90465F
:104460006A5C037D4C1C00200A2A0CD0A64216D0A0
:1044700043461B5D21000D3B5A4253416A5CDBB24F
:104480004C1C0A2AF2D1002BF0D1884217DB022102
:1044900010483B689847A64207D02000E8E78642CC
:1044A00003DD311A3B6828189847AD19013D2B7878
:1044B0000D3B5A4253413B7580BCB846F0BD091ACA
:1044C0003B6828189847E2E70368110028009847DE
:1044D000F2E7C04604760010F0B5DE4657464E4679
:1044E0004546E0B585B017001C0006000D00FFF73B
:1044F000C9F80023314A12184B41802109068B422A
:1045000002D301222E4B52422E4908008A4602F065
:10451000B3FE01906B1C03D1300002F0C9FD050011
:10452000002C26D0284B9846284B1C68002C15D010
:10453000002F21D1264F02E02469002C0ED02368E1
:10454000002BF9D03B68002B01D09C42F4D1200015
:104550002A003100C0472469002CF0D1019B002BB8
:1045600028D1280005B0F0BCBB46B246A946A046FB
:10457000F0BD184B9846D7E7154B994602ABDF1DA7
:104580000A239B4602E02469002CE7D02368002B15
:10459000F9D04B461B68002B01D0A342F3D12A006F
:1045A00031002000C0475B460122390020003B70EB
:1045B000C047E8E7504602F02FFED2E740420F0026
:1045C000FFFFFF7F601700204544001030210020CE
:1045D0003821002035440010F0B5CE46474680B55E
:1045E00083B06B460600DD1D2870FFF74BF80023F3
:1045F0001A4A12184B41802109068B4202D301222C
:10460000174B524217490800884602F035FE164BF8
:1046100081461C68002C14D0144F02E02469002C41
:104620000FD02368002BF9D03B68002B01D09C42AF
:10463000F4D1200001222900FFF704FF2469002C97
:10464000EFD14B46002B05D1300003B0C0BCB946BA
:10465000B046F0BD404602F0DFFDF5E740420F00F6
:10466000FFFFFF7F6017002030210020382100204D
:1046700070B5040002F01CFD0123010005000122B9
:104680002000FFF729FF084B1C68002C06D0636848
:10469000002B05D098472469002CF8D1280070BD64
:1046A0002469002CF3D1F9E730210020F8B500F09F
:1046B00043F90C23194DFF22AB6705201849FEF77B
:1046C00095FA184C402200212000FFF751FE4027A8
:1046D000002301262121144A66702783A2601360FB
:1046E00063545F31618445396354104A10496360F3
:1046F000E2602787A1620B606362E26202F0CCFD98
:1047000080239B052E64EB6490230A4A0120EA5023
:104710008022094B5202DA64F8BDC04600001150F5
:104720006503002044210020840010500001105037
:104730008000105010D001000020115010B5012150
:104740000520FEF70BFA10BD10B50022002102482B
:1047500000F012F910BDC04664210020044B19700E
:10476000002904D080219023024A8902D150704749
:10477000D4260020002011500B785B0602D14B7824
:10478000052B00D070478A78014B1A60FAE7C046C3
:1047900000001150F0B5C646C87800B58007830FF9
:1047A0001800012B60D08F780A794B797F2139402E
:1047B000FC091B024E001343334D32195201AA1853
:1047C000977001276740577000275B055B0DD77016
:1047D0001383D076B846CA00012C32D02B4FBC468A
:1047E0008F016244BC46AC446746BA6047461760D6
:1047F000002932D0264AC9009046624641445160A1
:104800003F223F339343022837D0224937190A68A1
:104810007F01D3180B602049EF19FA608B422ED824
:1048200036197601AD19EB7E1C499B064A401343AD
:104830008022120613436A681360012080BCB846C8
:10484000F0BD174FBC468F016244BC46AC4467467E
:10485000BA6247461760002908D1002364012C1969
:104860006360104BE360E8E70020E7E70B4AC9000C
:104870009046624641445162C2E75B00C5E7FFF7DC
:10488000B1F8FA68CCE7C0464421002084001050FB
:10489000040010505C250020FF0F10500000105045
:1048A000800010500001105010B502F0F5FC10BD52
:1048B00010B57F200C0020404000E40911000019D1
:1048C0001A00034B4001C01800F056F8012010BD3B
:1048D000442100207F23180010B50840CA090B426C
:1048E00003D107497D3B9B1A8B66400080188022CC
:1048F000044B40010021C018120102F0D5FC10BD8C
:1049000000201150442100207F22130010B50B40DD
:104910000A4200D110BDC9095B005B1804485B0165
:10492000C018002300220349C37002F0BDFCF1E768
:1049300044210020FFF7FFFF80220A4B520410B5EC
:104940001A60094B09491A6010000B689843FBD1A3
:104950008022002152010648FFF70AFD0922054B7B
:104960005A6710BD00E0004000F0004008C0004061
:104970000000105000001150002310B5C382013315
:10498000828283760161040002F06EFC002804D06C
:1049900080219023074A8902D150200002F02CFC8C
:1049A000002802D00123237710BD200002F06CFC08
:1049B000FAE7C04600201150002070477047C046FB
:1049C0007047C046002070470020704700207047A5
:1049D0007047C0467047C0467047C0467047C046E3
:1049E000024B5878431E9841C0B27047D41E002035
:1049F000024B18784007C00F7047C046D41E0020F5
:104A0000F0B5D6464F464646C0B52F4B07009A46EE
:104A10001B780E00FF2B01D0012041E000293ED081
:104A2000002154222948FFF7A3FC0022284C294BDF
:104A300020001A70FEF75EFA274B1C60274C2000FE
:104A4000143CFEF765FA200001F0E0F8244B254DF8
:104A50001C60254B002B28D0280000E000BF234B12
:104A600018602B78224A00249146204A90460EE096
:104A700043461B6862019B18002B10D05B68002B1B
:104A80000DD0984701342B78E4B2A3420FD3A34250
:104A9000EED8E31A5B014B445B68002BF1D1002098
:104AA000E0BCBA46B146A846F0BD2B78DAE75346DB
:104AB000310038001F70FFF7F9FD0028EFD03800F3
:104AC000FFF73CFE0120EBE70C120020D41E002073
:104AD000CC1E0020D5260020281F00200412002014
:104AE0002C1F0020D326002000000000A41D002061
:104AF000B0760010F0B5DE4657464E464546E0B566
:104B0000CA4B8FB003931B78FF2B00D146E1C84BF3
:104B1000C84E9B465F46C84B0BAC0293C74B0193F4
:104B200035686A69EFF3108172B61368002BFCD008
:104B3000BFF35F8FA9612800210000F0C5FF6A69FB
:104B4000AB69BFF35F8F0021116083F310880028E9
:104B500000D123E16378082BE2D89B00FB589F46E5
:104B60006368002BDCD0A0689847D9E77F222179C1
:104B7000B14D0A405300EB189846C809804440469E
:104B80000123303005799D430571057903339D4339
:104B90000571002A00D108E14346A94A1B7D12781D
:104BA000934200D3F8E0A74A5B011568ED18002D89
:104BB00000D1F3E0A36862792078AD69A847AFE738
:104BC000A14A1378002B00D1E8E01378013BDBB257
:104BD00013701378002BA3D10122974D01212B785C
:104BE000042013432B703423EA5C8A43EA54EA5CC2
:104BF0008243EA540133EA5C8A43EA54EA5C824322
:104C0000EA5423780020984600F060FC6022237963
:104C10001A40602A00D1F3E0402A00D1F9E0DB0617
:104C2000DB0E012B00D117E1022B00D1CCE0002BD1
:104C300000D0E5E0202A00D10FE2002A00D0DFE01A
:104C40006379092B00D9DBE0804A9B00D3589F464B
:104C5000794D2B78DB0700D462E7FFF7BFFE5FE7F3
:104C6000029BDB78DB0700D45AE76068FFF7A8FEF9
:104C700056E7714D2B78DB0700D451E72878000701
:104C8000C00FFFF7A9FE4BE723786C4A984693467E
:104C90006B4B6C4A9946310092463A0046464F4665
:104CA0000025914688461B780EE053461B686A0132
:104CB0009B18002B00D17EE0DB683000984701355F
:104CC0003B78EDB2AB420CD39D42EED3EB1A5B01C5
:104CD0005B44DB683000984701353B78EDB2AB426E
:104CE000F2D2554D542200212800FFF741FB10223B
:104CF000FF21281DFFF73CFB28002022FF21143054
:104D000046464F46FFF734FB00F0D6FB2379AB70E5
:104D100006E723784B4A9846494B9246994632001B
:104D2000BB46464600254F4690461B780DE053464D
:104D30001B686A019B18002B41D0DB683000984744
:104D400001353B78EDB2AB420ED3AB42EFD8019ABE
:104D5000EB1A94465B016344DB68300098470135E9
:104D60003B78EDB2AB42F0D2029D542200212800E4
:104D7000FFF7FEFA1022FF213548FFF7F9FA280065
:104D80002022FF21143046465F46FFF7F1FA00F07B
:104D900093FBFFF71FFEC3E6934213D00FB0F0BCA6
:104DA000BB46B246A946A046F0BDA368627920780A
:104DB00000F0A0FBB4E646464F461F4DA4E746462A
:104DC0005F46E4E71D4DF5E67023217A0B4217D1CB
:104DD000C80983460F330B405B0099461848EB180F
:104DE0005B441B7D0078834261D216485B010068FA
:104DF00082469A44002A00D14EE15346002B5ED1F0
:104E000020780021FFF766FD80212078FFF762FD02
:104E100086E6104800F05AFB012140460CAAFFF735
:104E2000CBFD002800D07BE6EAE7C0460C1200204C
:104E3000087600102C1F0020D41E0020B076001031
:104E4000D3260020A41D0020D52600202C7600109B
:104E5000D81E0020B9490010237A0F2BD0D8D54A8C
:104E6000EB181B791278934234D3C9D1D24D6869BB
:104E700000F02CFB012140466B690CAA98470028E2
:104E800000D04DE66022150023791D401A42B7D1AB
:104E900063790A3B012BB3D800F018FB63790A2B26
:104EA00000D17DE140460CA900F09AFA38E6834231
:104EB00000D0ECE0C04B9A46002A00D1ECE053460B
:104EC000586900F003FB5346012140465B690CAA78
:104ED0009847A6E7B94A5B011568ED18002DC6D1C1
:104EE0008EE7A3799A466B789A45DBD06B78002BD6
:104EF00000D028E153466B70002B00D120E15046D2
:104F00000138C0B2FDF7AAFC002800D171E1437856
:104F1000022B00D06DE10122C179A9468B11491104
:104F200013400A40302112015B0113432A788A435F
:104F300013432B7009239B4683445D46B346C378D5
:104F400082781B021343C31806939A4B0497059368
:104F5000994B0893994B9A46994B0993069BAB4200
:104F600000D849E16B7801220B2B03D12B78EA782A
:104F7000ED186B78042B00D038E1069B00265B1BF4
:104F80009BB20793059B17001B7818E053461B68DC
:104F900072019B18002B00D128E1290040461B69B3
:104FA000079A9847082803D9079B834200D30BE14F
:104FB000059B01361B78F6B2B34200D216E1B3422C
:104FC000E4D8089AF31A94465B016344E5E76B78EA
:104FD0000AAA02321370404601230CA900F016FA07
:104FE0009EE5E3881A0AD8B20F2A00D908E7754966
:104FF0009300CB589F460CA800F06EFA4046A1796A
:10500000FFF7A2FB02222B7813432B7088E5E3887D
:10501000012B00D0F4E608222B78404693430CA9DC
:105020002B7000F0DDF97BE5022029780AAB9A1C91
:105030008B068908DB0F01400B4313804046022397
:105040000CA900F0E3F96BE5E388012B00D0D7E66B
:1050500008222B7813432B7024E7237A0F2B00D9D7
:10506000CEE6544AEB181B791278934228D2534A61
:105070005B011568ED18002D00D1C1E6686900F0EC
:1050800025FA012140466B690CAA9847C9E6002A17
:1050900000D0B5E600239A466279022013000492FC
:1050A0008343012B11D0002A00D0A9E62B004B44EA
:1050B0005B4430331B790AAA9B07DB0F0232BCE743
:1050C000934200D09CE63C4DD8E7E388002B12D1F8
:1050D000039B1878049B012B23D0FFF7FBFB4B4667
:1050E0000221EB185B4430331A790A4301211A710B
:1050F0001A790A431A715346002B00D110E55869FA
:1051000000F0E4F9534601215B690CAA4046984738
:10511000002000F0DBF93523EB5CDB0700D5FFE472
:10512000C0E6FFF7F1FB4B460221EB185B4430333E
:105130001A798A431A711A7904998A431A71DAE73B
:10514000FFF748FCAEE600214046FFF707FB40466C
:10515000FFF7AAFB00229346174AAB780592174A3D
:10516000049306922A00134B5D46994693461B789A
:105170000EE0069B6A011B689B18002B55D0DB686C
:10518000404698474B4601351B78EDB2AB4238D3C9
:105190009D42EED3059AEB1A94465B016344EEE719
:1051A0000AAB9A1C404601230CA9157000F02EF999
:1051B000B6E4C046D3260020B0760010A41D00201F
:1051C000E81E0020547600103A000700002A3CD068
:1051D000AB789A18D2B204E00133DBB20E719A4276
:1051E00033D04946C9180879FF28F5D05E464D46A8
:1051F000049F00236B7003E65E46049FFFF7E8FB05
:1052000050E65D46542200212800FFF7B1F8102235
:10521000FF21281DFFF7ACF828002022FF211430C1
:10522000FFF7A6F8049BAB7064E65D46FAE7FFF76C
:10523000C9FB021E00D1E3E5D37891781B020B4332
:1052400040460CA900F0E2F8EBE5330029003A00F3
:10525000099800F01FFC059BED191B78B34200D3A1
:105260007CE6C3E7FFF7B0FB021E00D1C8E540466D
:1052700013780CA900F0CAF8D3E52189FDF7FCFAF0
:10528000021EF4D1BCE5022A0FD0FFF79FFB021EDD
:10529000D2D1B5E5FDF7CCFA021E00D1B0E512235C
:1052A00040460CA900F0B2F8BBE5FDF7D7FA021EA4
:1052B000C2D1A5E5F8B557464E46DE4645460C0038
:1052C000E0B516001F00002A3CD01F4B00259A466F
:1052D000702399461D4B9B4617E05B46200099784A
:1052E00000F09AFB00281FD021004046FFF752FA39
:1052F000002819D0A378DA09012A1CD00A9A0135AE
:1053000013702378E418B5421CDA6378052B0BD1AF
:10531000E3789B079B0FBB4206D153464A461B7856
:105320009846A3781A42D8D00020F0BCBB46B246BB
:10533000A946A046F8BD0B9A013513702378E418EE
:10534000B542E2DB0120F0E70C120020D41E002061
:105350000B007F2010B51840DB0934334000044AAD
:10536000C018044B1168C01800F02EFB10BDC046D9
:10537000281F0020D41E002070B57F240F480C4049
:1053800064000419CD09641930342079C00701D5AF
:10539000002070BD01262579094835430078257124
:1053A000FFF786FA0028F4D1012223799343237171
:1053B0002379033293432371EAE7C046D41E0020C9
:1053C0000C1200207F22054B0A405200C9099B188D
:1053D0005B1830331879C007C00F7047D41E002007
:1053E00070B5094C0600082220000D00FEF7C6FF2C
:1053F00000238021E360A3602B78300099430022D2
:105400000023FFF7B9FF70BDE81D0020F8B5CE46B8
:1054100047469046264E80B58146082230000D0052
:105420001F00FEF7ABFF4346B3600023F381EC7926
:10543000AB7924021C43231CBC4200D93B1C9FB205
:10544000B381002C0ED0002F18D04346002B2CD057
:105450003B1C402F1BD89FB233787F2B1CD80021D8
:10546000144A0FE080212B780022994348460023FC
:10547000FFF782FFC0BCB946B046F8BD7F230022CB
:10548000317899433B004846FFF776FFF2E7402327
:105490009FB233787F2BE2D9064C3A004146200078
:1054A000FEF76CFF80212200ECE70020E2E7C04617
:1054B000E81D0020A81D002010B51422002102487C
:1054C000FEF756FF10BDC046E81D0020014B1861D5
:1054D0007047C046E81D002010B5054C01000822A9
:1054E0002000FEF74BFF0023A360E36010BDC04621
:1054F000E81D002070B5384C1D0023780600DA093D
:10550000C9098A4210D00020002D00D070BD2100B2
:105510003000FFF731F92369002B03D0220003216B
:10552000300098470120F1E7A0687F2B05D80028BC
:1055300034D02A002949FEF721FFE289A1685219D7
:10554000E38892B24919E281A160934214D03F2DC1
:1055500012D9A389981A051C80B240282AD820782D
:10556000ADB27F2828D800219A4232D01B4A2B00A6
:105570003000FFF701FFC9E72369002B05D02200A7
:1055800002213000984700280AD080212378002289
:10559000994330000023FFF7EFFEB7E70020B5E79F
:1055A00000213000FFF796F930008021FFF792F9D3
:1055B0000120ABE74025D2E79A4207D0074C2A00EA
:1055C0002000FEF7DBFE80212200D0E780210022B0
:1055D000CDE70022CBE7C046E81D0020A81D002033
:1055E0007047C046012070477047C0467047C046AC
:1055F00042000C4B1218920010B59B185C78FFF714
:10560000EFF9002801D1002010BDFFF7F1F90028C3
:10561000F9D1002CF7D02100FFF7D4FE0123584028
:10562000C0B2F1E7BC1E0020F0B5C6460E00150062
:105630001C0000B5002803D0002080BCB846F0BD97
:10564000144B002059789846FFF782FE0028F3D0CB
:10565000002E0FD1402CEFD80F4F22002900380028
:10566000FEF78CFE43463A00597800202300FFF7EE
:1056700083FEE2E74023094FFE543F2CDCD838007C
:105680002200290041300134FEF778FEA4B24037F1
:10569000E8E7C046BC1E00203C1E0020FC1D002088
:1056A00010B50C2200210248FEF762FE10BDC04674
:1056B000BC1E00200120704710B50C2200210248BA
:1056C000FEF756FE10BDC046BC1E0020F0B54B795B
:1056D00006000D0083B0032B0AD10879C400241AF8
:1056E0001234A4B2944203D8194F7B78002B03D014
:1056F0000024200003B0F0BD097869184B78212BF5
:10570000F6D1B9600B780200C9187B1C0193BB1C51
:10571000009330000323FFF7CDFD0028E8D0AB79DC
:10572000012B01D1EB79FB700123BB71AB78B97808
:105730003B70BB68DA791B7A1B021343BB800029DC
:10574000D7D040233000034AFFF716FED1E7C0460A
:10575000BC1E00207C1E00201F23F0B51400127810
:10576000050083B01340012B1BD1604E20793378A4
:10577000984216D1602318001040134208D0202808
:105780000FD163780B2B0CD8594A9B00D3589F46F6
:10579000012918D1E378A17862781B020B43062A0D
:1057A00002D0002003B0F0BD1B0A212B00D181E004
:1057B000222BF6D10020FDF73FF821000200B3882C
:1057C0002800FFF723FE0120ECE70129FBD1E17857
:1057D0000020F171FFF706FF0028E2D02100280029
:1057E000FFF7FEFD0120DDE701296DD00329EAD195
:1057F000E079A37900021843E278A178041C4028DC
:1058000000D940243B4BA4B2002907D0012805D978
:105810001878884202D1013C374BA4B20020009492
:10582000FDF71AF80120BDE70129D7D00329CAD115
:10583000A1780020B171FFF7D3FE0120B2E7012962
:10584000C1D1E379A0791B020343E278A178181C47
:10585000402B00D9402080B2002943D0012B41D9F0
:105860000126244F0138397080B27B1C0090002043
:10587000FCF7F0FF33189BB2002B00D191E73A0000
:1058800021002800FFF7C2FD01208BE701299AD1F2
:10589000012321002800194AFFF7B8FD012081E704
:1058A000012990D1012321002800154AFFF7AEFD00
:1058B000012077E7B268002A00D172E721002800B2
:1058C0001378FFF7A3FD6DE7E379A2791B02134379
:1058D000402B00D965E721002800064AFFF796FD16
:1058E00001205FE7034F00263B00BFE7BC1E0020FE
:1058F000D0760010FC1D0020FD1D0020C21E0020DF
:10590000C31E002070B51B4D0400A8786E7882B0CD
:10591000884204D000208E4215D002B070BD9BB2E8
:10592000864211D0144E002A17D100930021330073
:1059300000200232FCF790FF402332002000A978BB
:10594000FFF71AFDE9E79BB2002A0CD100201A00EC
:105950000A49FFF749FE0120DFE73200022100205B
:10596000FFF744FEE8E700200121044AFFF73EFE6E
:105970000120D2E7BC1E00207C1E00203C1E00201F
:1059800000B5030083B0002910D00020012B07D8F8
:105990000A78002A04D00B48C2540120012A01D001
:1059A00003B000BD1800FFF72BF8F9E7012301A9A8
:1059B00000200B80FFF724F80028F1D00122014BD2
:1059C0001A70EDE7C81E0020037870B5DB070400ED
:1059D0000E00DD0F002B17D103785B0701D52800DF
:1059E00070BD01213000494201F036FC2378DB070D
:1059F000DD0F002B0AD123785B0708D4042223781B
:105A000001251343237002E00025E8E7002530005C
:105A100001F002FCE3E7C046437902791B0213431D
:105A2000C2785B0592075B0D920F022A1DD0032AF4
:105A30000CD00020012A08D102394A425141124AB1
:105A40009446614499424041C0B2704702394A1EAF
:105A500091410E4A494211408022D20094460020D2
:105A6000614499424041C0B2EFE7022905D00020CD
:105A700040229A424041C0B2E7E7054A98184342A3
:105A80005841C0B2E1E7C046FF03000040FCFFFF01
:105A900000FEFFFF8A1870B5914207D27F264C782E
:105AA000052C04D00C7809198A42F8D870BD34004E
:105AB0008D782C4064000419ED0963550C780919A0
:105AC0008A42ECD8F2E7C04670B5040000690E00C7
:105AD000002803D00121494201F0BEFB25896089DD
