:020000041000EA
:1000000000B5324B212058609868022188439860DF
:10001000D860186158612E4B002199600221596106
:100020000121F02299502B49196001219960352056
:1000300000F044F80222904214D00621196600F024
:1000400034F8196E01211966002018661A6600F04E
:100050002CF8196E196E196E052000F02FF8012189
:100060000842F9D1002199601B49196000215960AB
:100070001A491B48016001219960EB211966A021F2
:10008000196600F012F800219960164914480160C1
:100090000121996001BC002800D000471248134993
:1000A000086003C880F30888084703B5996A0420EC
:1000B0000142FBD001200142F8D103BD02B5186610
:1000C0001866FFF7F2FF186E186E02BD00000240BE
:1000D000000000180000070000035F00212200005C
:1000E000F4000018222000A00001001008ED00E03C
:1000F00000000000000000000000000074B24E7A12
:1001000000200420F7010010CB010010CD010010E9
:10011000C9010010C9010010C9010010C901001077
:10012000C9010010C9010010C9010010CF01001061
:10013000C9010010C9010010D1010010D301001045
:10014000C1010010C1010010C1010010C101001067
:10015000C1010010C1010010C1010010C101001057
:10016000C1010010C1010010C1010010C101001047
:10017000C1010010C1010010C1010010C101001037
:10018000C1010010C1010010C1010010C101001027
:10019000C1010010C1010010C1010010C101001017
:1001A000C1010010C1010010C1010010C101001007
:1001B000C1010010C1010010C1010010C1010010F7
:1001C000EFF30580103800BE00BE00BE00BE00BECA
:1001D00000BE00BEF2EB8871F08900100C8A00109E
:1001E0003802001090A31AE71E481F49086006C88D
:1001F00081F3088810471D480068002801D019487D
:10020000F3E70DA40ECC002902D000F012F8F9E7B4
:100210001749184A002000E001C19142FCD116495B
:100220008847164988471649884700BEFDE701C937
:1002300001C29A42FBD370470C8A0010C000002014
:10024000B817002004A100100000042000000420C2
:1002500004A1001000100420001004200000000081
:10026000704700000000000008ED00E0000000D032
:10027000B81700202C2700201D560010F53900105B
:1002800015560010F8B5C0460448054B10B583421A
:1002900003D0044B002B00D0984710BDB8170020A6
:1002A000B81700200000000006480749091A8B1003
:1002B000C90FC91810B5491003D0044B002B00D04A
:1002C000984710BDB8170020B817002000000000A4
:1002D00010B5074C2378002B09D1FFF7D5FF054B4C
:1002E000002B02D0044800E000BF0123237010BDA2
:1002F000801A0020000000002C850010054B10B56E
:10030000002B03D00449054800E000BFFFF7CCFFF5
:1003100010BDC04600000000841A00202C8500108B
:10032000FF23F0B5D6464F4646469846033BFF3B73
:100330009A46C0B5224F7B88002B2FD04346DEB2B1
:100340000223740034195B4200259946E4B210E0A0
:10035000E243D2B2120422432900380007F014F815
:1003600001357B88013E033CADB2F6B2E4B2AB424C
:1003700014D9542EECD9A92E07D84B46621CD2B200
:100380001B1B1202DBB21A43E6E75346A21C1B1BDF
:10039000D2B2DBB212041B021A43DDE7380006F0CA
:1003A000CBFF142004F0CEF94346013B9BB29846A4
:1003B000044B9845BFD1E0BCBA46B146A846F0BD53
:1003C000481A0020FFFF0000F8B5DE4657464E46AB
:1003D0004546E0B507F080FA3E4E300006F068FD75
:1003E0003221300007F04AF8300006F0A5FF3A4B02
:1003F0009B4655239A465B461B68012B07D0022B70
:1004000052D0FFF78DFF5B461B68012BF7D1002709
:10041000718800293BD0FBB2984656235B420024EA
:100420000025994613E09A01D21A92009B18DBB27C
:100430005A1ED2B25B421204DBB21A4329003000CA
:1004400006F0A2FF01347188A5B2A9421FD920028B
:1004500004F010FD4044C0B2C343DBB2542BE2D9D8
:10046000A92B09D84B46181A4300C018C0B2020283
:10047000C043C0B20243E1E75346181A4300C01814
:10048000C0B2C243D2B2120200040243D6E7300027
:1004900006F052FF142004F055F9A0230137BFB233
:1004A000DB009F42B4D1A6E773880024002BA2D0C2
:1004B00021000A4A300006F067FF300006F03CFFDA
:1004C000322004F03FF901347388A4B2A342EFD87C
:1004D00091E7C046481A0020942500207F7F7F00C6
:1004E000D0231B0658684006C00F70470A4B802275
:1004F0001B68012B08D0D200D0231B06586810407F
:10050000431E9841C0B27047044B80221B68012BE8
:10051000F1D81201F0E7C046A8110020AC1100206C
:10052000D0231B065B6800205B060BD4084A094BEE
:1005300012781B68002A01D1012B07D00120012B62
:1005400001DDC0B270470020C0B2FBE70120F9E72F
:1005500021270020B0110020114B80221B68012BA5
:1005600017D0D200D0231B065B6800201A420FD19F
:100570000C4B1A78002A02D05B68002B08D10A4B7A
:1005800001201A78002A03D0586843425841C0B26B
:100590007047064B80221B68012BE2D81201E1E76D
:1005A000A81100206C11002060110020AC11002067
:1005B000264B1B68012B08D0D0221206002B14D129
:1005C000536801201B0430D57047D022204B1206FF
:1005D0001B68012B2FD0536801201B01F4D480230A
:1005E00052685B051A4210D009E0536801201B01D4
:1005F000EAD45168802252051300114205D0D0225E
:100600001206526801205201DED4D022120652682E
:10061000134205D1D0231B065B6801205B01D3D5B3
:100620000C4B187801235840CEE7802351681B05F6
:100630001942ECD0E3E7536801201B04C4D48023A3
:1006400052681B051A42DAD1DFE7C046A811002024
:10065000AC1100201E2700204B4B10B51878002845
:100660002AD04A4B1878002826D0494B00201B6816
:10067000DA179B185340474A126893421CDB464BDB
:100680001B68012B38D0002B17D1D02212065168DD
:10069000090411D48021546809050C4200D06BE094
:1006A0005268520116D58023DB01D022120652680F
:1006B00013405A1E9341D8B210BDD024240662685C
:1006C0001201F9D48021626849050A4202D16268A8
:1006D00052012ED4D0221206506801423CD05268FA
:1006E000520139D45A4253412C4A5B421340802272
:1006F000920594466344D8E7294B1B68012B1BD015
:10070000002B2BD1D022120653681B01D4D453687E
:10071000DB0004D4D0231B065B685B0109D4D02323
:100720001B065B68DB0017D5D0231B065B685B01EB
:1007300012D480239B05B8E7D022120653681B040D
:10074000BAD453681B0102D453685B01F1D4D0239F
:100750001B065B681B01E7D40020ADE7D02109062A
:100760004A681201A8D480224C6852051442D1D0A4
:1007700049681142A0D0D7E753680B429CD0536818
:100780005B0199D48FE7C046212700201E27002057
:100790001427002018270020A8110020004000E0A6
:1007A000AC1100203E4B1B68012B26D0D022120634
:1007B000002B4CD1536801201B011DD453685B01F1
:1007C0001AD453681B0417D45368DB0014D5D02205
:1007D000120653680120DB040ED55368DB050BD5E8
:1007E00053689B0508D580231B01D022120652684E
:1007F00013405A425341D8B270472A4B1B68012B11
:1008000033D0D02109064A680120D200F4D44A68C6
:100810005201F1D44A681201EED44A681204EBD5B1
:10082000D02109064A680120D204E5D54A68D205DC
:10083000E2D54A689205DFD55A425341E0225B4235
:10084000920113408022120194466344CDE753681D
:100850000120DB00D0D453685B01CDD453681B0169
:10086000CAD453681B04C7D5B1E7D0221206536817
:1008700001201B01C0D453685B01BDD453681B0425
:10088000BAD453685B05B7D55368DB04B4D5536855
:10089000DB05B1D553689B05AED58023DB01A4E70A
:1008A000A8110020AC110020484B00B51B68012B9B
:1008B00037D0D02109064A68002B3DD1120139D426
:1008C0004A68520136D44A68120433D44A68D200C6
:1008D00030D5D02109064A68D2042BD54A680020B9
:1008E000D20528D54A68920525D54A68120522D531
:1008F0005A425341364A5B42134080229205944645
:100900006344D022120652680020134213D0314BA8
:100910001B68DA179B1853400122012B4FDDD0B220
:1009200009E02D4B1B68012B2CD0D02109064A6809
:10093000D2000DD5002000BDD200FBD44A68520180
:10094000F8D44A681201F5D44A681204C1D4F1E718
:100950004A685201EED44A681201EBD44A68120484
:10096000E8D5D02109064A68D204E3D54A68D20501
:10097000E0D54A689205DDD5002B23D14B685B0496
:100980001AD4D7E7D022120653681B01D2D4536879
:100990005B01CFD453681B04CCD453685B05C9D525
:1009A0005368DB04C6D55368DB05C3D553689B0584
:1009B000C0D553685B04BDD580239B05A1E7021C0D
:1009C000D0B2B8E74B681B05F6D4B3E7A8110020F6
:1009D000004000E018270020AC110020F0B50028EE
:1009E00002D0012048400021002A03D001225A40B1
:1009F0000023D2B27C4C80252668012E47D0ED0022
:100A0000D02424066468254201D0002A71D1002533
:100A10000F27764CE57125726572A572744DA7702B
:100A20002D68002E22D1734E3778002F36D076688D
:100A3000002E33DDD0231B06002D00DC77E05B6841
:100A40001B0600D471E00023002200210020D025E5
:100A50002D066D682D065ED50025002A00D185E0A3
:100A60006571002800D16CE0002356E0002D4DDDBB
:100A7000012E54D1D0228023120651680B4245D159
:100A80005268134247D080236371802345E05A4C5B
:100A900080252468012CB2D82D01B1E7574E377854
:100AA000002F03D07668013E012EC3D9544E37780B
:100AB000002F03D07668013E122EBBD9514E3778F5
:100AC000002F03D07668013E102EB3D9002DBEDD75
:100AD000D0268025360677683D42B8D0002A34D02B
:100AE000002847D100295AD073681D4213D0002531
:100AF000B6E7002B8BD0002832D000294AD0FF2542
:100B00000127002300220021002082E7D0231B06BA
:100B10005B681B0611D480236371A371F0BDD023E1
:100B20001B065B681B0600D58DE7D0231B065A68A1
:100B300080231342EFD06371A7E7002100208025B6
:100B40008EE7FF230029E8D19FE7002B19D1002869
:100B500036D1002934D173682B42DCD080257FE761
:100B60001A0054E773681D42D5D00300002BE6D06D
:100B7000FF2575E773681D42CDD000236371002304
:100B8000CBE70028EED1002917D073681D42C2D0F0
:100B90000B00EBE70300020000250F2739E7617126
:100BA000D022120651684923C900B6D553683522B0
:100BB0001B04DB179343B633AFE7FF236371EFE703
:100BC000D0221206556849232D0105D553683522D8
:100BD0005B01DB179343B6336371002300289CD17C
:100BE000FF33002999D1DBE7A8110020E825002078
:100BF000B01100209C110020AC11002090110020A9
:100C00006C11002060110020F0B5DE4657464E46BC
:100C10004546E0B5704B83B09B461B68012B00D165
:100C2000C2E2D0231B065A68520500D5A7E06B4EDE
:100C30003378002B00D1F4E2694973688A46097859
:100C4000B268002903D0934201DA01337360934202
:100C500000D13BE3634F3B78002B00D1EFE25146DC
:100C600009787B68BA68002903D09A4201DD013314
:100C70007B60934200D132E35B4B98461B78002B9C
:100C800000D1EAE251464346424609785B689268E1
:100C9000002904D09A4202DD414601334B60934261
:100CA00000D125E3514D2B78002B00D1E3E25146D2
:100CB00009786B68AA68002903D0934201DA0133EE
:100CC0006B60934200D1F8E2494B99461B78002BA8
:100CD00036D04A465268002A00D15EE1D0218022F7
:100CE00009064868024200D02DE349680A4201D053
:100CF00000F0A6FD3F4C404A1178002904D00021A5
:100D000011703E4A0131117052461278002A01D109
:100D100000F0F0FC002B01D100F04FFD4A4649469F
:100D2000526889688A4201DA00F005FD002A01D183
:100D300000F008FD262A01D100F0EAFB012022E3A1
:100D40002C4C2278002A5DD06268002A00D1E3E2B0
:100D5000D02212065268120604D5274A11780029BB
:100D600000D1D7E22278002A4CD06268002A00D154
:100D7000D2E2D022120652681206C5D4BBE75A68E6
:100D8000D20400D553E75A68D20500D54FE75A6818
:100D9000920500D54BE75A68120500D547E75A6817
:100DA000120601D501F09FF80122154B1A60D022DE
:100DB000120653685B0601D401F017F853685B070D
:100DC00000D42AE2D0231B065A680223134200D023
:100DD0002DE75A4613602AE7A81100209C11002035
:100DE0002727002090110020841100207811002076
:100DF0006C110020601100201F2700201C270020FC
:100E0000B011002052461078CA4A1168002900D05B
:100E100078E2D0210906496809060DD4C649097847
:100E2000002905D0C5490968012901D100F09AFDC2
:100E3000002B01D000F09EFD2378002B00D023E290
:100E4000BC4A002301931368002B00D1C1E0122B90
:100E500000D1BEE03378002B10D07368013B012B2A
:100E60000CD85B461B68002B00D10AE3B34B1B6810
:100E7000012B03D18022B24BDA701A713B78002B20
:100E80000DD07B68013B012B09D80120AC4A1388A7
:100E900003431380A94B1B68012B00D1F7E22B7889
:100EA000002B07D06B68012B01D100F0BCFC022B9A
:100EB00000D194E343461B78002B0BD043465B687C
:100EC000002B07DD022B00DDB6E080229C4BDA70A0
:100ED0007F321A71019B002B00D1BFE04B465E6848
:100EE000002E00DCBAE0032E00DDE2E04022944D4B
:100EF0002B8813432B805B461F68012F01D100F024
:100F0000D2FC0123D021180009064A68920E9043B2
:100F1000002F01D000F0DDFE4A68D20E9343C01AC4
:100F200004F02AF8874B1B78002B01D100F032FD2A
:100F3000854B1A685B6804F012F80022834B03F0BB
:100F4000EFFF04F055F8C0B2E870002F01D000F0B8
:100F5000D7FE80235B05D022120651680B40591E34
:100F60008B41DB012B71032E78D153685B0101D4D7
:100F700000F005FF5368002F01D001F0A0F81B011D
:100F80006CD4D0231B065A68120467D55B68DB005B
:100F900064D58023DB0100F0D5FC6D4C2278002A5B
:100FA00000D126E26268002A00D1DEE1D0221206DA
:100FB0005268120600D4CCE1664A1178002900D0AC
:100FC000C7E10131117052461278002A00D0A5E61F
:100FD000D0E10022D02000064368DB0417D5436827
:100FE000DB0514D54020D02301001B065B681940A7
:100FF00018420CD1504B1B78002B08D04F4B1B686C
:10100000012B04D123706360534B197022E7002A2F
:1010100000D11FE76368242B00D01BE7D0231B06F9
:101020005B685B0600D446E200234B4A23701370D2
:101030004A4A636013700DE7042B00DC15E2052BB0
:1010400000D047E7464B3E4A1B68DB43DB17D370B3
:1010500080231371019B002B00D03FE72378002BE6
:1010600060D06368002B5DDD072B00DD7CE0402253
:10107000334D2B8813432B805B461B68012B01D11A
:1010800000F002FCD02212065268520100D402E2A3
:101090005A4253418022520594465B42DB0EDB06E6
:1010A0006344D0221206526813405A1E9341DB015A
:1010B000F2E10D2E00DDCCE15B461E68012E01D170
:1010C00000F061FD0123D021180009064A68920E44
:1010D0009043002E01D000F0DDFC4A68D20E93430D
:1010E000C01A03F049FF174B1B78002B01D000F00A
:1010F000A9FD00221B4B03F032FF0022134B03F02B
:101100000FFF03F075FF0E4DE87080235B05D022C2
:101110001206526813405A1E9341DB012B7123784B
:10112000002B9ED103B0F0BCBB46B246A946A046F8
:10113000F0BDC0467421002021270020B0110020FE
:10114000E8250020222700205011002000006040E8
:10115000601100201F270020202700201D270020CD
:101160001427002000C05F400A2B00DD65E15B46CC
:101170001B68012B01D100F038FDD0221206526805
:10118000520100D48CE15A425341802252059446C8
:101190005B42DB0EDB066344D0221206526813402A
:1011A0005A1E9341DB017CE1D022CC4B12061B6816
:1011B000012B00D116E35268002B00D1A6E05205A6
:1011C00000D434E5D02109064A68D20400D52EE5C2
:1011D0004A68D20500D52AE54A68920500D526E579
:1011E000002B01D000F078FE4B685B0400D51EE5B3
:1011F000D0231B065A68120601D500F054FF0122C5
:10120000B74B1A60D0231B065A68520601D400F06F
:10121000ECFD5B685B0700D5D4E501235A461360FB
:1012200005E5FFF799F9002802D0012333707360B8
:10123000AC4BAD4F9A463B78002B00D00FE5FFF743
:101240006FF9002800D117E501233B707B60A74BA5
:1012500098461B78002B00D014E5FFF7FDF9002815
:1012600000D11FE501234246A14D137053602B7836
:10127000002B00D01BE5FFF717FB002800D123E56A
:1012800001232B706B601FE56368002B00D0C5E065
:101290000193002855D00023A2689A4201DD013352
:1012A0006360002B00D0B6E6924B1B68002B02D087
:1012B000122B00D0CEE501228CE6FFF773FA00284E
:1012C00000D101E500232B706B60FDE4FFF70EF900
:1012D000002800D1BEE4002333707360BAE4FFF746
:1012E000FFF8002800D1C7E400233B707B60C3E413
:1012F000FFF75EF9002800D1D4E4002342461370C2
:101300005360CFE4122900D096E582E5120500D59E
:1013100058E78CE40121117052461278002A00D05F
:101320004BE2744A1168002900D140E3122900D130
:101330003DE32378002B00D183E56368002B6CD15B
:1013400001936368ADE76C4A1178002900D17FE210
:101350006A4C4A465268002A01D100F067FCD0224C
:1013600012065268120600D4C5E452461278002ACA
:1013700000D0D3E44A465268002A00D1C2E1262AAE
:1013800000D1EDE200204B465A68262A00D1C9E080
:101390002378002A06D1002B00D1C1E16268002A1F
:1013A00000D175E7D02212065268520601D500F02E
:1013B0001FFF4A46012152680191002A00D190E1A5
:1013C0004021D0228C461206526811408A4661465E
:1013D000114208D14A4A1178002904D051461170AF
:1013E000484A01211170002860D0002B61D0636849
:1013F00052E752461078002800D096E13D4A116825
:10140000002900D0D6E2D02109064968090600D497
:1014100004E5002B00D10FE5ACE20020D0231B0631
:101420005B685B0601D400F023FC354A1378019316
:10143000002B00D053E10133D3E70D2B00DD86E014
:101440004221314B1A880A431A808022DA701A71BD
:1014500068E60F2E00DDA1E002212B4B1A880A431B
:101460001A808022DA701A71F8E5284BB4221B68C2
:10147000DB43DB171340244A2633D370DA2313717E
:1014800028E50420204A138803431380EEE47F33C9
:10149000D370137103E5FF23EB7080232B7141E6BA
:1014A000FF23194AD370802313713BE6002B00D031
:1014B00047E7104AC7E40F4B1B68002B02D0122BE2
:1014C00000D0C7E40F4B1A78002A00D1C2E40122F1
:1014D000002062600A4A18701070BBE4AC11002052
:1014E000B011002027270020901100208411002037
:1014F00078110020742100201F2700206011002097
:10150000202700201D270020E82500201427002088
:101510000120D02212065268120600D50BE3002BE0
:1015200000D189E4CF4A1368002B03D0122B01D0DD
:10153000237837E7CC4B1A78002AF9D001224946A4
:101540004A600021C94A1970117023782AE7122BCA
:101550005ADC5B461B68012B00D18CE3D0210906C5
:101560004A68520100D58AE2B922C14DEA70002BC7
:1015700000D000E3D0231B065B68DB0000D4F3E25D
:1015800080231B02D0221206526813405A1E934138
:101590007E225B429343FF332B71C3E5142E70DC34
:1015A0005B461B68012B00D18CE2D02109064A68FA
:1015B00052010BD5002B01D000F0E2FC4B68AC4D82
:1015C0001B0100D5D9E03223EB709EE5A84DCD225A
:1015D000EA70002B00D198E580231B0297E5A54A0D
:1015E000A54B12781B68002A00D123E1A34A127888
:1015F000002A00D0C5E1DA22002B00DDB43ADA235C
:101600009B4DEA702B7155E4172B00DDB8E05B466B
:101610001B68012B00D1DBE1D0221206516849057D
:1016200000D589E30620924D52682988014329801C
:10163000520101D400F0FEFBD0221206002B01D093
:1016400000F077FD8021536809050B4059424B415A
:101650004D215B428B438033EB7053685B0105D5B2
:10166000D0231B065B681B0100D57DE280235B0550
:10167000D0221206526813405A1E9341DB012B718F
:1016800050E5192E60DC5B461B68012B00D1CBE1D5
:10169000D02212065168490500D535E30620744D65
:1016A0005268298801432980520100D4A2E3D02244
:1016B0001206002B01D000F067FD53681B01DB0F01
:1016C000DB01EB7053685B0100D41EE5D0231B06E1
:1016D0005B681B0100D418E500232B711FE5002275
:1016E0000192002B00D1E4E66368002B00D1D0E525
:1016F000012365E6002B00D113E64A465268002A12
:1017000000D03CE60020574A1168002900D17AE653
:10171000122900D177E6002B00D034E6FFF78CFBCE
:101720000123504A0193FFF78EFB4A469268002A34
:1017300000DC43E10022494601324A60002A01D020
:10174000FFF7F8FA0120DEE7252E00DD86E45B4690
:101750001B68012B00D1B5E1D0221206526852015C
:1017600000D433E7002B01D000F06AFCD0231B0625
:101770005B683F4D1B0100D425E78023EB70C4E478
:10178000232B00DDCEE45B461B68012B00D1A9E1D1
:10179000D02212065268520100D480E2002B01D000
:1017A00000F045FCD0231B065B68314D1B0101D4C2
:1017B00000F053FC8023EB7058E72A4A1168002997
:1017C0000DD012290BD02078002801D1FFF739FB6A
:1017D0006368002B00D021E6002201925CE5012025
:1017E000FFF717FB5168090501D4FFF720FA51688C
:1017F000C90401D5FFF71BFA5168C90501D5FFF7E8
:1018000016FA5168890501D5FFF711FA51684904A4
:1018100001D5FFF70CFA5168090601D500F0D7FC95
:10182000174A1360EEE48022114BDA707F321A718E
:10183000FFF740FB2622002B00DDE0E6B432DEE6B7
:10184000524612780F4C002A01D0FFF767FA91E553
:1018500001211170524612780A4C002A01D0FFF77C
:101860005DFA87E5742100201C2700201F27002037
:10187000E825002021270020142700201E27002013
:10188000B011002060110020DF4B1B68012B00D13C
:1018900041E1D0231B065B685B0100D4FBE580239C
:1018A0005B05FFF7FEFBD84B98461B68012B00D168
:1018B00028E1D0231B065B689B0E9F4380235B05BA
:1018C000D0221206526813405A425341F81A03F0CC
:1018D00053FBCE4B1B78002B00D1C6E1CC4B1A68D2
:1018E0005B6803F03CFB0022CA4B03F019FB03F0DA
:1018F0007FFB43461A68C0B2E870012A00D148E273
:10190000D02109064B681B04DB0FDB012B71032E72
:1019100001D0FFF7A3FB4B685B0100D57FE3002AF2
:1019200000D0A8E3D0231B065B681B0101D4FFF79E
:1019300095FBD0231B065B681B0401D4FFF78EFBCD
:1019400080239B05D02212065268134201D1FFF773
:1019500085FB01234A46137006335360FFF77EFB75
:101960000020D6E54B46002219705960AA4B1A7028
:10197000237817E54B465B68262B00D1D5E01A008B
:1019800006E55A1EA54D1343DB17EB7080232B7120
:10199000FFF790FA0022A24B03F0E1FA00229D4BE0
:1019A00003F0BEFA03F024FBE870FFF7D2FA002040
:1019B000FFF72FFA122900D0E4E424E5994A1168D0
:1019C000002900D11FE5122900D11CE50120DAE42D
:1019D0008D4B98461B68012B00D1E9E2D0221206FC
:1019E0005268002B00D05CE2120500D55CE20621B3
:1019F0008A4D2A880A432A80D0221206516849015A
:101A000000D44DE35268D20000D4AAE38022EA70E9
:101A1000D02212065168490103D55368DB0000D576
:101A2000A2E080231B0223E6774B98461A68D02356
:101A30001B065B68012A00D185E2002A00D016E26D
:101A40001B0500D516E20621744D2B880B432B8015
:101A5000D0231B065968490100D402E35B68DB0010
:101A6000DB0FDB01EB70D0231B065968490100D462
:101A7000B2E55B68DB0000D4AEE500232DE6002B69
:101A800000D058E24B68654D1B0100D437E280233B
:101A9000EB706FE54A68120F9343C01A03F06CFABB
:101AA0005A4B1B78002B00D0CCE000225C4B03F09B
:101AB00056FA0022574B03F033FA03F099FA574DC8
:101AC000E87089E5504B98461B68012B00D182E1F4
:101AD000D022120653685B0100D5E7E04F4DCD23BD
:101AE000EB7079E5484B98461B68012B00D18CE2DE
:101AF000D022120653685B0100D504E2CD23474D86
:101B0000EB708EE7D02212065268920E93431F00AC
:101B100080231B05D4E6D0231B065B685B0100D441
:101B2000B9E480231B05FFF7BCFAD0231B065B68D2
:101B30001B0600D4F7E40023374A13703A4A1370A7
:101B40004A4613705360FFF777F9D0231B065A6893
:101B5000520100D5B8E2B923304DEB70D0231B06FB
:101B60005B685B0500D50BE500232B71FFF7DAFA04
:101B7000B9222A4DEA70D0231B065B681B04F3D5FB
:101B800080231B05FEE4204B98461B68012B00D1E7
:101B900064E1D0231B065B689B0E9E4380235B059C
:101BA000D0221206526813405A425341F01A03F0F1
:101BB000E3F9164B1B78002B00D187E0144B1A6811
:101BC0005B6803F0CCF9134B002203F0A9F903F092
:101BD0000FFA4346114D1B68C0B2E870012B00D0CC
:101BE000FAE48023DB00FFF792FA074B1B68012B16
:101BF00000D114E1D0231B065B685B0100D44FE4E5
:101C000080235B05FFF7C8FAAC11002022270020D3
:101C100050110020000060401F270020E825002010
:101C200000C05F40742100201C2700202278002A79
:101C300001D1FFF7DEFB6268002A01D0FFF799F8B7
:101C4000FFF793FBD34B1A685B6803F088F9002217
:101C5000D14B03F065F903F0CBF9D04DC0B2E87079
:101C6000002E01D1FFF751FAB6E40022CC4B38E642
:101C70000023019338E5CB4B98461B68012B00D11C
:101C800063E7D02109064A68520100D470E74A6828
:101C9000D20000D546E14622C04DEA706BE7CD2266
:101CA000BE4DEA70002B00D1E0E4BAE65368DB00D9
:101CB00003D4BA4D3223EB708EE4B84D8023EB7021
:101CC00043461B68012B00D086E48AE70022B44B10
:101CD00077E74A68120F9343C01A03F04DF9B24BED
:101CE0001B78002B01D0FFF723F90022AC4B03F047
:101CF00036F90022A84B03F013F903F079F9E870E4
:101D000080231B02FFF727F9526892052CD400218B
:101D1000A24D8022A971D0216A710906486840014C
:101D200000D454E4002B00D039E24B681B0100D4EE
:101D300049E4EA70FFF7E9F9526892051BD40021E3
:101D4000964D8022A971D0216A7109064868400128
:101D500000D47BE1002B00D030E24B681B0100D4A3
:101D6000CDE0EA70FFF706FC01234A4613702533E5
:101D70005360FFF773F924236360FFF7D3F9002F53
:101D800001D1FFF7FEF853681B0100D5D1E5FFF73D
:101D900065F9D0231B065968890A0A40D2012A71C5
:101DA000032E01D0FFF75AF95A68520104D55B6837
:101DB0001B0101D5FFF752F9D0231B065B681B04FA
:101DC00001D4FFF74BF9D0231B065B685B0500D5F8
:101DD000B6E5FFF743F9D0231B065A68520100D538
:101DE00007E16E4DCD23EB70FBE600235A461360EE
:101DF000FEF71DFFFF22EA70D02212065268520140
:101E000001D4FFF7E6FB002B00D15FE4D0231B06D3
:101E10005B68DB0001D4FFF7DFFB00235DE4D02328
:101E20001B065B685B0101D4FFF73AFB80231B05AF
:101E3000FFF7B2F9CD22EA70D022120652685201A1
:101E400000D42FE7002B01D1FFF70AFCD0231B069B
:101E50005B68DB0000D4E4E5002386E6D0221206AE
:101E60005268920E93431E0080231B0598E65B0583
:101E700000D4E8E5D0231B065968802208009200B0
:101E80001040114200D06FE78022444D6A71A87162
:101E90005A68520100D422E65B68DB0000D50DE7EA
:101EA00008E7520500D4A2E5D0221206506880212E
:101EB000060089000E40084200D05CE78021374DC3
:101EC0006971AE715068400100D452E15268D2008D
:101ED00000D46BE1E9704EE64B681B0501D4FFF7B7
:101EE00087F9FEF7A4FE202211005B6819401A4210
:101EF00001D0FEF75CFF2D4B1960FEF758FF46231B
:101F0000EB70FFF737FB5368DB007AD43223234DA5
:101F1000EB7043461B68012B00D082E58023DB0079
:101F2000FFF7A6FB80231D4DEB7043461B68012B7A
:101F300000D113E61FE64B68184DDB0000D592E098
:101F40004623EB7017E61B0500D5DBE00622134D98
:101F50002B8813432B80D0231B065A68520100D5CF
:101F60003EE1FF23EB70D0231B065A68520100D4D8
:101F700037E65B681B0100D433E60023FFF7ADFBB7
:101F80004B68DB0000D494E68023044DEB70FFF730
:101F900023FBC0465011002000006040E8250020CF
:101FA00000C05F40AC11002022270020B0110020AB
:101FB000D0231B065B681B0500D58DE00622914DE2
:101FC0002B8813432B80D0231B065A68520100D460
:101FD000FAE05B681B0100D4C3E08023EB70D023E0
:101FE0001B065A68520199D55B681B0196D50023E0
:101FF000BBE55B681B0100D55FE6824D3223EB70C9
:10200000EFE580237F4DEB700BE5D0231B065A686C
:10201000520100D59DE0CD237A4DEB707EE7002A7A
:1020200024D14B68DB0000D47CE4FFF717F8D02301
:102030001B065B68DB00E4D43223724DEB70F0E4E6
:10204000D0231B065B68DB009ED432E6B922EA701F
:10205000002B01D1FFF78EFA8DE53223EB70FFF7ED
:1020600005FBFF23FEE48023EB7084E54B68DB0077
:1020700001D5FEF7F3FFD0231B065A68120101D4E5
:10208000FEF7ECFF42461268012A00D19BE6002AC7
:1020900000D14EE45B681B0401D4FEF7DFFF4FE480
:1020A000CD22EA70B4E4202211005B6819401A4284
:1020B00001D0FFF7A7F8544B1960FFF7A3F8DB0036
:1020C00000D460E6FEF7CAFF5B681B0100D529E774
:1020D00046234C4DEB7041E5D0231B065968802206
:1020E000080092001040114200D044E68022454D85
:1020F0006A71A8715968490177D55B681B0155D58C
:10210000EA702BE5D0231B06596880220800920054
:102110001040114200D027E680223A4D6A71A87122
:102120005A68520100D45DE65B681B0100D5C5E525
:1021300064E78021536849050B4059424B414D21CA
:102140005B428B438033EB7053685B0100D57DE6C7
:1021500067E45B681B0100D4D8E68023294DEB704F
:10216000DCE63223EB7043461B68012B00D136E7D7
:102170004EE4B921E970002B00D1FCE453681B0444
:1021800000D5FDE40023F0E45368DB00DB0FDB0146
:10219000EB7053685B0100D538E6FFF71DFA4B681A
:1021A000DB0000D486E5EA70FFF716FA4623EB70F1
:1021B00043461B68012B00D0DDE4CFE44B68DB0015
:1021C00000D4BDE6EA70D6E4CD23EB7007E7536890
:1021D0002022110019401A4200D16CE7FFF712F8D3
:1021E0005B681B01DB0FDB01BCE6B923EB70B5E4D8
:1021F000064A1178002901D0FFF7DBF8013101917F
:10220000FFF7EFF8E8250020B0110020202700207C
:10221000F0B54E46DE4657464546E0B58FB00593CD
:10222000C94B0A901B680D9199460092012B00D171
:102230007BE2002B00D041E10126D02331001B06B8
:102240005A68120F9143884631005A685B68D20B76
:1022500091438B46DB0E9E430122D02341461B0651
:1022600051405B680291B9490A780692002A00D170
:1022700094E14A68013A012A00D98FE1B44B9A46A9
:102280001B680C930023002700269B4698460020DD
:10229000B04A00231370B04A1370B04A0B92127800
:1022A00004924A46002A00D1C1E1012A00D1C3E1CB
:1022B000B424B422F3191D000193029B64003B4037
:1022C00071425B4223400A409A18434659425A23BE
:1022D0000B40D3185A4650428722454452001040C2
:1022E0005D441818290002F0C5FD210002F0C2FD6E
:1022F0000C005A21200002F0BDFD0290B81B02F034
:102300003BFE5B46424606900791981A02F034FE67
:1023100008900991009B002B03D1059B002B00D155
:1023200082E28F4B1B78002B00D1EDE18D4B1A68B8
:102330005B6802920393200002F01EFE8A4A8B4BD8
:1023400002F00DFE00228A4B02F0EFFD06000F00A6
:1023500002F068FE069A079B04000D00029803999C
:1023600002F0FDFD069407952200079C64006308B7
:1023700002F0F5FD00227F4B02F0D2FD02F014FEC8
:1023800039000690300002F05FFE089A099B0E00AB
:10239000050002980399740002F0E1FD2A00630829
:1023A00002F0DDFD0022734B02F0BAFD02F0FCFDED
:1023B000714B1B78002B51D0704B1B78002B43D0F6
:1023C0006F4B1B68DA179B1853406E4A1268934292
:1023D00004DA5B46012B01D100F0EAFB009B002BE5
:1023E00000D07CE0059B002B00D078E00A9B002BFE
:1023F00000D074E00D9B002B00D070E0554A13789C
:10240000002B03D0604B1B78002B1DD14B46012BBA
:1024100001D100F076FCD02380211B065A68C90444
:102420000A4201D000F0F5FB5B680B420CD14B4631
:10243000002B01D000F0FCFCD0231B065B681B01C5
:1024400002D5D0231B065B68D0231B065B681B07E5
:102450004FD5D0231B065B68DB074AD5019B9C4602
:10246000E044049B002B03D00B9B5B68002B1AD12C
:10247000464B1A78002A02D05B68002B13D1444BDC
:102480001A78002A03D05B68002B00D0F0E1414BA2
:102490001A78002A03D05B68002B00D0ECE13E4B99
:1024A000069A1871DA705B465246434413600FB0C7
:1024B000F0BCBB46B246A946A046F0BD0126D023DB
:1024C00031001B065A68D20B9143884631005A6886
:1024D0005B68D20E91431B0F8B469E43BCE61E4B9E
:1024E0001B78002B00D089E7D0231B065B681B07F5
:1024F000AFD4009B002B22D1059B002B1FD10A9B40
:10250000002B1CD10D9B002B19D15B46012BA5D1B3
:10251000019B002BA5D04A46012AA0D1D0231B063F
:102520005B689B009AD5069B802B01DC00F0C1FC08
:10253000019B80209C46FF23E044069391E7064BD5
:102540001B78002BE1D189E7A81100209C11002005
:10255000D42500202A2700202927002078110020D8
:102560002227002050110020182D4454FB2109403F
:102570000080664000006040212700201E270020C8
:1025800014270020182700202B270020841100206A
:102590006C11002060110020E8250020DB4A107833
:1025A000002804D05268013A012A00D866E60125C5
:1025B0002F009B0E9F43D64BB8191A689A46434684
:1025C0001B180C925B44002A00D0A2E0002B00D123
:1025D00058E6D04A14780194009C002C0ED1059C3A
:1025E000002C0BD10A9C002C08D10D9C002C05D18D
:1025F000019C002C00D050E615704EE6C64C2578A4
:102600000495002D00D03BE1250001242C70049D91
:10261000C24C2560C24C2560C24C2560C24C25606E
:10262000019C002C00D038E60134147035E64C468D
:10263000BE4A1460BE4A1460042B00D18BE04246AF
:102640005A44022800D1B6E1B548BB1B0360F0191B
:102650000190022A00D134E1B6480578002D08D156
:102660000498002800D16FE10B984068002800D141
:102670006AE1AD48DC17844600681818E31A634025
:1026800003406046036040465B461B1A18000893EF
:10269000A24B1860F319022B00D0AAE101270126F2
:1026A000012A00D188E0B424B422F3191D0001935B
:1026B000029B64003B4071425B4223400A409A18EF
:1026C000434659425A230B40D3185A465042872258
:1026D0004544520010405D441818290002F0CAFB1E
:1026E000210002F0C7FB0C005A21200002F0C2FBBF
:1026F0000290B81B02F040FC06900791089802F087
:102700003BFC0890099105E600228B4B0292039353
:1027100011E69A4200D1C0E57E4A1478002C00D11F
:102720001570002B00D1B4E5B7E5844B1B68012B75
:1027300000D1ACE1D02349461B065A684E46D20B65
:102740009143884649465A685B68D20E91431B0FF5
:102750008B469E4380E5744B1A68D317D2185A40B3
:10276000704B1B68D9175B184B409A4200DC8EE017
:102770006B4B1B680193012B00D1B1E200230024B5
:102780000893099400236E4C0125069307940023B7
:10279000029301330193002300249B469846B9E538
:1027A000002A00DBC2E1019B012B00D10CE30123D5
:1027B0009B46089300239846009B002B00D078E1AD
:1027C000059B002B00D074E1B424B422F3191D0042
:1027D0000193029B64003B4071425B4223400A40EC
:1027E0009A18434659425A230B40D3185A4650422E
:1027F00087224544520010405D441818290002F019
:1028000039FB210002F036FB0C005A21200002F0B7
:1028100031FB0290B81B02F0AFFB069007910898BD
:1028200002F0AAFB089009910A9B002B00D078E5E2
:102830000D9B002B00D074E5022D00D071E54B46B6
:10284000002B00D06DE5029901330A001A400B42BB
:1028500001D1012252424346012B00D136E35B46AF
:10286000012B00D05DE5374B1B685343E41858E556
:10287000262B00D017E60AE6242B00D013E60EE63E
:10288000019C002C00D008E50125157005E5234BBF
:102890001B689846012B00D1E4E10023284C012558
:1028A00008930994002300240693079403230293BA
:1028B00000230193013387249B460023640098463C
:1028C00028E5184B19491A680968914200DB67E747
:1028D00015498C46614609688B46002900D18BE179
:1028E0000800C9174018484011490968884200DCAF
:1028F00056E7019B012B00D1CCE201235B420893F8
:1029000000239B460133984656E7C04690110020AD
:10291000D42500202A27002029270020E425002094
:10292000E02500201827002014270020481100204F
:102930004C1100202727002000C05F40AC11002070
:102940000000F03F58110020CE480478002C03D03E
:102950004068002800D08CE60698002800D068E186
:10296000C9480478002C03D04068002800D080E6D5
:10297000C6480478002C03D04068002800D078E6D0
:10298000C3480478002C03D04068002800D070E6CB
:10299000C0480068002802D0122800D069E64046EE
:1029A0005B461B1A18000893BB4B1860F319022BE7
:1029B00000D173E61FE00020B84B1860B848844689
:1029C0000568B8480068854200DDD5E0404201272F
:1029D000854200DB002700260197022A00D1B6E1DC
:1029E00040465B461B1A18000893AB4B1860AE4B71
:1029F0001D78002D06D1049B002B21D00B9B5B681A
:102A0000002B1DD0089BA5489C460168DC17E31AE3
:102A1000614463400B400360019B012B00D03FE603
:102A20000A9B002B00D1ACE04B46002B00D03AE6CD
:102A3000012E00D1BEE1012F00D109E1019743E051
:102A4000904B1878002802D05B68002BDAD1069BE7
:102A5000002B00D0F2E08C4B1978002902D05B6883
:102A6000002BCFD1894B1978002902D05B68002B4D
:102A7000C8D1874B1978002902D05B68002BC1D1DF
:102A8000844B1B68002BC7D0122BBBD1C4E7D023CB
:102A900049461B065A684E46920A91438846494663
:102AA0005A685B68D20B9143DB0E8B469E43FFF75F
:102AB000D3FB4B46002B00D0F5E5012E00D168E199
:102AC0000197012F00D1BCE14346012B00D151E118
:102AD0005B46012B00D182E1D8468020FF230026EF
:102AE000002700220693714B71490978002900D113
:102AF0005EE470490C684D682000290002F02FFA4E
:102B000000226D4B02F00CFA02F04EFA32003B004C
:102B100006902900200002F022FA02000B0000209B
:102B2000654902F0F8F902F03FFA41E40022019D04
:102B30001A602900012D00D185E0B420029B693282
:102B40003B40FF325B42134072421040181802F0C3
:102B500091F95A21040002F08DF90290B81B02F09D
:102B60000BFA002300220892099300230690079194
:102B70009B469846FFF7CEFB0120002701260190D7
:102B80002BE70D9B002B41D04B46002B00D08AE554
:102B9000012E00D17BE1012F00D04FE70123B120AE
:102BA0000193F3330693454E454F464A464B9BE708
:102BB0000199002901D1FFF711FC4B465A1E9341A0
:102BC000424A5B4213408022D2019446D022120630
:102BD00052686344134201D1FFF700FC0C9B012BA8
:102BE00000DC3EE4069B802B00DC62E18C46FF2388
:102BF0008020E044069334E4019B012B00D1E9E0FE
:102C000001235B42089302339846D5E542465A4475
:102C100046E54A46002A00D000E15A68120101D474
:102C2000FFF70FFC5B680B4201D1FFF705FCFFF7D4
:102C30000BFC4868002800D01BE591E64B68002B90
:102C400000D0DFE607E700239B4698460893E7E6B7
:102C500001234E200193F33306931D4E1D4F1E4A50
:102C6000194B41E7029300231C4C0125089309945A
:102C7000002300240693079400235A249B460193C3
:102C8000FFF748FB84110020901100206C110020F8
:102C90006011002074210020E42500201827002066
:102CA000142700204C110020272700200000F03FAF
:102CB000222700205011002000006040BCFF982215
:102CC000BD01D9BF6B662C98C674ED3F00C0FF1FD5
:102CD000AAFF9822BD01D93F6F662C980000F0BF73
:102CE000002300240893099400237E4C01250693B9
:102CF0000794022302930023B4249B469846FFF7CF
:102D000009FB794B1C68012C77D0D021802509065E
:102D10004E68ED042E4221D0002C00D0A3E04C6878
:102D2000E4001BD4D02109064B681B0101D4FFF736
:102D30008BFB4B689B0001D4FFF786FB00231370CD
:102D4000019B9C468023E0440693FFF78AFB674A79
:102D50001268002A00DBE9E60022BBE54968294247
:102D600001D0FFF771FBD0231B065B68DB00D9D4D1
:102D7000FFF76AFB009B002B6DD1059B002B00D158
:102D8000ABE6B1230B200693594E5A4F5A4A5B4B80
:102D9000AAE67B1C01930A9B002B0DD10D9B002BF7
:102DA00000D191E60B23B1200693554E554F564A5C
:102DB000564B99E67B1C01930B234E200693544EF1
:102DC0004E4F544A514B8FE601239B4608930023F4
:102DD000984625E601239846023B089320E6009B8F
:102DE000002B5ED1059B002B79D0B123F4200693F4
:102DF000494E464F494A414B76E6D0218025090687
:102E00004C68ED042C425CD04C6824012FD4D021B6
:102E100009064B681B048CD4FFF716FB5A68D200D6
:102E200001D4FFF70EFB5B680B4201D0FFF70CFBF0
:102E3000D0231B065B68DB0001D5FFF702FBFFF721
:102E400003FB0A9B002B47D10D9B002B00D13BE6D7
:102E5000B120F423A6E64E230B2006932A4E254FDD
:102E60002F4A284B40E64C68E40000D45AE74968F2
:102E7000294201D0FFF7E8FA1C68012C00D072E764
:102E8000D0231B065B681B01C1D4FFF7DDFA7B1C56
:102E9000019387E701239846023B089300239B4652
:102EA000BEE54E23F4200693114E184F1D4A154BD4
:102EB0001AE6019B80209C460023E0440693FFF71E
:102EC000D0FA49682942DBD0FFF7BEFA164B1B68DF
:102ED0005343E418FFF725FA4E20F423BCE6802084
:102EE000FF33FCE50000F0BFAC11002048110020CA
:102EF0006E662C98C674ED3FAEFF9822BD01D93F97
:102F0000A7FF9822BD01D9BF6F662C98C674EDBF8C
:102F1000B2FF98226D662C9870662C98A6FF9822B6
:102F2000A8FF9822ACFF98225C11002030B5002049
:102F300083B003F067FC00280CD01D4B1B68012BED
:102F40001AD01C4C1C4D1B222100280005F068F9EA
:102F5000002801D103B030BD220000211B23002036
:102F600003F06CFC2B0007CC07C307CC07C32288F7
:102F70001A80A2789A70EDE76C460023E3710D4B3E
:102F80000E4D99791A689B880092A3802B68A171D5
:102F9000934208D0220000210823002003F04EFCB9
:102FA00006CC06C5D6E76A6863689A42F2D1D1E7D3
:102FB0008C250020E8250020B8250020D8250020F9
:102FC000F0B54546DE464E465746E0B585B001F0C1
:102FD00063FCBE4B0500994600234A461370BC4B68
:102FE000080098461A685B6814001C4300D1E0E1B1
:102FF0008B4228D800D187E241460027AC460C7AA4
:10300000B44E21002831C9B23B290CD80025B24C5E
:1030100012196B41984251D34ED00C002100283137
:10302000C9B23B29F2D992197B41143CE4B29842CF
:1030300002D3E6D19445E4D241460A604B600123B5
:103040004A460C721370A54B9B461F68A44B9A46C8
:103050001E68012F00D161E1002F38D10123A14A60
:10306000D02015000F2100249C46B8469E4E4C35BA
:1030700000060B000E3B0F2B02D89B00F3589F4617
:1030800067468F4043681F4202D163468B401C4312
:10309000AA4200D118E102CAEBE78027BF05F1E799
:1030A00080273F02EEE780273F05EBE780277F057B
:1030B000E8E78027FF01E5E79445AED20C004146E2
:1030C0000A604B6001234A460C721370BBE7854BC4
:1030D000D0201E000F22002401254C36000600E0FF
:1030E00004CB290091400A0041680A4200D11443F0
:1030F0009E42F5D1D02109064A680123920603D5E4
:103100004A68120600D55FE1784A012713700392DE
:1031100000230022764D90462B80EA72EB602B82D2
:10312000AA74FDF771FDE30A3B401900230B3B40F5
:103130009946660A3E40230A3B404A4630000293C5
:103140000191FDF74BFC029B4A4630000199FFF7C5
:103150005FF8630400D4B1E0664B1F705B461B68E8
:10316000002B04D080232A88DB0013432B8001230B
:103170000193802322009B051A401C4200D199E054
:1031800001225D4B1A705B461B68002B04D0802324
:103190002A885B0013432B800122584B19780029A1
:1031A00002D05868002807D155480778B846002F44
:1031B0001ED04768002F1BD0A4040CD52988002AF4
:1031C00000D1E8E05B461B68002B00D152E1802370
:1031D0009B000B432B80FFF7A9FE039A494B127803
:1031E0001A7005B0F0BCBB46B246A946A046F0BD79
:1031F000454F3F68002FDFD1444EB1463678B44684
:10320000002E05D04E467768002F01D0022FD3DD67
:103210005E4637683E0040272740002E00D1DDE0A3
:1032200000203B4B3B4918605960002F03D001211F
:103230002B880B432B80230603D502212B880B43BD
:103240002B80A30603D504212B880B432B80630717
:1032500003D508212B880B432B80E30603D580215F
:103260002B880B432B80230703D540212B880B434E
:103270002B80A30703D520212B880B432B80E3074A
:1032800003D510212B880B432B808021012E00D1E8
:1032900054E1C900D02308001B065B68184019429E
:1032A00000D089E71C4B2988186080231B010B4341
:1032B0002B8081E7104B1A7000226EE742460D4BBF
:1032C0001A700023019354E7474613E7272700208D
:1032D000381900201B4100001A410000A8110020ED
:1032E000AC110020448800102C8500101E270020FF
:1032F000E825002021270020222700206C11002033
:10330000601100202B270020742100208411002050
:103310005011002000C05F4018270020012E00D16E
:10332000ADE04C22D0279446944B002401259C44C8
:103330003D3A3F0600E004CB29009140002E0AD11F
:103340000E2A00D1DDE00A2A00D1E1E00B2A00D1EB
:10335000E1E0290091407868014202D129009140C2
:103360000C439C45E7D1D02109064A680123920607
:1033700000D4C9E64A68120600D4C5E64A68D206F7
:1033800000D4C1E64A68520700D4BDE64A68520636
:1033900000D4B9E6AEE0019B002B00D117E75B46F5
:1033A0001B68002B00D012E780235B010B432B80AE
:1033B00011E701F071FA0023714A80185941434620
:1033C000186059601C723EE64A68D20600D49BE63B
:1033D0004A68002FD7D1D208934395E6002F07D033
:1033E0004646002E00D1B1E04068002800D1ADE093
:1033F000200606D5002900D1ADE05B68002B00D186
:10340000A9E0A30603D504212B880B432B80630777
:1034100003D508212B880B432B80E30607D5634691
:10342000002B00D09CE010212B880B432B8023071E
:1034300003D520212B880B432B80A30703D54021E4
:103440002B880B432B80E30703D580212B880B436C
:103450002B80630500D4AFE64A4B1978002900D1D0
:10346000AAE65B68002B00DCA6E604212B880B4350
:103470002B80A1E60133FF330B432B80ABE6012306
:103480003E4980200E00D0250F2200249C463E4F4E
:103490004C36C0002D066B68184202D1634693403B
:1034A0001C43B1420FD00A6813000A3B122B35D8D7
:1034B0009B00FB589F46802004310002EBE78020F0
:1034C00004310005E7E7D02212065168012389067E
:1034D00000D419E65168090600D415E65168C906FA
:1034E00000D411E65168490700D40DE6526852062F
:1034F00000D409E6D0231B065A68012352089343DF
:1035000002E68021C90026E7AA4200D874E59AE5C0
:10351000802109011FE78021C9011CE70120043136
:103520009040B8E7802004314005B4E780200431A2
:10353000C001B0E7802004310001ACE753461B68AE
:103540008021012B00D9A4E60901A3E601272888E0
:10355000384328804CE702212B880B432B8050E70F
:103560004B465B68002B00D15DE7042B00DC5EE777
:1035700059E780200431C0008DE7C0464488001020
:103580001A4100009C1100206C850010F0B5D64651
:1035900046464F46C0B50F20C0B000F0E7FAD02431
:1035A000802324061B0200220121A3620F2000F0C9
:1035B000C9FA1B2000F0DAFA80231B050022012142
:1035C000A3621B2000F0BEFA1C2000F0CFFA80237B
:1035D0005B0500220121A3621C2000F0B3FA1A202F
:1035E00000F0C4FA8023DB0400220121A3621A2028
:1035F00000F0A8FA052000F0B9FA202300220121EA
:10360000A362052000F09EFA072000F0AFFA8023A5
:1036100000220121A362072000F094FA022000F0AA
:10362000A5FA042300220121A362022000F08AFAF5
:10363000062000F09BFA402300220121A36206200D
:1036400000F080FA042000F091FA102300220121FA
:10365000A362042000F076FA012000F087FA02232A
:1036600000220121A362012000F06CFA032000F087
:103670007DFA082300220121A362032000F062FAF0
:10368000002000F073FA012300220121A362002030
:1036900000F058FA1D2000F069FA80239B050022F3
:1036A0000121A3621D2000F04DFA0D2000F05EFA0A
:1036B00080239B0100220121A3620D2000F042FA29
:1036C0000E2000F053FA8023DB0100220121A362C7
:1036D0000E209A4600F036FA0A2000F047FA8023BE
:1036E00080268027DB00A362002201210A2000F04F
:1036F00029FAB600092000F039FA00220121092038
:10370000A66200F01FFA3F010B2000F02FFA002202
:1037100001210B20A76200F015FA0C2000F026FA18
:1037200080235B0100220121A3620C2000F00AFA31
:10373000082000F01BFA80235B00002201210820F2
:10374000A36200F0FFF9854A854B1078854A18700E
:1037500012785A709446844A1178844A9970127883
:10376000DA70834B1D68A846012D49D06568354243
:103770002CD10126922401257E4806607E48448192
:10378000D02424066068000600D5BCE001247B48F4
:103790000460D02636067468640600D486E0746837
:1037A000774F64071AD401241C60D0231B065B6882
:1037B0000121DB0400D483E0D0231B065B68DB051A
:1037C00000D5AFE0012301223B607CE064683C420D
:1037D00000D0BBE0002693240025CDE7D0242406AA
:1037E0006468A40700D4AEE0002960D001295BD052
:1037F000022402295DD04346012BD6D0D9B259E02C
:103800005F4F64683D68012D30D0344231D02C00C8
:1038100065426C416542E024A401254080242401D6
:10382000A1464D44D024240664682C4201D00128CE
:103830001FD0002493204F4E002534604E4C6081F1
:103840003C68012C1FD1D02636067068000620D5B2
:103850007068800600D46DE06046002802D0012820
:1038600000D079E064464548046014E0554634428F
:10387000D8D1012492203F4E012534603E4C608116
:103880003C68012CDFD0D0242406606800064DD4AB
:1038900001243A480460D02636067468640606D5CA
:1038A000746864079AD4012119607EE7344F0024BC
:1038B00000211C60D0231B065B68DB0400D57BE77E
:1038C000002300223B60037809041B022B431206ED
:1038D0000B4313430093EFF3108472B68021F8205A
:1038E0004901400304F0B4FD8022F82069465200EB
:1038F000400304F09DFD84F3108840B0E0BCBA465C
:10390000B146A846F0BD6068202426000640044267
:1039100012D06046002801D001281BD16446174808
:10392000046036E7002A0AD13A60CCE76068800676
:1039300000D591E70024ACE71048066029E7012A8A
:10394000F2D03A78BFE702240221B2E7012800D082
:1039500040E70EE709481CE708489CE700001F10F5
:103960008421002001001F1002001F1003001F10FF
:10397000A81100208C25002034110020B011002057
:10398000AC11002030B5144C83B000211B22200064
:1039900001F0F8FD114B00226380114BE274A3800B
:1039A00080236275E2750F4AA3717E3B2375A37570
:1039B0002376130023CC23C307CC07C322881A80A5
:1039C000A2789A706A46084B0093084B0193084B03
:1039D00011CA11C303B030BDE82500200F80FFFFDE
:1039E0008080FFFFB825002000000F8080808000CD
:1039F000D825002070B503F033FAFFF7C7FDFFF7B5
:103A0000C1FF0021002003F0C5F8002500F044FFAD
:103A1000094C002200196941084B18605960084898
:103A20001A7203F02DFF01200021404202F06CF9D0
:103A3000FFF7C6FAF7E7C0461A4100003819002020
:103A4000C90300100048704734110020034B1B6865
:103A5000012B01D0024870470248FCE78C2500206A
:103A6000C087001068870010002070477047C0466C
:103A7000034B1B68012B01D0024870470248FCE74A
:103A80008C250020448700102087001070B5002886
:103A900022D0022829D8164B8000C558280004F0EF
:103AA00011FCC0B2041C1F2814D8C026E4B2631C49
:103AB000DBB25B00B6001E43002808D000230D4A8D
:103AC000E95C01331180D9B202328C42F8D80A483D
:103AD000068070BD1F24E8E7C126054B0222054879
:103AE000196801F055FDB600F1E70020F1E7C04686
:103AF00028110020A61D0020A41D002010B552236F
:103B000019228021014803F001FA10BD481A002053
:103B1000094A83009A1810B5146840225440803234
:103B20002240064CC000A44663441A60044B9C46E5
:103B30006044416010BDC04604C0014004D0014053
:103B400000400140074B8000C3181B68C900920069
:103B50000A435A400C231340034A944660440360CE
:103B60007047C04604C0014004D001400123D02268
:103B70008340120693629361094A83009A18116880
:103B80004022514080320A400649C0008C466344BE
:103B90001A60054B9C460523604443607047C0464D
:103BA00004C0014004D00140004001408023DB05F7
:103BB0001868000F7047C0460FB400B5084883B0BE
:103BC00001F060FE049B002B07D005A918000191AD
:103BD00001F0ECFC034801F055FE012001F0FEFC71
:103BE000D4850010E4850010EFF3108072B6034A0C
:103BF0001368002BFCD0BFF35F8F70472C0100D0FF
:103C0000BFF35F8F0022024B1A6080F31088704769
:103C10002C0100D070B5EFF3108C72B60D4D2B68EF
:103C2000002BFCD0BFF35F8F0724CB08C618C05C05
:103C300001230C40A3401C000440034207D1184359
:103C40003070BFF35F8F2C608CF3108870BD100054
:103C5000FFF7B2FF2C0100D0F8B54746CE468846A4
:103C600080B5EFF3108C72B6214D2C68002CFCD07F
:103C7000BFF35F8F9A422CD8D4080727055D061939
:103C800001241740BC402C421FD007210127894640
:103C900009E0D408055D06194C4639001440A140DE
:103CA0000C00294211D001329342F2D2012040424D
:103CB000BFF35F8F00220E4B1A608CF31088002830
:103CC0000FDBC0BCB946B046F8BD254310003570C7
:103CD000EEE7BFF35F8F00232B608CF31088012089
:103CE00040424346002BECD00898FFF765FFC046E2
:103CF0002C0100D0044A1078431CDBB2172B00D9EA
:103D0000102313707047C046B411002010B5064B45
:103D1000064C82B00100009318221F232000FFF7F9
:103D20009BFF02B010BDC046E88500104021002076
:103D30000021044B044ABFF35F8F02C39342FAD1C0
:103D40007047C046000100D0800100D0054B064AF4
:103D50001360064A136053609360D360136153612C
:103D6000936170478080808000E400E004E400E01C
:103D70001F2318401E3B8340002905D0C021044A60
:103D80004900535013607047802201498B50FAE775
:103D900000E100E001228240034B1B6813405A1EE1
:103DA0009341D8B27047C04600E100E070B50D0005
:103DB000EFF3108672B60F4A1368002BFCD0BFF3E6
:103DC0005F8F0D4B10309B6884001B590B4A934248
:103DD00003D09D4201D000F00FFF074B9B681D519F
:103DE000BFF35F8FBFF35F8F0022024B1A6086F331
:103DF000108870BD240100D000ED00E0C10100106A
:103E0000F0B557464E46DE464546E0B585B006005D
:103E100000911700EFF3108B72B66A4A1368002BFB
:103E2000FCD0BFF35F8F0025674B5D579A46002D8E
:103E300000DAA9E06B00654C01935B199B00984682
:103E4000A146C1444B4652469B7910361370604BD5
:103E5000B6009B6899590B1B2F2B33D95D4B9942A8
:103E600000D0ACE0019B42469C465B4B6544AD00F4
:103E700063535A4B0232A218043B9B1A1B05584A43
:103E80005B0D651913436B80564B0121AB80FF23FB
:103E9000AB71009BEF71AB604B460B4319004C4B71
:103EA0009B689951BFF35F8FBFF35F8F0022454B33
:103EB0001A608BF3108805B0F0BCBB46B246A94629
:103EC000A046F0BD01200A008243D3798C46BB4254
:103ED00031D84546130044491B1B5B415943090D2A
:103EE0003D4B63533D4B02356519043B5B1B1B0582
:103EF0003B4D5B0D2B43AA464D466B800425AC46DB
:103F00005546E044131F44441B1B1B055B0D1D431A
:103F10004B46997100999D8099604946DF71334BFA
:103F200001431360BBE75800C01880002018C17916
:103F3000B9422FD902000623D356002BF3DA02939D
:103F40002B4B61460393131D9A4604235B429C4608
:103F5000E14450464B461B1A1B055B0D9C46204B0B
:103F6000957198466346404603439380019B5A19D6
:103F70009200039BA418A380029B1C4AA371009B80
:103F80002260E771A3608AE700F036FE0025534601
:103F90005D574FE7908802934005131D9A4603151D
:103FA00061469C464046D444634604302018181AA3
:103FB000E0230005400D1B0218430390C5E700F005
:103FC0001BFE4FE7240100D028270020B811002055
:103FD00000ED00E0C101001000A1FFFFE81100208A
:103FE00000E0FFFF01BDFFFFAAAA000001488047D3
:103FF00001BD000070B501240443EFF30581EFF328
:10400000108C72B6214A1368002BFCD0BFF35F8F6F
:104010001F4B05001F4AED1A6D416A43120D1E4DDC
:104020008900AE6852B27658A6421CD00621595675
:1040300091421CD012215956914222D01E2159562C
:10404000914220D02A2159560324914210D0134B7B
:1040500019781A708171BFF35F8F00220B4B1A60C1
:104060008CF3108870BDAB680D4C5C50EFE70024FA
:104070006100091989005B18FF219971094999802C
:10408000E5E70124F4E70224F2E7C046240100D06A
:10409000B8110020AAAA000000ED00E028270020A7
:1040A000C101001001BDFFFF024B9C466144890025
:1040B000016070474000003470B5114C114DAC42A6
:1040C0000FD2FF262368002B0CD0FFF713FE010050
:1040D0002000FFF7E9FFA680BFF35F8F0834AC42F2
:1040E000F0D370BDFFF706FE01002000FFF7DCFFF4
:1040F0002671BFF35F8F0834AC42E3D3F1E7C046CB
:10410000A8170020B817002010B50400FFF7F2FD33
:1041100001002000FFF7C8FFFF232371BFF35F8F6B
:1041200010BDC04610B504000120FFF7EFFD034BA2
:10413000C3189B002360BFF35F8F10BD40000034A5
:104140000A4B1968EFF3108072B60A68002AFCD097
:10415000BFF35F8F1B68BFF35F8F00221A6080F38D
:10416000108840BF002000217047C0461027002063
:10417000F0B5DE4657464E464546E0B583B0EFF310
:10418000058203231340B54A990052580091904686
:1041900001229A409346B24B1A60B24B01935B46A0
:1041A000B1484363434608229B5E9946002B3ADAA6
:1041B00043469B881BB2002B00DB9DE043469B7966
:1041C000002B00D0E1E0434608241C5F002C20DBDC
:1041D00043465A6963001B19DB00D3189D68DC68ED
:1041E0006B1C00D103E1A048009984466144826AB7
:1041F0000B69AE1A9B1A9E4213D35A46036A1A429F
:104200000FD0994800F040FB8C4202DCC7D18542B8
:10421000C5D940BF03B0F0BCBB46B246A946A046D4
:10422000F0BD0D61EDE7424652695B0092464B449A
:10423000DB009A4453469E68DF6800F025FB8F42FE
:10424000B6DC00D1F8E0002F00DAD9E05246534640
:1042500054691B69019A934200D1CCE04146524611
:104260000820085E5288000421001043984704008B
:104270000D0023002B4300D1C2E0002D00DBDFE066
:1042800030003900001BA94153469860D9600022D4
:104290009A5E002A00DA8BE743465D6953009C185A
:1042A000E4002C19A768E4688C4200DD80E702D1A5
:1042B000874200D97CE74646328108360DE08C42C1
:1042C00000D1C6E01E000023F25E002A0ADB530084
:1042D0009C18E4002C19A768E4689B18DB00EB1815
:1042E0008C42ECDD53461A804B46338043469B8814
:1042F0001BB2002B00DA61E743461A69EFF3108125
:1043000072B61368002BFCD0BFF35F8F43469E88C4
:10431000012342465B42938036B21369BFF35F8F3D
:1043200000221A6081F31088002E00DA46E7434627
:104330005D69083342469C467700BF19FF00EF19BC
:10434000BB68604698460823D15E9246FC68002907
:1043500007DA0EE0A24246D018000023C15E002911
:1043600006DB4B005B18DB00EB18DA68A242F1DDDC
:10437000524606800023FE5E3980002EDCDA90462D
:1043800043469B79002B00D11DE7002342469371E1
:10439000434646460821595E08364B1C00D138E793
:1043A00047468946556902E006004B1C18D04B0071
:1043B0005B18DB00E8180A008C46E95E43881BB2F4
:1043C000002BF1DA01235B42DC178360C4604A45AD
:1043D00003D031803B8903803A81E1464B1CE6D112
:1043E000B8464C46F2E69A684245B5D9C0E7631C28
:1043F00000D0F8E605E7200023699847002825D17A
:10440000534642461B8813811269EFF3108372B63C
:1044100011680029FCD0BFF35F8F42465146528895
:104420000A804246494651801269BFF35F8F0021DE
:10443000116083F31088BBE6864200D803E7B7E635
:10444000094800F021FA001969411DE765682468F0
:104450000FE7874200D835E744E7C046A82500208B
:104460003C700540714100100040054070B52E4C75
:104470002569002D04D00A212C48FFF715FE70BDD8
:104480002B4E0321300000F0F5F9E660FFF732FC17
:10449000284B03229C46D02322701B061B68012157
:1044A0006370254B6044A3600F23800020610220CD
:1044B000638063694942A1801980023119864731BE
:1044C0001D83585218315A5275325C39995218323C
:1044D00001319952183201319952183201319952F1
:1044E000083518329D520231183299521832013172
:1044F00099521832013199521832013199521832B9
:10450000013199521832013199520C4B0C49DC603F
:1045100001303562FFF74AFC01210320FFF728FC38
:10452000084B1D60A7E7C04600120020102700209E
:104530000040054040000034FFFF1000A825002087
:10454000714100103860054070B501000469EFF357
:10455000108C72B620680028FCD0BFF35F8F022059
:104560000D5E4C6968004019C0002418002D37DB2F
:10457000208848800869BFF35F8F002606608CF3AF
:104580001088E36063880498013320615B04059818
:104590005B0CA26060611A1C002B1FD093B2280430
:1045A000628018430A69EFF3108C72B61368002B0F
:1045B000FCD0BFF35F8F8B8823808D800B69BFF3A6
:1045C0005F8F00221A608CF310880B7801329A40BA
:1045D000CB6808498C4663441A6070BD0122DDE750
:1045E0000B69BFF35F8F00221A608CF310880120E3
:1045F0004042F2E73C20000010B543890A14934280
:104600001ADD53009B184269DB00D3180469EFF3ED
:10461000108C72B62268002AFCD0BFF35F8F5A88D4
:10462000090494B2090C8A4208D00369BFF35F8F72
:1046300000221A608CF31088002010BD8022120224
:1046400014435C80012302698371BFF35F8F0021F3
:1046500011608CF31088044902788C469340C2683C
:10466000012062441360E8E73C200000F0B504003C
:104670000D0006267642F717C64636196F4100B57B
:1046800082B08F4214D811D000F006F932003B00FE
:10469000121A8B41002B17DC002B47D02000290079
:1046A00000F004F902B080BCB846F0BD8642EBD9F8
:1046B0000022002316001F0000F0EEF832003B003D
:1046C000121A8B41002BE7DD00F0E6F832003B00C8
:1046D000121A8B41002B0ADB00230193154B320089
:1046E000009315483B00FFF72FFF0028D6DB00237F
:1046F0009C46B046114A124E736A9F4204D8B16A72
:104700008845CBD99F42C9D11168EFF3108072B6AA
:104710000B68002BFCD0BFF35F8F1368BFF35F8F74
:104720006146196080F3108820BFE5E7002AB5D004
:10473000CAE7C046414100100012002010270020A7
:104740000040054070B5060000F0A6F8FA2204000B
:104750000D00002330000021920000F039FE80237C
:10476000001969411B06994202D3012002494042C7
:10477000FFF77CFF70BDC046FFFFFF7FF0B5D64658
:104780004F464646C0B504000D0082B0EFF30587E2
:104790008946002F0ED0344900204B6AAB4203D328
:1047A0008A6A0130A24226D302B0E0BCBA46B146C2
:1047B000A846F0BD2D4B9846DB689A4643465046C6
:1047C0001E7800F061F80B00514602000436B60076
:1047D000715820008E1A2900801A99418F4211DCED
:1047E0000ED020BF204A0020536A4B45DCD3926A8A
:1047F0000130A242D8D25B1B5A1E9341D8B2D3E7F4
:104800008642EED900F048F822002B00121A8B41A4
:10481000002B1ADB00230193154B22000093404626
:104820002B00FFF791FE011E0FDD0F4B5A6A4A4520
:1048300017D39B6AA34212D34046FFF7DDFE0A4A14
:104840000020536A4B45AFD3D1E7074A0020536A93
:104850004B45A9D3926A0120A242A5D2CBE74A4593
:10486000EAD120BFE8E7C046004005400012002022
:104870004141001010B5024A0248FFF7CBF910BDC4
:1048800004860010442100200300416A0A00986A4F
:10489000596A8A42FAD17047034B596A0A00986AEA
:1048A000596A9142FAD1704700400540064A536A5E
:1048B0009942FCD807D1044B02E05A6A914202D1D6
:1048C0009A6A8242F9D3704700400540F8B5DE4647
:1048D0004E4657464546E0B58B4605000A991800F6
:1048E000160000F0EFFA0A9B6C001F02324B6419AD
:1048F0009C46A4006444636881469F4200D9676077
:104900002B1FDBB29846012B30D9C02380229B019C
:10491000E31812011A60294BAD0059599A46002933
:104920001BD17301E026226853401E40802342467B
:104930005B01E3181E60012A30D9802380229B018D
:10494000E31812011A6053464A4667605A51F0BC98
:10495000BB46B246A946A046F8BD586900F0B2FA77
:10496000013043001B18033BFDD2DAE75B46012B05
:10497000CBD1C02303229B01E3181A60023AA3683B
:104980001A42FCD07301E0262268AD0053401E405D
:1049900080230A4A5B019246E3181E605A4621684A
:1049A000514003220A401A6001225B469A40A368E4
:1049B0001A42FCD0C1E7C046008000404C210020D4
:1049C000F0B546464F46D646C0B51F00344B4400AE
:1049D0009C462418A4006444636888461600FF2B94
:1049E00002D880235B006360031FDBB29A46012B71
:1049F00030D9C02380229B01E31812011A60294B91
:104A000085005959994600291BD17301E026226877
:104A100053401E40802352465B01E3181E60012A6A
:104A200030D9802380229B01E31812011A60802371
:104A30005B0063604B465F51E0BCBA46B146A84696
:104A4000F0BD586900F03EFA013043001B18033BEB
:104A5000FDD2DAE74346012BCBD1C02303229B01D1
:104A6000E3181A60023AA3681A42FCD07301E026E8
:104A70002268850053401E4080230A4A5B0191460C
:104A8000E3181E6042462168514003220A401A6022
:104A9000012342469340A2681342FCD0C1E7C046BE
:104AA000008000404C210020014B8000C05870471E
:104AB0004C210020F8B5040021481E0017000D000D
:104AC00000F000FA0100380000F0FCF9069B360403
:104AD0001B031E432368002B20DB1A4B1A49E318E3
:104AE0005A1E93418022920194465B421B0B174A47
:104AF0001B0363441360164A13601F000A68974340
:104B0000FBD1144B2560E2182123A06013602368B9
:104B1000002BFCDA0823E6601360F8BD3F2322680F
:104B20001340AB42D9D1A3681B051B0D8342D4D1DE
:104B3000EE22E368D2021340B342CED1EDE7C04685
:104B4000001BB7000040FDBF08C0004000E000406F
:104B500000F00040043000008023024A9B000B4319
:104B6000D362704700800540142310B501001888F7
:104B700004331B88984710BD162310B50100188810
:104B800002331B88984710BDF8B54746CE4680B51E
:104B90000F1E19D014239946043304000025012662
:104BA00098464B461888434621681B88984701C49D
:104BB000431E9841013540420640AF42F1D13000DA
:104BC000C0BCB946B046F8BD0126F8E7AA23064A9C
:104BD0001B0113602133FF33D3600449044B196078
:104BE0005368002BFCDA70470040024000B0FA0026
:104BF000006002407047C04610B50148FEF7DCFF78
:104C00002886001070B5074D074EB54209D2002422
:104C1000013E761BB60808CD984723000134B34205
:104C2000F9D170BDE08400101C85001070B5074DEF
:104C3000074EB54209D20024013E761BB60808CDC6
:104C4000984723000134B342F9D170BD1485001098
:104C50001C850010054B064A06491A60064A074B98
:104C60001A6010000B689843FBD1704700E00040C9
:104C7000BFCDFBFE08C00040FE7F3C0000F00040BE
:104C8000044BDB6C002B03D18022034BD2021A6051
:104C90007047C046000011504C201150044A054B8B
:104CA0001A60054A1368DB018033FBD17047C046A8
:104CB000FFFFFF0100F0004008C000404022034B0E
:104CC0009A675A671A67DA667047C04600F0014073
:104CD00010B5FFF72DF810BDF8B52749274C284D22
:104CE000641AA6103200302E00D93022280092001B
:104CF00000F04EFCBC2C3BD830202F232C1964072D
:104D0000204A801BE40F9B1B052B16D93700002C73
:104D100002D0B300771CEA50001B33199B004108F6
:104D2000EB18C900C9181A605A6008339942FAD1C1
:104D3000012303421CD09843C619B300EA50731CE8
:104D40002F2E15D09B00EA50B31C2E2E10D09B00A6
:104D5000EA50F31C2D2E0BD09B00EA50331D2C2E55
:104D600006D09B00EA50731D2B2E01D09B00EA5009
:104D7000054B9D60F8BDC04600010010C001001049
:104D800000000020C101001000ED00E0002310B57C
:104D9000294C82B0A367FFF719FF0122274B1A6045
:104DA000636C012BFCD10322254B1A60224A936BC2
:104DB000012BFCD1013300930121224A2248043304
:104DC000FFF778FE052301210093204A2048FFF7D2
:104DD00071FE0022022104201E4BFFF7F1FD00228C
:104DE000012105201C4BFFF7EBFD002200210720CD
:104DF0001A4BFFF7E5FD002200210820174BFFF7B3
:104E0000DFFD8023DB000093002200210920134BEB
:104E1000FFF75CFD0022104B00210620FFF7D0FDBC
:104E20000420FFF741FE0E4900F04CF8010000207D
:104E3000FFF792FE02B010BD008000403CB0004081
:104E400030B00040002F685900800240008C864737
:104E500000C00240001BB70040597307006CDC0221
:104E600040420F0001480421014B18472012002046
:104E7000894B0010124A936F9B0815D29066D16639
:104E8000002905D0FFE7FFE7FFE7516F106F70477C
:104E900004B580210906C2175140002800D0C8433C
:104EA00003F0CEFA002104BDF0B5146E556E576FB5
:104EB000166FFFF7E3FF1466556657671667F0BD78
:104EC000000000D0114A936F9B0813D21066516600
:104ED000002905D0FFE7FFE7FFE7516F106F70472C
:104EE00004B5002801D00020C04303F0A9FA002136
:104EF00004BDC046F0B5146E556E576F166FFFF7C0
:104F0000E5FF1466556657671667F0BD000000D0D0
:104F100048404140484018B4134B5B68019308BDBA
:104F200018B4114B1B68019308BD94460F4A926F49
:104F3000920805D2624618B40B4BDB68019308BD9A
:104F40000A4AF0B5146E556E576F166F6246FFF73A
:104F5000F2FF064A1466556657671667F0BD18B427
:104F6000014B9B68019308BD48190020000000D048
:104F70000021002805D17047C1174840401AFAD0D7
:104F8000C90713B5064B1B6898470CBC441CA240CC
:104F90001005120B0349091B09051943114310BDE4
:104FA0000C2600201F04000010B54C00620D802369
:104FB000D218DB00D21A5B057E2A10DD9E3A13DA86
:104FC000CC170903490819435242D1406400013407
:104FD0001532202A05DAD0400843604310BD002076
:104FE00010BD0846604310BDC80FC018013810BD81
:104FF00018B4024B5B6A019308BD000048190020F9
:1050000018B4024B1B6E019308BD00004819002024
:10501000024A034B00B500F0BDF900BD182D445401
:10502000FB2119408A0002D3920D092A04DA18B430
:10503000044BDB6B019308BD00B5FFF7E9FF04BC2F
:105040009646F4E7481900208A0002D3920D092AF7
:1050500004DA18B4044B1B6C019308BD00B5FFF7CC
:10506000D7FF04BC9646F4E74819002010B5014864
:10507000FEF7A2FD34860010132370B51D78012DB4
:1050800019D014DD1D48FFF777FD06001C48FFF717
:1050900073FD1C4C80223100200000F079FA022DB3
:1050A00006D01948FFF760FD184B186070BD154C0D
:1050B000174BA364F5E7174B124C23606360A360A2
:1050C000E36023616361A361E36123626362A362BE
:1050D000E36223636363A363E36323646364A3649E
:1050E000E36423656365A365E36523666366A3667E
:1050F000E36623676367A367E367D9E75344000068
:1051000053460000481900204C3300000C260020B4
:10511000A55300106D500010F0B545464E46DE46D2
:1051200057461C001300E0B589B0049305944D0068
:10513000129B904664006A0D81469446640D002BD4
:1051400002D01A00002313608F4DAC456FD0002CA5
:105150006DD06346002B00D174E002000B00AC421E
:1051600067D0651E654564DC8022CB0F9B460B0330
:1051700052031B0B13431F00059B4E461B031B0BC7
:105180009A464346029353461A430392654500D11B
:105190008FE05B46002B00D1ADE03B0032000027E2
:1051A00056429F4163461D1B002D00DCB4E00120E8
:1051B000039B40421911FFF785FE00239B461D33D8
:1051C00081469A46A846079418E032009A40019218
:1051D0003300AB4020000093E117029A039B00F0DC
:1051E000F7F8009E019F5B46A346AB409B444346B5
:1051F0005B1B361A8F419846002B26DD45460C2D49
:1052000000DD0C254B46BC115C4353465B1B1C4127
:105210002B0001346410203BD7D5202332005B1BC8
:10522000DA4013003A00AA401A430192D0E7002264
:10523000564B1000190009B0F0BCBB46B246A94657
:10524000A046F0BD00220023F3E7079C029A039BCF
:10525000BB4200DD7CE000D176E0029A039BB61AE7
:105260009F41BB4200DD8BE000D185E0029A039BA9
:10527000B61A9F4102239C46E344320002980399E8
:105280003B0092197B418B420BDC01D1824208D852
:1052900002998A421BD1039A934218D15B46DB07DD
:1052A00015D5029A039BB61A9F4101239C46E344FD
:1052B0000DE097423FDD029A039B594692185B41ED
:1052C000002948D1B61A9F4101232C009B46059B1B
:1052D000002B02DA5B465B429B46129B002B01D0FF
:1052E0005A461A602A4A3000121B3900FFF788FE1E
:1052F00002000B009DE763461D1B002D00DD56E7F5
:10530000029A039BBB42CCDC33D0029A039BB61AB1
:105310009F4101239B46B0E700239B46029A039BD3
:10532000B6185F41002F1FDAB6185F4102235B42B7
:105330009C46E344A1E7029B039CA74201D19E4205
:10534000B9D802000B0074E7029BB34200D884E78F
:10535000002F92DAE2E7921BBB411F0001235B4260
:1053600016002C009B46B2E701235B429C46E344B7
:1053700083E7B242C9D994E7029BB34200D875E7EC
:1053800001239C46E34478E7FF0700000000F07F1C
:105390003304000010B5002482B00094FFF7BCFE77
:1053A00002B010BD07B5604601880A0A0230DF2A44
:1053B000FAD1C9B2820804D302884088000410439D
:1053C00000E00068014A5050039007BD48190020D2
:1053D00051434343C9188C46110C83B24B4310B45C
:1053E000040C614392B280B2504362431C041B0C14
:1053F000001910BC59411304120CC01851416144EA
:10540000704700004840414048400E4B5B681847D9
:105410000C4B1B6818470C4A936F9B0802D2094B30
:10542000DB681847F0B5146E556E576F166FFFF7AF
:10543000F6FF054A1466556657671667F0BD014BBF
:105440009B68184710260020000000D0491A002849
:1054500008D1084670470000C10FC90700D5404277
:10546000002817D0F44603B40B4B1B68984706BCC2
:1054700081409E384042803107D20B0607D0490058
:10548000490AC0051043084360470130F8E7490A5C
:105490008902F5E7704700000C260020014B5B6A8B
:1054A000184700001026002010B50148FEF784FBC5
:1054B000D0850010132310B510481C78FFF75CFB53
:1054C0000100012C0AD003DD80220D4800F060F8B5
:1054D0000C48FFF749FB0C4B186010BD084C5422D8
:1054E000200000F055F82200084980322368002B84
:1054F00000D1216004349442F8D1E9E7534600001A
:10550000102600204C3300000C260020A954001067
:10551000F8B506000C000C4F380002F0D9FF21004E
:10552000300002F0FFF90500380002F079FF744303
:10553000002D05D0054B2C199C4201D82800F8BD40
:105540000348FEF739FBC046A817002000000420DE
:105550004C86001070B50400054D280002F0B8FF1D
:10556000200002F08BFE280002F05AFF70BDC046FA
:10557000A817002001480421014B184730120020D1
:10558000894B0010014B1B681847000030120020A7
:10559000014B5B68184700003012002010B500284E
:1055A00000D110BD00F022F9FBE7C04610B5094A52
:1055B0000300146884B0002C08D001220091064832
:1055C000524203A9A047012004B010BD00F05AF9CF
:1055D0000020F9E7902500209D55001000BEFDE752
:1055E000094A03001068002805D00849C3188B42F7
:1055F00007D81360704706480449C31810608B42EF
:10560000F7D901204042F5E788210020000004205E
:105610002C27002010B5FFF7E1FFC04670B5FFF75B
:10562000F1FA074D074EB54209D20024013E761B20
:10563000B60808CD984723000134B342F9D170BDB4
:105640001C8500102C850010030010B50800110007
:105650001B68984710BDC046F0B5C64600B5437DEF
:1056600007000D001600002B38D0002A2EDD002187
:105670006A1E90466A5C037D4C1C00200A2A0CD0EE
:10568000A64216D043461B5D21000D3B5A425341B2
:105690006A5CDBB24C1C0A2AF2D1002BF0D18842A2
:1056A00017DB022110483B689847A64207D020002C
:1056B000E8E7864203DD311A3B6828189847AD19A0
:1056C000013D2B780D3B5A4253413B7580BCB84697
:1056D000F0BD091A3B6828189847E2E703681100F3
:1056E00028009847F2E7C046E4880010F0B5DE468F
:1056F00057464E464546E0B585B017001C000600EB
:105700000D00FFF7C9F80023314A12184B418021E0
:1057100009068B4202D301222E4B52422E49080029
:105720008A4602F0ADFE01906B1C03D1300002F0FE
:10573000C9FD0500002C26D0284B9846284B1C6834
:10574000002C15D0002F21D1264F02E02469002C17
:105750000ED02368002BF9D03B68002B01D09C426F
:10576000F4D120002A003100C0472469002CF0D178
:10577000019B002B28D1280005B0F0BCBB46B246E7
:10578000A946A046F0BD184B9846D7E7154B994659
:1057900002ABDF1D0A239B4602E02469002CE7D000
:1057A0002368002BF9D04B461B68002B01D0A34285
:1057B000F3D12A0031002000C0475B4601223900A6
:1057C00020003B70C047E8E7504602F029FED2E7D0
:1057D00040420F00FFFFFF7FB01700205956001016
:1057E000782100208021002049560010F0B5CE46D7
:1057F000474680B583B06B460600DD1D2870FFF775
:105800004BF800231A4A12184B41802109068B429B
:1058100002D30122174B524217490800884602F072
:105820002FFE164B81461C68002C14D0144F02E04A
:105830002469002C0FD02368002BF9D03B68002B83
:1058400001D09C42F4D1200001222900FFF704FF7F
:105850002469002CEFD14B46002B05D1300003B05A
:10586000C0BCB946B046F0BD404602F0D9FDF5E7F0
:1058700040420F00FFFFFF7FB0170020782100207B
:105880008021002070B5040002F01CFD01230100FE
:10589000050001222000FFF729FF084B1C68002C9F
:1058A00006D06368002B05D098472469002CF8D1F6
:1058B000280070BD2469002CF3D1F9E7782100207D
:1058C000F8B500F043F90C23194DFF22AB67052012
:1058D0001849FEF795FA184C402200212000FFF7E6
:1058E00051FE4027002301262121144A6670278398
:1058F000A260136063545F31618445396354104A78
:1059000010496360E2602787A1620B606362E26214
:1059100002F0AEFD80239B052E64EB6490230A4ABF
:105920000120EA508022094B5202DA64F8BDC046D9
:1059300000001150650300208C21002084001050CD
:10594000000110508000105010D0010000201150B4
:1059500010B501210520FEF70BFA10BD10B500228D
:105960000021024800F012F910BDC046AC21002011
:10597000044B1970002904D080219023024A890227
:10598000D150704724270020002011500B785B066F
:1059900002D14B78052B00D070478A78014B1A60F2
:1059A000FAE7C04600001150F0B5C646C87800B509
:1059B0008007830F1800012B60D08F780A794B790C
:1059C0007F213940FC091B024E001343334D32192D
:1059D0005201AA18977001276740577000275B058E
:1059E0005B0DD7701383D076B846CA00012C32D035
:1059F0002B4FBC468F016244BC46AC446746BA603C
:105A000047461760002932D0264AC90090466246B0
:105A1000414451603F223F339343022837D022490B
:105A200037190A687F01D3180B602049EF19FA6013
:105A30008B422ED836197601AD19EB7E1C499B0698
:105A40004A4013438022120613436A681360012000
:105A500080BCB846F0BD174FBC468F016244BC46BF
:105A6000AC446746BA6247461760002908D1002354
:105A700064012C196360104BE360E8E70020E7E75E
:105A80000B4AC9009046624641445162C2E75B003E
:105A9000C5E7FFF7B1F8FA68CCE7C0468C210020D3
:105AA0008400105004001050A4250020FF0F105057
:105AB00000001050800010500001105010B502F08E
:105AC000D7FC10BD10B57F200C0020404000E40939
:105AD000110000191A00034B4001C01800F056F8DD
