:020000041000EA
:1000000000B5324B212058609868022188439860DF
:10001000D860186158612E4B002199600221596106
:100020000121F02299502B49196001219960352056
:1000300000F044F80222904214D00621196600F024
:1000400034F8196E01211966002018661A6600F04E
:100050002CF8196E196E196E052000F02FF8012189
:100060000842F9D1002199601B49196000215960AB
:100070001A491B48016001219960EB211966A021F2
:10008000196600F012F800219960164914480160C1
:100090000121996001BC002800D000471248134993
:1000A000086003C880F30888084703B5996A0420EC
:1000B0000142FBD001200142F8D103BD02B5186610
:1000C0001866FFF7F2FF186E186E02BD00000240BE
:1000D000000000180000070000035F00212200005C
:1000E000F4000018222000A00001001008ED00E03C
:1000F00000000000000000000000000074B24E7A12
:1001000000200420F7010010CB010010CD010010E9
:10011000C9010010C9010010C9010010C901001077
:10012000C9010010C9010010C9010010CF01001061
:10013000C9010010C9010010D1010010D301001045
:10014000C1010010C1010010C1010010C101001067
:10015000C1010010C1010010C1010010C101001057
:10016000C1010010C1010010C1010010C101001047
:10017000C1010010C1010010C1010010C101001037
:10018000C1010010C1010010C1010010C101001027
:10019000C1010010C1010010C1010010C101001017
:1001A000C1010010C1010010C1010010C101001007
:1001B000C1010010C1010010C1010010C1010010F7
:1001C000EFF30580103800BE00BE00BE00BE00BECA
:1001D00000BE00BEF2EB88715C7A0010787A0010E5
:1001E0003802001090A31AE71E481F49086006C88D
:1001F00081F3088810471D480068002801D019487D
:10020000F3E70DA40ECC002902D000F012F8F9E7B4
:100210001749184A002000E001C19142FCD116495B
:100220008847164988471649884700BEFDE701C937
:1002300001C29A42FBD37047787A0010C0000020B8
:1002400078170020309100100000042000000420E6
:100250003091001000100420001004200000000065
:10026000704700000000000008ED00E0000000D032
:1002700078170020F426002019470010112B0010D9
:1002800011470010F8B5C0460448054B10B583422D
:1002900003D0044B002B00D0984710BD78170020E6
:1002A000781700200000000006480749091A8B1043
:1002B000C90FC91810B5491003D0044B002B00D04A
:1002C000984710BD78170020781700200000000024
:1002D00010B5074C2378002B09D1FFF7D5FF054B4C
:1002E000002B02D0044800E000BF0123237010BDA2
:1002F000301A00200000000024760010054B10B5D5
:10030000002B03D00449054800E000BFFFF7CCFFF5
:1003100010BDC04600000000341A002024760010F2
:10032000FF23F0B5D6464F4646469846033BFF3B73
:100330009A46C0B5224F7B88002B2FD04346DEB2B1
:100340000223740034195B4200259946E4B210E0A0
:10035000E243D2B2120422432900380006F092F898
:1003600001357B88013E033CADB2F6B2E4B2AB424C
:1003700014D9542EECD9A92E07D84B46621CD2B200
:100380001B1B1202DBB21A43E6E75346A21C1B1BDF
:10039000D2B2DBB212041B021A43DDE7380006F0CA
:1003A00049F8142003F04CFA4346013B9BB29846AF
:1003B000044B9845BFD1E0BCBA46B146A846F0BD53
:1003C000F8190020FFFF0000F8B5DE4657464E46FC
:1003D0004546E0B506F0FEFA3E4E300005F0E6FD7B
:1003E0003221300006F0C8F8300006F023F83A4B0E
:1003F0009B4655239A465B461B68012B07D0022B70
:1004000052D0FFF78DFF5B461B68012BF7D1002709
:10041000718800293BD0FBB2984656235B420024EA
:100420000025994613E09A01D21A92009B18DBB27C
:100430005A1ED2B25B421204DBB21A4329003000CA
:1004400006F020F801347188A5B2A9421FD9200214
:1004500003F08EFD4044C0B2C343DBB2542BE2D95B
:10046000A92B09D84B46181A4300C018C0B2020283
:10047000C043C0B20243E1E75346181A4300C01814
:10048000C0B2C243D2B2120200040243D6E7300027
:1004900005F0D0FF142003F0D3F9A0230137BFB239
:1004A000DB009F42B4D1A6E773880024002BA2D0C2
:1004B00021000A4A300005F0E5FF300005F0BAFFE0
:1004C000322003F0BDF901347388A4B2A342EFD8FF
:1004D00091E7C046F81900205C2500207F7F7F004F
:1004E000F0B5C64600B5002802D0012048400021E2
:1004F000002A01D0002B51D1D024240664680025A5
:100500006A4CE5712581A5720F25A570684D2D688F
:10051000002D03D1674E3668002E45DD00230022F2
:1005200000210020644E3668002E17DDD0263606E6
:10053000B0467668B446802667463E420ED0002A12
:1005400044D0002820D1002900D184E043465B68D4
:100550001E421DD00025FF2365711BE0D0252D060E
:100560006D682D0614D50025002A05D15A1E934129
:100570007F355B421D40803500230028ECD180335D
:100580000029E8D1657105E043465B681E425ED1F3
:1005900080236371A37180BCB846F0BDD0231B06D5
:1005A0005B6800220023AAE7444E3668013E122E03
:1005B000B4D98D27424E7F003668013EBE42ADD988
:1005C000404E3668013EF82EA8D9ABE7002B0BD180
:1005D000002842D1002940D143465B681E42D7D053
:1005E000802580236571D5E7002828D1002954D1C2
:1005F000FF236371013D6B425D41334B6A421A40F8
:100600008023D0211B029C46090648686244492386
:100610000242BFD02D4B1B68013B5A1E93418022E2
:10062000520594465B42DB0E4A68DB066344134086
:100630005A1E934135225B429343B633AAE74346A1
:100640005B681E42A4D0FF2500236571A2E7002548
:10065000002365719EE76171CCE71C4BD0261B68B7
:100660003606013B5A1E9341802212059446DB0652
:100670007768634449223B4205D0352372685201B2
:10068000D2179A43B63200236271002800D081E766
:10069000FF33002900D07DE7ACE743465B681E428C
:1006A00000D175E7FF25FF2356E7C046B02500209F
:1006B000641100205C1D00206C110020601D0020D2
:1006C000641D0020681D00200088FFFF68110020C5
:1006D000F0B5DE4657464E464546D022E0B51206F6
:1006E000536885B05B0503D55368DB0400D48EE006
:1006F000774C23685A1E122A00D88EE3002B75D03F
:10070000142B06D1D0231B065B685B0501D500F0D6
:100710009BFD704B704E9846704B9B461B685A1E53
:10072000122A00D870E3002B00D0D3E2D0231B069E
:100730005B685B060CD46A4A6A4B12781B68002A15
:1007400001D1012B01D0012B02DD01235A46136098
:10075000654B9A461B685A1E262A00D84BE3002B8D
:1007600000D011E35E4B1B78002B01D000F0CAFCD7
:100770005E4B99461B685A1E122A00D832E3002BA2
:1007800000D0B7E25A4B1B68013B5A1E93418022AE
:1007900012059446D022120659425068DB06634483
:1007A000034201D100F05FFC43461A68514B0193AC
:1007B0001B68002A55D0D0208021000645682942B8
:1007C00000D134E34C4D2F78002F01D100F0F1FC23
:1007D0000F0040680740014200D02EE30120474946
:1007E0002F700870002A00DD29E32EE3D0231B06BA
:1007F0005A68394E374B316898461B680B43802145
:10080000C9000A40134387D10123236084E753685A
:10081000DB0500D56CE73A4B52681968012901D114
:1008200000F038FE920500D562E780200001D0225A
:1008300012065168084200D05AE75168090601D5EE
:1008400000F0CBFE0121274A11604021D0200C008E
:10085000000642681440114201D000F0B7FE1C604F
:1008600046E73168002912D0D02080210006456873
:10087000294201D100F088FC1F4D2F78002F01D1B3
:1008800000F02AFD4068014201D100F0FDFD1D4944
:100890000968002900D106E1994200D103E11A4913
:1008A0008B4200D1EDE23568002D00D1A7E1D021C7
:1008B00040220906486802422AD014480778002FCF
:1008C00001D000F09DFD3F3A0270002D2DDC32E09A
:1008D0005C1D0020641D0020681D0020601D00209C
:1008E000E92600206C110020581D0020541D002016
:1008F0006811002060110020E7260020E426002077
:10090000641100203C210020E4FEFFFFE8260020C7
:10091000D02212065268520604D4CA4A117800291D
:1009200000D0A8E2002D00DC66E11A00F932AA42EC
:1009300001DB00F097FCFA33AB4200D1A5E1019B4B
:100940001F68FA239C46BC44634603936B1E0295C2
:1009500001932368013B122B0BD8BB4BBB4C1B688C
:10096000002B03D104222388134323808023E370C8
:1009700023715B461B68013B122B07D80121B34B47
:100980001A880A431A808022DA701A714B461B6853
:100990005A1E122A00D916E18022AC4BDA707F323F
:1009A0001A7153461B685A1E132A00D9FAE0802296
:1009B000A64BDA707F321A7143461B689A46013B98
:1009C000132B00D9ABE04022A04C01202388134315
:1009D000D0221206238053689B0E98439C4B1B68C1
:1009E0009B46013B591E8B41DB06994680231B0524
:1009F0009C46E14453684A4613405A425341C01A48
:100A000003F038FB934B1B78002B00D167E2924B2D
:100A10001A685B6803F021FB0022904B03F0FEFA9A
:100A200003F064FB884BD0211B68E070013B5A4205
:100A300053418B4A5B4213408022120294460906BE
:100A40004A6863441A40501E8241D20122715246C4
:100A5000142A01D100F00FFC019B422B40D8D02179
:100A600040227A4C0906238813434A682380FF23D7
:100A700052010ED5764B1B68013B5A1E93418022D2
:100A800012059446DB064A68634413405A1E93419C
:100A9000DB01E3708023237105B0F0BCBB46B24696
:100AA000A946A046F0BD8025D0202F000006406852
:100AB0000740054200D0F2E66A480078002800D1DD
:100AC000EDE669480068012800D0E8E6424610607B
:100AD000664A674817700122834200D1D8E1B9E124
:100AE000029B443B482B00D9FCE1D02109064A680F
:100AF000FF2352010ED5564B1B68013B5A1E9341F2
:100B0000802212059446DB064A68634413405A1E4D
:100B10009341DB014D4AD37080231371BCE75346E8
:100B2000153BA22B00D943E2D022012012065368C4
:100B300052689B0E9843464B1B68013B591E8B41E4
:100B4000802109058C46DB06634413405A42534119
:100B5000C01A03F08FFA3F4B1B78002B00D13BE308
:100B60003D4B1A685B6803F078FA00223B4B03F0B8
:100B700055FA03F0BBFA354CE070334B1B68013B70
:100B80005A425341364A5B42134080221202944635
:100B9000D02212065268634413405A1E9341DB016F
:100BA000237159E71A00153A122A00D946E2314B4F
:100BB000B4221B68DB43DB171340244A2633D3706F
:100BC000DA231371F8E6142B00D0EAE6294B1A68F1
:100BD000244B1B78002B00D177E3274B1B78002B8D
:100BE00001D000F01EFCDA23002A00DDB43BDA213C
:100BF000164AD3701171D4E6002D00D09BE61F4A2F
:100C00001268002A03D000259A4200D093E6D02132
:100C100009064A68D20433D54A68D20530D54A68F5
:100C200040210800104011422AD10E4A1278002AB1
:100C300026D00D4A12680392012A21D1014B32605D
:100C40001870EAE2E826002064110020B025002098
:100C500068110020EA2600205011002000006040AA
:100C60000088FFFFE92600206C110020E726002005
:100C7000E5FEFFFFDC260020E62600203C210020C8
:100C80000025FA33AB4200D059E6D0231B065B683F
:100C90005B0600D5B5E2019B1F68FA239C46BC4465
:100CA00063460393B54B1B68002B02D0BB4200D0B8
:100CB0004CE6B34B1A78002A00D147E60021012206
:100CC000197000233260AF4A01930133012511707E
:100CD00002933EE6142B00D03AE5D0231B065B6856
:100CE0005B0600D434E500235A461120136002F05D
:100CF000A7FD2DE5142B00D056E58021A24B090558
:100D00001B688C46013BD0215A1E934109065A426A
:100D10004868DB06634403422FD14B685B012CD447
:100D2000D30E802252059446DB064A686344134280
:100D300023D1964B1A68531E5842434194485B4254
:100D4000034080200002844648686344034214D074
:100D50004B68DB0411D54B68DB050ED54B68012AC7
:100D600001D100F06BFC9B0507D580221201D02336
:100D70001B065B681A4200D016E500234A460F2086
:100D8000136002F05DFD0FE5282B00D0F0E47E4BF0
:100D90001B68012B00D14EE2D0231B065B681B01B0
:100DA00013D480235B05D022120651680B4202D077
:100DB0005268520109D4D022120651680B4200D069
:100DC00049E253685B0100D545E2002352460F20FB
:100DD000136002F035FD6F4B99461B685A1E122AAC
:100DE00000D9CCE4012002F02BFD4B464A461B689B
:100DF00001331360D8E4012002F022FD534652462D
:100E00001B6801331360B3E4012002F019FD5B4657
:100E10005A461B68013313609AE4012002F010FD6A
:100E200023685D4E013323605C4B984674E40D00EB
:100E300040680540014200D199E1002A05DD190012
:100E40001C31FF318A4200DCBEE119001D31FF3147
:100E50008A4216D0D02040210006426835681142EF
:100E600000D155E5474A1778002F00D19DE1406831
:100E7000014200D056E500211170414A0131117044
:100E800050E5D02109064968090610D43B49096894
:100E9000002900D0DEE04249087800281AD001225B
:100EA0004046026000203F4A08701070D2E70023DD
:100EB0003C4A112013703A4A13704246136002F004
:100EC000BFFC43461A68019B1B6819001D31FF31A6
:100ED0009142DBD03568002A00D1E5E4BAE7002270
:100EE000314B97E5029B8D3B272B00D880E1029B7D
:100EF000B53B452B00D933E2D02109064A68B92316
:100F0000520111D5204B1B68013B5A1E9341802290
:100F100012059446DB064A68634413405A1E934107
:100F20003A225B4213404633204CD021E370174BEA
:100F300009061A684868013A53425A41144B524212
:100F40001A4080231B029C4662440023024213D0B5
:100F50000D4B1B68013B5A1E93418022520594465B
:100F60005B42DB0E4A68DB06634413405A1E934122
:100F70007E225B429343FF3323718DE53C210020A9
:100F8000E5260020E82600206811002064110020DA
:100F90000088FFFF541D0020681D0020641D0020F4
:100FA000E4260020E726002000C05F40B025002096
:100FB0005346B83B242B00D811E15346DD3B3F2B71
:100FC00000D89AE153461E3BFF3B1D2B00D987E119
:100FD000D02109064B685B0500D570E20622D44C8F
:100FE000238813434A682380FF2352010ED5D14B37
:100FF0001B68013B5A1E9341802212059446DB0672
:101000004A68634413405A1E9341DB01D021E370C8
:1010100009064B685B0100D4AFE5C64B49681A6806
:10102000013A531E9A4180231B059C46D206624416
:1010300000230A4200D1A0E523710DE5282B00D042
:10104000BAE4BD4BBA4A1B68DB43DB17D37080237D
:101050001371B1E48B4200D11DE73568002A01D13C
:10106000FFF722FCF6E653685B0101D5FFF79CFB16
:1010700080235B059C46C90EC9065368614419422A
:1010800001D0FFF791FBAD4B19684B1E584243410D
:10109000AB485B42034080200002844650686344B2
:1010A000034201D1FFF780FB5368DB0401D4FFF753
:1010B0007BFB5368DB0501D4FFF776FB53680129FE
:1010C00000D1B4E29B0501D4FFF76EFB802109013A
:1010D000D0231B065A68114201D1FFF765FB5B68FC
:1010E0009B0001D4FFF760FB964B1B68DA179B1837
:1010F0005340012B01DCFFF757FB01234A461360E5
:10110000FFF752FB904B1B78002B01D1FFF730FB10
:10111000894B1B68DA179B1853408A4A126893421E
:1011200001DAFFF725FB834B1B68012B00D160E23E
:10113000D0231B065B681B0101D5FFF719FB802339
:101140005B05D022120651680B4200D0AAE152681A
:10115000520100D4A6E1D0231B065B689B0001D49A
:10116000FFF706FB012352461360FFF701FB7749A7
:101170000878002800D160E601200D7074490870DD
:10118000002A00DD5BE660E64068014201D0FFF71F
:101190007EFB6E490878002801D1FFF778FB01201B
:1011A0000A706B490870FFF772FB01211170FFF79D
:1011B000B9FB01212970002A00DC46E619001C3128
:1011C000FF318A4200DD40E6012002F039FB434650
:1011D0001A6801321A6076E600225E4BC3E40221EF
:1011E000534B1A880A431A808022DA701A7133E44A
:1011F00042214F4B1A880A431A808022DA701A71F2
:101200004AE40023544A11201370544A3360137087
:1012100002F016FB33681A000393019B15001F6848
:101220003B00FA33934200D13CE50292013A01922D
:101230000393FFF78EFBD0231B065B68DB0000D512
:10124000C3E580231B05AEE500231120236002F0D7
:10125000F7FAFFF75EFA3C4B1B78002B01D0FFF743
:1012600087FAB2E5012002F0EBFA336801331A0085
:1012700003933360D1E74A68520105D54A6849466D
:10128000114201D0FFF7E8FB5A46013A511E8A414C
:10129000802149058C46D0215242D20E0906D20641
:1012A00048686244024201D1FFF7D6FB4A68134204
:1012B00001D1FFF7D1FB4B689B0001D4FFF7CCFBBA
:1012C000642342461360FFF7C7FB2623002A00DD94
:1012D0008DE4DA23DA218BE47F392970FFF7D7FA1E
:1012E0009D235B009A4501DCFFF7B6FB3B001C33F6
:1012F000FF339A4501DDFFF7AFFBD02109064A68AD
:10130000CD23520111D50B4B1B68013B5A1E934153
:10131000802212059446DB064A68634413405A1E35
:1013200093414E225B4213403233014CE37024E47C
:10133000B025002068110020DC2600206411002068
:101340000088FFFFE0260020E6260020E726002098
:10135000E426002000C05F40E8260020E5260020AB
:10136000029BFB3B1D2B69D8D022120653685B05FC
:1013700000D5D7E00621B54C23880B435168238064
:10138000CD23490111D5B24B52681B68013B591E50
:101390008B41802109058C46DB06634413405A1EAD
:1013A00093414E225B4213403233D021E370090651
:1013B0004B685B010ED5A64B49681A68013A531E6B
:1013C0009A4180231B059C46D206624400230A42B0
:1013D00000D0D1E59F4B1B68013B5A4253419E4AC6
:1013E0005B421340802212029446D02212065268B9
:1013F000634413405A1E9341DB012371FFF74CFBFA
:10140000170049680F40BC460A4211D162460121CB
:101410000270924A1170002D01DDFFF786FAFFF786
:101420008AFA531E1343DB178021DBB2FFF7E0FB80
:10143000002D01DDFFF779FAFFF77DFA8C235B00C1
:101440009D4201DCFFF728FBF937AF4201DAFFF7D5
:1014500023FBD02109064A684B3B520111D57C4B36
:101460001B68013B5A1E9341802212059446DB06FD
:101470004A68634413405A1E93414E225B42134014
:101480003233724CE370A5E7012075492A70087069
:10149000FFF7FDF9120401D5FFF72AF9802080003B
:1014A000FFF7C5F9D022120651680B4201D1FFF7B0
:1014B0005FF953685B0101D5FFF75AF94BE6654BBD
:1014C0001A68531E58424341FC205B42C00103404E
:1014D00080208000844663441C0048680440A44681
:1014E000034200D08FE08023584C63716346A371A0
:1014F0004868CD23400111D5554B49681B68013B15
:10150000581E8341802000058446DB0663440B405F
:10151000591E8B414E215B420B403233E370531E08
:10152000FFF72EFB4B4B19684B1E58424341FC20E2
:101530005B42C001034080208000844663441D005C
:1015400050680540034265D18023404C6371A5710A
:1015500050683933400111D53D4B52681B68013B3F
:10156000581E8341802000058446DB0663441340F7
:101570005A1E93413A225B4213404633E3704B1E9E
:101580005A425341344A5B4213408022D021120216
:1015900094460906486863440022034213D02C4B4A
:1015A0001B68013B5A1E93418022520594465B42C0
:1015B000DB0E4A68DB0663441A40531E9A417E23C1
:1015C00052429A43FF322271FFF766FA426852078D
:1015D00024D401221A60FFF78BF8202108005268FA
:1015E0001040114201D0FFF730F91E4A1060FFF79A
:1015F0002CF9D0231B065B68DB0001D5FFF7B8F898
:1016000080231B059DE53B0042461D33FF331360DD
:10161000FFF722FA039B3360FFF73EFA022241688C
:101620000A4201D0FFF764F81A60FFF761F81B0463
:1016300001D4FFF7B9F88021890049E51B0401D4E2
:10164000FFF79BFB80229200FFF791FBB025002063
:1016500068110020641100200088FFFFE5260020AB
:10166000E42600206C110020F0B5DE464E465746B9
:101670004546E0B595B00793E14B039299461B6848
:101680000D915A1E51424A41DE4952420A40802180
:1016900009028C46D02109060C9048686244024039
:1016A0009346D94A0E921268012A00D164E24A6830
:1016B0000121D20E802091438A464005D0225C460B
:1016C000120656685268D14D9446621E94410894A1
:1016D000CF4CA84622682D68571E122F05D9CD4F32
:1016E0003F68013F122F00D9C0E1002700218A4640
:1016F0008B468C46C84D00910020C8492870087060
:10170000C74DC84E2968069131680491002B00D15D
:1017100039E2012B00D1E5E0009AB4249446BC44A0
:1017200063461E000293B423089864003840524276
:10173000404213402040C0185B465A425A2313408F
:10174000C0188722534652005E445B421340564401
:10175000C018310002F00CFC210002F009FC0C0062
:101760005A21200002F004FC009A0500B81A02F089
:1017700081FC53465A4608900991981A02F07AFC67
:10178000069B049A0A900B9113430693039B002B2C
:1017900003D1079B002B00D191E2A34B1B78002BB8
:1017A00000D1E4E1A14B1A685B680092019320002C
:1017B00002F060FC9E4A9F4B02F04FFC00229E4BC1
:1017C00002F031FC06000F0002F0AAFC089A099B07
:1017D00004000D000098019902F03FFC0494059567
:1017E0002200059C6400630802F037FC0022934B42
:1017F00002F014FC02F056FC39000890300002F0B0
:10180000A1FC0A9A0B9B0E00050000980199740038
:1018100002F023FC2A00630802F01FFC0022874B21
:1018200002F0FCFB02F03EFC854B1B78002B00D144
:101830007CE1844B1B78002B00D16BE1824B1B6851
:10184000DA179B185340814A1268934203DA5346D1
:10185000012B00D1C4E3039B002B00D074E2079B53
:10186000002B00D17CE36D490B78002B00D1D3E332
:10187000694D2B78002B04D0754B1B78002B00D0C2
:1018800048E1D02380221B065968D204114200D0BF
:1018900033E15B68134200D03CE10E9B1B68012BD7
:1018A00001D100F08FFCD0231B065B68DB0000D465
:1018B00030E180210905D0231B065A68114200D16E
:1018C00028E14A461268012A00D023E15B689B00A8
:1018D00000D41FE100232B70029B9C468023E3442D
:1018E000089326E14D490B78002B00D10BE2042828
:1018F00000D14FE15B4653440A936346022B00D16B
:101900005AE2009953488C46BC447B1A61460291C6
:101910000A990F900360022900D17EE106990A43DB
:1019200004990A433B49109109680A434A491191B5
:1019300009680A434949129109680A430CD1484A87
:101940001268002A00D199E3464909688A4200D109
:1019500094E30022049206923B49D8170A689A1829
:101960001B18434053435A460B605346991A3E4B4B
:1019700013931960029B022B00D004E3069B049A88
:10198000012713430693012300930A9B012B00D1E7
:1019900057E1009AB4249446BC4463461E00029367
:1019A000B42308986400384052424042134020401B
:1019B000C0185B465A425A231340C0188722534628
:1019C00052005E445B4213405644C018310002F09E
:1019D000CFFA210002F0CCFA0C005A21200002F0CC
:1019E000C7FA009A0500B81A02F044FB53465A465B
:1019F00008900991981A02F03DFB0A900B91C5E6F8
:101A0000641100200088FFFF681100209C25002041
:101A10005C1D0020601D0020F1260020F026002023
:101A2000541D0020581D0020EA26002050110020DF
:101A3000182D4454FB21094000806640000060409E
:101A4000E9260020E6260020DC260020E0260020F3
:101A5000F2260020A8250020641D0020681D00201B
:101A60003C21002060110020AC25002059464F4247
:101A700079418B466146304046424641880E0121FD
:101A80000F00B44687435846BC4460440096504417
:101A9000002D01D000F025FC002801D100F01DFC34
:101AA000B64D2E780296039E002E0ED1079E002E74
:101AB0000BD10C9E002E08D10D9E002E05D1029E4A
:101AC000002E00D01CE629701AE6AD490E78069665
:101AD000002E00D045E101360E70069EA9490E6029
:101AE000A9490E60A9490E60A9490E600299002912
:101AF00000D005E601262E7002E60E99096801293C
:101B000000D158E35968C90000D4D2E65B6813429B
:101B100000D1C8E6D022120653681B0762D4039B8B
:101B2000002B63D096490B78002B68D1029B9C4612
:101B3000E344069B002B0FD1964B1B68002B00D073
:101B4000FAE0954B1B68002B00D111E1934A126813
:101B5000FA32934200D10BE1534642465B44136094
:101B600015B0F0BCBB46B246A946A046F0BD002267
:101B70008B4B009201931AE6802049680005090FFB
:101B80008A4392469AE587490B6087490B6004288F
:101B900000D0AFE6069B049A134306937C4B1A6869
:101BA000D317D2185A40794B1B68D9175B184B4092
:101BB0009A4200DC64E1744B1B680293012B00D154
:101BC00098E2002300240A930B940023774C00250D
:101BD00008930994012302930023002401269A46C6
:101BE0009B46D3E55368DB0799D59FE7079B002BFE
:101BF00098D10C9B002B95D10D9B002B92D1534675
:101C0000012B93D1029A002A93D04B461B68012BDB
:101C100000D1F3E29446E3448BE7069A04995B4BC8
:101C20000A4306925F4A0F9312681B689A4200DBD0
:101C3000CBE1029B012B00D111E200239A46013334
:101C40009B46039B002B00D033E1079B002B00D069
:101C50002FE1009AB4249446BC4463461E000293CC
:101C6000B423089864003840524240421340204058
:101C7000C0185B465A425A231340C0188722534665
:101C800052005E445B4213405644C018310002F0DB
:101C90006FF9210002F06CF90C005A21200002F0CB
:101CA00067F9009A0500B81A02F0E4F953465A465B
:101CB00008900991981A02F0DDF90A900B910C9B9B
:101CC000002B00D069E50D9B002B00D065E5022EAE
:101CD00000D062E54B461B68002B00D05DE5013368
:101CE0001A002A402B4201D1012252425B46012BAD
:101CF00000D1E9E25346012B00D04EE52C4B1B6886
:101D00005343E41849E5039B002B00D010E1079BE7
:101D1000002B00D07DE10C9B002B00D138E2009B12
:101D2000049A9C46BC4463460293069B00201343DE
:101D300006938023089377E5184A12681D32FF3214
:101D4000934200D008E7FCE60D490B78002B00D049
:101D50008EE5D022120653681B0700D4E6E65368CE
:101D6000E4E60299002900D0CAE401312970C7E4F1
:101D7000104B089A1871DA70EEE6C046F126002082
:101D8000F0260020AC250020A8250020E026002019
:101D9000DC260020641D0020681D0020601100204A
:101DA00000C05F40481100204C1100200000F03FAF
:101DB00058110020B0250020D64B19000F930023A6
:101DC0000B60D54B1968D54B1B68994200DDDEE0EE
:101DD0005B420127994200DB3FE100230297009319
:101DE0000A9B022B00D153E153465946591ACC4B5A
:101DF00013931960CB4B1093CB4B1193CB4B129396
:101E0000069C049B11981C43109B00681B68069459
:101E100003431298006803431343234312D1C44B76
:101E20001B68002B05D00020C24A0690126893421E
:101E300008D1012001F004FD139B2A68196833685A
:101E40001A4306920F98CA170368CB188918514095
:101E50005943029B0160012B00D096E50C9B002B9F
:101E600000D199E04B461B68002B00D091E5009B08
:101E7000012B00D1DBE1012F00D1F5E0029725E035
:101E8000A74B1B689B46012B00D171E10023AA4C94
:101E900003250A930B94002300240893099400233C
:101EA0000293013387249A46002301269B4664004F
:101EB0006CE44B461B68002B00D06AE5009B012BAD
:101EC00000D1A3E10297012F00D1CDE15B46012BA8
:101ED00000D181E15346012B00D1B2E1D3468020ED
:101EE000FF230026002700220893934B934909788B
:101EF000002900D198E492490C684D68200029001F
:101F000002F0ABF800228F4B02F088F802F0CAF81A
:101F100032003B0008902900200002F09EF80200E9
:101F20000B000020874902F074F802F0BBF87BE454
:101F300000230893009B049A9C46BC44634602938A
:101F4000069B0020134306930C9B002B00D06BE4F0
:101F50000D9B584258417E2340429843FF3063E432
:101F60000C9B002B63D10D9B002B00D180E47649A4
:101F70000B78002B00D07BE4D0231B065B681B078B
:101F800000D439E65EE0634B22680F9338E7012303
:101F900000270293009323E70D9B002B59D04B465B
:101FA0001B68002B00D0F4E4009B012B00D180E1E2
:101FB000012F00D062E70123B1200293F33308938D
:101FC000624E634F634A644B90E7002B69DA029BD1
:101FD000012B00D143E101239A4600239B4630E6C2
:101FE000029A002A00D136E4D0231B065B689B00CE
:101FF00000D430E443461B68012B00DC99E5089BC4
:10200000802B00DC42E19446FF238020E3440893C8
:102010008FE5FF2308938DE7D022120653681B0734
:1020200000D480E55368DB0700D47CE57EE54649B3
:102030000B78002B00D01BE4D0231B065B681B072A
:1020400000D470E5D0231B065B68DB0700D4D0E525
:102050006CE55B4653440A9397E40027BDE60123F1
:102060009B4600239A46F9E601234E200293F33360
:1020700008933A4E3A4F3B4A374B37E7012001F07D
:10208000DFFB2A680F9B069232681B68049263E4A8
:10209000069B049A13430693334B1B68002B00DA0C
:1020A000C7E500230F9A02991360012900D1A1E02E
:1020B0000898009E38406933FF334042724218400E
:1020C000B43B1340C0188A4601F052FF5A21040065
:1020D00001F04EFF0500B81B01F0CCFF00230022E9
:1020E0000A920B93002356469B469A460890099104
:1020F000FFF74CFB002300240A930B9400231B4C96
:1021000001260893099400230225B4249A469B468D
:10211000FFF73CFBE0260020DC2600204C110020CD
:10212000AC250020601D0020641D0020681D0020DB
:102130003C210020601100200000F03FEA26002032
:102140005011002000006040F0260020BCFF9822C3
:10215000BD01D9BF6B662C98C674ED3FAAFF9822CB
:10216000BD01D93F6F662C98481100200000F0BFD8
:102170000023634C01250A930B9400230024089349
:102180000994002301265A249A460293FFF7FEFA87
:102190000D9B002B01D1FFF7AAFB009B049A9C46E4
:1021A000BC4463460293069BFF201343069380239F
:1021B0000893FFF739FB5968090109D55B68134299
:1021C00000D0A7E4D0231B065B681B0100D4A1E468
:1021D00080214905FFF76FFB039B002B4ED1079B26
:1021E000002B63D0B1230B200893464E464F474A3D
:1021F000474B7BE600239A469B462FE6D0231B06DF
:102200005B689B0049D49446E34492E47B1C0293B0
:102210000C9B002B0DD10D9B002B00D156E60B2300
:10222000B12008933B4E3C4F3C4A3D4B5EE67B1C45
:1022300002930B234E2008933A4E354F3A4A384BBF
:1022400054E6039B002B37D1079B002B2ED0B123E4
:10225000F4200893354E324F354A2D4B46E6012384
:102260009A4600239B46F9E50C9B002B32D10D9B2F
:10227000002B00D12AE6B120F423A0E64E230B2048
:102280000893264E204F2B4A234B2FE6029B80209B
:102290009C460023E34408934BE4089B802BF5DD28
:1022A0009446FF238020E344089342E48020FF33D8
:1022B00017E67B1C0293B2E74E23F4200893114EDD
:1022C000174F1D4A144B11E61C4B1B685343E4186F
:1022D000FFF763FA4E20F423CAE600273900FFF720
:1022E00006FAA84201D1FFF70BFA154D2E78002E01
:1022F00000D12970002801D0FFF702FAFFF7FCF99E
:102300000000F0BF6E662C98C674ED3FAEFF9822B9
:10231000BD01D93FA7FF9822BD01D9BF6F662C9898
:10232000C674EDBFB2FF98226D662C9870662C982B
:10233000A6FF9822A8FF9822ACFF98225C110020EB
:10234000F126002030B5002083B003F0D9FA002830
:102350000CD01D4B1B68012B1AD01C4C1C4D1B2292
:102360002100280004F0DAFF002801D103B030BDBD
:10237000220000211B23002003F0DEFA2B0007CCF3
:1023800007C307CC07C322881A80A2789A70EDE7AA
:102390006C460023E3710D4B0E4D99791A689B88AA
:1023A0000092A3802B68A171934208D022000021E3
:1023B0000823002003F0C0FA06CC06C5D6E76A68F9
:1023C00063689A42F2D1D1E754250020B02500205D
:1023D00080250020A0250020F0B557464546DE4662
:1023E0004E46B64BE0B59A461D68B54B83B01B68A8
:1023F000012B00D107E1012D00D1D6E0B14BD02057
:102400001F000F22002401264C37000600E004CBF9
:10241000310091400A0041680A4200D114439F42B2
:10242000F5D1D0221206536801219B0606D55368C8
:102430001B0603D55368DB0600D52AE1A24B002218
:1024400019709B4600230126A04D91462B80EA720D
:10245000EB602B82AA74FEF73BF9630A3340180045
:10246000E30A33401900230A33409846270B3740CC
:102470003A0001910090FEF733F843463A00019983
:102480000098FFF7F1F8630400D4B7E0904B1E709A
:1024900053461B68002B04D080232A88DB0013439B
:1024A0002B800126802322009B051A401C4200D16C
:1024B000A0E00122874B1A7053461B68002B04D002
:1024C00080232A885B0013432B800121824B834A9F
:1024D0001B6812681343824A1268134349D1814B27
:1024E0001B68002B00D0DAE05246402712682740D4
:1024F000002A00D0FCE0002F03D001202A880243EC
:102500002A80220603D502202A8802432A80A206B6
:1025100003D504202A8802432A80620703D50820B5
:102520002A8802432A80E20607D5002B01D0272BF8
:1025300003DD10222B8813432B80230703D5202291
:102540002B8813432B80A30703D540222B881343EA
:102550002B80E30703D580222B8813432B80630550
:1025600007D5614B1B68002B03DD04222B88134326
:102570002B80A4040CD52A88002900D177E053468B
:102580001B68002B00D17FE080239B0013432B802E
:10259000FFF7D8FE5A46554B12781A7003B0F0BCBC
:1025A000BB46B246A946A046F0BD464A01211700E7
:1025B000D0260F2300248C464C3736060DE0092B1D
:1025C00012D0604698407168084202D16146994035
:1025D0000C43974200D124E708CA0B2B07D00F2BDE
:1025E000EDD180200001EEE780200002EBE78020A3
:1025F0008000E8E7374B00211A7067E74A46344B02
:1026000000261A704EE74C23D0279C462D4A002402
:10261000012694443D3B3F060BE031009940786829
:10262000014202D1310099400C43944500D1F8E6B3
:1026300008CA1B2B0CD01C2B16D0012DEDD10B2B57
:102640000FD00F2B0AD0092B05D029009940E6E7BF
:1026500080214905E3E780210902E0E780210901A3
:10266000DDE780218900DAE780210905D7E7002E20
:1026700000D189E753461B68002B00D084E78023F4
:102680005B0113432B8083E70133FF3313432B801C
:102690007EE75368002D06D1DB089943CEE6142B64
:1026A00000DC66E720E75B0700D4C7E653685B06FB
:1026B00000D4C3E653685B089943BFE66411002069
:1026C00068110020B0780010E6260020B025002018
:1026D000E9260020EA260020641D0020681D002055
:1026E0003C210020581D00205C1D0020F226002007
:1026F00000222048204B02604360002F03D00122BB
:102700002B8813432B80230603D502222B881343E7
:102710002B80A30603D504222B8813432B80630749
:1027200003D508222B8813432B80E30603D5802290
:102730002B8813432B80230703D540222B88134378
:102740002B80A30703D520222B8813432B80E3077C
:1027500003D510222B8813432B80D0231B065B68E4
:102760005B0500D505E780232A881B0113432B80D6
:10277000FFE6C0465011002000C05F40F0B5CE46D5
:102780004746D02480B58027C1B024060F203F02E1
:1027900000F06AFA002201210F20A76200F050FA2F
:1027A0001B2000F061FA80231B0500220121A36297
:1027B0001B2000F045FA1C2000F056FA80235B0530
:1027C00000220121A3621C2000F03AFA1A2000F036
:1027D0004BFA8023DB0400220121A3621A2000F0BF
:1027E0002FFA052000F040FA202300220121A362E5
:1027F000052000F025FA072000F036FA8023002299
:102800000121A362072000F01BFA022000F02CFA3D
:10281000042300220121A362022000F011FA062005
:1028200000F022FA402300220121A362062000F0DA
:1028300007FA042000F018FA102300220121A362F5
:10284000042000F0FDF9012000F00EFA022300221E
:102850000121A362012000F0F3F9032000F004FA43
:10286000082300220121A362032000F0E9F90020DF
:1028700000F0FAF9012300220121A362002000F0F8
:10288000DFF91D2000F0F0F980239B0500220121D3
:10289000A3621D2000F0D4F90D2000F0E5F980239B
:1028A0009B0100220121A3620D2000F0C9F90E2036
:1028B00000F0DAF98023DB0100220121A3620E205F
:1028C00000F0BEF90A2000F0CFF980238026802591
:1028D000DB00A362002201210A2000F0B1F9B6005A
:1028E000092000F0C1F9002201210920A66200F0B0
:1028F000A7F92D010B2000F0B7F9002201210B20D0
:10290000A56200F09DF90C2000F0AEF980235B0178
:1029100000220121A3620C2000F092F9082000F0AF
:10292000A3F980235B00002201210820A36200F0AC
:1029300087F9514B514A1B785149137009785170EE
:10294000894650490978917088464F490978D17075
:102950008C464E4960680A68012A28D0304229D145
:102960000125012392244A4805604A484481D02425
:102970002406606800062BD56068800623D4D02525
:10298000002445482D0604606C680020640628D4A5
:1029900000220A60D02424066168C9042BD561682E
:1029A000C9055BD401243D490C60012127E0384270
:1029B000D6D03500D0200006406805423DD1002524
:1029C00000239324CFE748460028D8D0012850D1CF
:1029D0000124314804600120D0252D066C6864066E
:1029E000D6D56C6864072DD4D024012224060A6051
:1029F0006168C904D3D4002428490C600021000276
:102A000012040343090613430B430093EFF31084AE
:102A100072B68021F8204901400304F09DFD802218
:102A2000F82069465200400304F086FD84F31088C4
:102A300041B0C0BCB946B046F0BD012BBFD10125A5
:102A4000922490E76C68A40710D54446002C9FD0D0
:102A5000012CC9D0022C09D0D2B29BE761460029D3
:102A6000C9D001299ED00D490978C8E702220A6021
:102A700090E709480078AFE700001F104C210020C4
:102A800001001F1002001F1003001F10641100201E
:102A900054250020341100206C1100206811002002
:102AA00030B5144C83B000211B22200001F0E8FD5A
:102AB000114B00226380114BE274A3808023627566
:102AC000E2750F4AA3717E3B2375A375237613002D
:102AD00023CC23C307CC07C322881A80A2789A701C
:102AE0006A46084B0093084B0193084B11CA11C367
:102AF00003B030BDB02500200F80FFFF8080FFFFB6
:102B00008025002000000F8080808000A02500200C
:102B100010B503F023FAFFF731FEFFF7C1FF0021E4
:102B2000002003F0B5F8054803F028FF012000213C
:102B3000404202F067F9FFF74FFCF7E7C9030010C6
:102B40000048704734110020034B1B68012B01D053
:102B5000024870470248FCE7542500202C780010FA
:102B6000D4770010002070477047C046034B1B68A5
:102B7000012B01D0024870470248FCE75425002091
:102B8000B07700108C77001070B5002822D0022892
:102B900029D8164B8000C558280004F011FCC0B29B
:102BA000041C1F2814D8C026E4B2631CDBB25B00EF
:102BB000B6001E43002808D000230D4AE95C01330B
:102BC0001180D9B202328C42F8D80A48068070BD12
:102BD0001F24E8E7C126054B02220548196801F0C9
:102BE00055FDB600F1E70020F1E7C04628110020AE
:102BF0006E1D00206C1D002010B55223192280216B
:102C0000014803F001FA10BDF8190020094A8300B9
:102C10009A1810B514684022544080322240064C65
:102C2000C000A44663441A60044B9C466044416063
:102C300010BDC04604C0014004D001400040014026
:102C4000074B8000C3181B68C90092000A435A4012
:102C50000C231340034A9446604403607047C04607
:102C600004C0014004D001400123D0228340120659
:102C700093629361094A83009A1811684022514077
:102C800080320A400649C0008C4663441A60054BF6
:102C90009C460523604443607047C04604C0014021
:102CA00004D00140004001408023DB051868000F7C
:102CB0007047C0460FB400B5084883B001F060FE0D
:102CC000049B002B07D005A91800019101F0ECFC32
:102CD000034801F055FE012001F0FEFC4076001093
:102CE00050760010EFF3108072B6034A1368002B81
:102CF000FCD0BFF35F8F70472C0100D0BFF35F8F14
:102D00000022024B1A6080F3108870472C0100D01B
:102D100070B5EFF3108C72B60D4D2B68002BFCD004
:102D2000BFF35F8F0724CB08C618C05C01230C409B
:102D3000A3401C000440034207D118433070BFF386
:102D40005F8F2C608CF3108870BD1000FFF7B2FF0E
:102D50002C0100D0F8B54746CE46884680B5EFF343
:102D6000108C72B6214D2C68002CFCD0BFF35F8F05
:102D70009A422CD8D4080727055D0619012417406C
:102D8000BC402C421FD007210127894609E0D40806
:102D9000055D06194C4639001440A1400C0029423B
:102DA00011D001329342F2D201204042BFF35F8F33
:102DB00000220E4B1A608CF3108800280FDBC0BC79
:102DC000B946B046F8BD254310003570EEE7BFF3B5
:102DD0005F8F00232B608CF3108801204042434614
:102DE000002BECD00898FFF765FFC0462C0100D0FF
:102DF000044A1078431CDBB2172B00D91023137040
:102E00007047C0467011002010B5064B064C82B0CA
:102E10000100009318221F232000FFF79BFF02B040
:102E200010BDC04654760010082100200021044B3C
:102E3000044ABFF35F8F02C39342FAD17047C04682
:102E4000000100D0800100D0054B064A1360064AFD
:102E5000136053609360D360136153619361704753
:102E60008080808000E400E004E400E01F2318403C
:102E70001E3B8340002905D0C021044A490053501D
:102E800013607047802201498B50FAE700E100E0AF
:102E900001228240034B1B6813405A1E9341D8B253
:102EA0007047C04600E100E070B50D00EFF31086FA
:102EB00072B60F4A1368002BFCD0BFF35F8F0D4B27
:102EC00010309B6884001B590B4A934203D09D42EB
:102ED00001D000F00FFF074B9B681D51BFF35F8FC0
:102EE000BFF35F8F0022024B1A6086F3108870BD1B
:102EF000240100D000ED00E0C1010010F0B55746FC
:102F00004E46DE464546E0B585B006000091170006
:102F1000EFF3108B72B66A4A1368002BFCD0BFF334
:102F20005F8F0025674B5D579A46002D00DAA9E0B8
:102F30006B00654C01935B199B009846A146C14408
:102F40004B4652469B7910361370604BB6009B6817
:102F500099590B1B2F2B33D95D4B994200D0ACE014
:102F6000019B42469C465B4B6544AD0063535A4B04
:102F70000232A218043B9B1A1B05584A5B0D6519C7
:102F800013436B80564B0121AB80FF23AB71009B39
:102F9000EF71AB604B460B4319004C4B9B6899514A
:102FA000BFF35F8FBFF35F8F0022454B1A608BF337
:102FB000108805B0F0BCBB46B246A946A046F0BD9D
:102FC00001200A008243D3798C46BB4231D8454662
:102FD000130044491B1B5B415943090D3D4B63538F
:102FE0003D4B02356519043B5B1B1B053B4D5B0DDF
:102FF0002B43AA464D466B800425AC465546E0441B
:10300000131F44441B1B1B055B0D1D434B4699714D
:1030100000999D8099604946DF71334B01431360ED
:10302000BBE75800C01880002018C179B9422FD9D9
:1030300002000623D356002BF3DA02932B4B614692
:103040000393131D9A4604235B429C46E144504679
:103050004B461B1A1B055B0D9C46204B95719846F1
:103060006346404603439380019B5A199200039B99
:10307000A418A380029B1C4AA371009B2260E771E5
:10308000A3608AE700F036FE002553465D574FE700
:10309000908802934005131D9A46031561469C468D
:1030A0004046D444634604302018181AE023000533
:1030B000400D1B0218430390C5E700F01BFE4FE7CD
:1030C000240100D0EF2600207411002000ED00E064
:1030D000C101001000A1FFFFA411002000E0FFFFCC
:1030E00001BDFFFFAAAA00000148804701BD000002
:1030F00070B501240443EFF30581EFF3108C72B631
:10310000214A1368002BFCD0BFF35F8F1F4B0500D3
:103110001F4AED1A6D416A43120D1E4D8900AE68BB
:1031200052B27658A6421CD00621595691421CD064
:1031300012215956914222D01E215956914220D037
:103140002A2159560324914210D0134B19781A7032
:103150008171BFF35F8F00220B4B1A608CF31088D4
:1031600070BDAB680D4C5C50EFE70024610009199D
:1031700089005B18FF21997109499980E5E70124CD
:10318000F4E70224F2E7C046240100D074110020C5
:10319000AAAA000000ED00E0EF260020C101001007
:1031A00001BDFFFF024B9C466144890001607047EE
:1031B0004000003470B5114C114DAC420FD2FF26C7
:1031C0002368002B0CD0FFF713FE01002000FFF74F
:1031D000E9FFA680BFF35F8F0834AC42F0D370BD27
:1031E000FFF706FE01002000FFF7DCFF2671BFF3AA
:1031F0005F8F0834AC42E3D3F1E7C0466817002084
:103200007817002010B50400FFF7F2FD0100200040
:10321000FFF7C8FFFF232371BFF35F8F10BDC046C8
:1032200010B504000120FFF7EFFD034BC3189B000E
:103230002360BFF35F8F10BD400000340A4B196854
:10324000EFF3108072B60A68002AFCD0BFF35F8FDC
:103250001B68BFF35F8F00221A6080F3108840BFA5
:10326000002000217047C046D8260020F0B5DE4679
:1032700057464E464546E0B583B0EFF3058203233B
:103280001340B54A990052580091904601229A4045
:103290009346B24B1A60B24B01935B46B14843630D
:1032A000434608229B5E9946002B3ADA43469B88A8
:1032B0001BB2002B00DB9DE043469B79002B00D026
:1032C000E1E0434608241C5F002C20DB43465A699A
:1032D00063001B19DB00D3189D68DC686B1C00D1F0
:1032E00003E1A048009984466144826A0B69AE1AE2
:1032F0009B1A9E4213D35A46036A1A420FD099482A
:1033000000F040FB8C4202DCC7D18542C5D940BFEA
:1033100003B0F0BCBB46B246A946A046F0BD0D6165
:10332000EDE7424652695B0092464B44DB009A440B
:1033300053469E68DF6800F025FB8F42B6DC00D163
:10334000F8E0002F00DAD9E05246534654691B6971
:10335000019A934200D1CCE0414652460820085ED3
:103360005288000421001043984704000D002300F8
:103370002B4300D1C2E0002D00DBDFE0300039003C
:10338000001BA94153469860D96000229A5E002A2A
:1033900000DA8BE743465D6953009C18E4002C1962
:1033A000A768E4688C4200DD80E702D1874200D93B
:1033B0007CE74646328108360DE08C4200D1C6E0FB
:1033C0001E000023F25E002A0ADB53009C18E40072
:1033D0002C19A768E4689B18DB00EB188C42ECDD25
:1033E00053461A804B46338043469B881BB2002BC2
:1033F00000DA61E743461A69EFF3108172B6136889
:10340000002BFCD0BFF35F8F43469E8801234246CA
:103410005B42938036B21369BFF35F8F00221A605C
:1034200081F31088002E00DA46E743465D690833D1
:1034300042469C467700BF19FF00EF19BB68604603
:1034400098460823D15E9246FC68002907DA0EE010
:10345000A24246D018000023C15E002906DB4B00C3
:103460005B18DB00EB18DA68A242F1DD52460680F9
:103470000023FE5E3980002EDCDA904643469B79BD
:10348000002B00D11DE70023424693714346464678
:103490000821595E08364B1C00D138E7474689465B
:1034A000556902E006004B1C18D04B005B18DB008E
:1034B000E8180A008C46E95E43881BB2002BF1DA5B
:1034C00001235B42DC178360C4604A4503D031802E
:1034D0003B8903803A81E1464B1CE6D1B8464C4615
:1034E000F2E69A684245B5D9C0E7631C00D0F8E619
:1034F00005E7200023699847002825D15346424616
:103500001B8813811269EFF3108372B611680029CA
:10351000FCD0BFF35F8F4246514652880A80424634
:10352000494651801269BFF35F8F0021116083F318
:103530001088BBE6864200D803E7B7E6094800F0EA
:1035400021FA001969411DE7656824680FE7874281
:1035500000D835E744E7C046702500203C700540A0
:103560006D3200100040054070B52E4C2569002DCD
:1035700004D00A212C48FFF715FE70BD2B4E032105
:10358000300000F0F5F9E660FFF732FC284B03222B
:103590009C46D02322701B061B6801216370254BBB
:1035A0006044A3600F238000206102206380636970
:1035B0004942A18019800231198647311D83585232
:1035C00018315A5275325C39995218320131995278
:1035D0001832013199521832013199520835183296
:1035E0009D520231183299521832013199521832D3
:1035F00001319952183201319952183201319952E0
:103600001832013199520C4B0C49DC6001303562A3
:10361000FFF74AFC01210320FFF728FC084B1D603F
:10362000A7E7C046BC110020D82600200040054076
:1036300040000034FFFF1000702500206D320010A4
:103640003860054070B501000469EFF3108C72B664
:1036500020680028FCD0BFF35F8F02200D5E4C690C
:1036600068004019C0002418002D37DB20884880EE
:103670000869BFF35F8F002606608CF31088E36053
:1036800063880498013320615B0405985B0CA26099
:1036900060611A1C002B1FD093B22804628018436B
:1036A0000A69EFF3108C72B61368002BFCD0BFF3DD
:1036B0005F8F8B8823808D800B69BFF35F8F002223
:1036C0001A608CF310880B7801329A40CB68084955
:1036D0008C4663441A6070BD0122DDE70B69BFF3BD
:1036E0005F8F00221A608CF3108801204042F2E7BD
:1036F0003C20000010B543890A1493421ADD5300A0
:103700009B184269DB00D3180469EFF3108C72B682
:103710002268002AFCD0BFF35F8F5A88090494B254
:10372000090C8A4208D00369BFF35F8F00221A6038
:103730008CF31088002010BD8022120214435C809C
:10374000012302698371BFF35F8F002111608CF345
:103750001088044902788C469340C2680120624474
:103760001360E8E73C200000F0B504000D000626D9
:103770007642F717C64636196F4100B582B08F42C0
:1037800014D811D000F006F932003B00121A8B4118
:10379000002B17DC002B47D02000290000F004F993
:1037A00002B080BCB846F0BD8642EBD900220023AF
:1037B00016001F0000F0EEF832003B00121A8B4199
:1037C000002BE7DD00F0E6F832003B00121A8B41D7
:1037D000002B0ADB00230193154B320000931548A0
:1037E0003B00FFF72FFF0028D6DB00239C46B046A6
:1037F000114A124E736A9F4204D8B16A8845CBD9E8
:103800009F42C9D11168EFF3108072B60B68002B8C
:10381000FCD0BFF35F8F1368BFF35F8F6146196001
:1038200080F3108820BFE5E7002AB5D0CAE7C0467C
:103830003D320010BC110020D82600200040054079
:1038400070B5060000F0A6F8FA2204000D0000236F
:1038500030000021920000F039FE802300196941F8
:103860001B06994202D3012002494042FFF77CFF28
:1038700070BDC046FFFFFF7FF0B5D6464F464646B7
:10388000C0B504000D0082B0EFF305878946002F14
:103890000ED0344900204B6AAB4203D38A6A013010
:1038A000A24226D302B0E0BCBA46B146A846F0BD5B
:1038B0002D4B9846DB689A46434650461E7800F0EA
:1038C00061F80B00514602000436B6007158200022
:1038D0008E1A2900801A99418F4211DC0ED020BF28
:1038E000204A0020536A4B45DCD3926A0130A24241
:1038F000D8D25B1B5A1E9341D8B2D3E78642EED989
:1039000000F048F822002B00121A8B41002B1ADB22
:1039100000230193154B2200009340462B00FFF734
:1039200091FE011E0FDD0F4B5A6A4A4517D39B6A61
:10393000A34212D34046FFF7DDFE0A4A0020536A35
:103940004B45AFD3D1E7074A0020536A4B45A9D373
:10395000926A0120A242A5D2CBE74A45EAD120BF14
:10396000E8E7C04600400540BC1100203D32001091
:1039700010B5024A0248FFF7CBF910BD707600106F
:103980000C2100200300416A0A00986A596A8A42A1
:10399000FAD17047034B596A0A00986A596A9142F2
:1039A000FAD1704700400540064A536A9942FCD854
:1039B00007D1044B02E05A6A914202D19A6A8242CC
:1039C000F9D3704700400540F8B5DE464E465746ED
:1039D0004546E0B58B4605000A991800160000F030
:1039E000EFFA0A9B6C001F02324B64199C46A4003C
:1039F0006444636881469F4200D967602B1FDBB235
:103A00009846012B30D9C02380229B01E318120174
:103A10001A60294BAD0059599A4600291BD17301F0
:103A2000E026226853401E40802342465B01E31893
:103A30001E60012A30D9802380229B01E3181201E5
:103A40001A6053464A4667605A51F0BCBB46B246BC
:103A5000A946A046F8BD586900F0B2FA013043000B
:103A60001B18033BFDD2DAE75B46012BCBD1C02309
:103A700003229B01E3181A60023AA3681A42FCD0A1
:103A80007301E0262268AD0053401E4080230A4A9D
:103A90005B019246E3181E605A462168514003229A
:103AA0000A401A6001225B469A40A3681A42FCD081
:103AB000C1E7C0460080004014210020F0B5464612
:103AC0004F46D646C0B51F00344B44009C462418D0
:103AD000A4006444636888461600FF2B02D8802344
:103AE0005B006360031FDBB29A46012B30D9C02311
:103AF00080229B01E31812011A60294B8500595955
:103B0000994600291BD17301E026226853401E40CC
:103B1000802352465B01E3181E60012A30D98023BE
:103B200080229B01E31812011A6080235B0063600E
:103B30004B465F51E0BCBA46B146A846F0BD586955
:103B400000F03EFA013043001B18033BFDD2DAE7D8
:103B50004346012BCBD1C02303229B01E3181A60FB
:103B6000023AA3681A42FCD07301E026226885005D
:103B700053401E4080230A4A5B019146E3181E60B1
:103B800042462168514003220A401A6001234246FE
:103B90009340A2681342FCD0C1E7C04600800040B9
:103BA00014210020014B8000C058704714210020D0
:103BB000F8B5040021481E0017000D0000F000FABF
:103BC0000100380000F0FCF9069B36041B031E437D
:103BD0002368002B20DB1A4B1A49E3185A1E934125
:103BE0008022920194465B421B0B174A1B036344DD
:103BF0001360164A13601F000A689743FBD1144BE9
:103C00002560E2182123A06013602368002BFCDAF2
:103C10000823E6601360F8BD3F2322681340AB42DF
:103C2000D9D1A3681B051B0D8342D4D1EE22E368D2
:103C3000D2021340B342CED1EDE7C046001BB7001D
:103C40000040FDBF08C0004000E0004000F0004020
:103C5000043000008023024A9B000B43D36270476C
:103C600000800540142310B50100188804331B8818
:103C7000984710BD162310B50100188802331B8821
:103C8000984710BDF8B54746CE4680B50F1E19D0EF
:103C900014239946043304000025012698464B4618
:103CA0001888434621681B88984701C4431E9841E1
:103CB000013540420640AF42F1D13000C0BCB946A8
:103CC000B046F8BD0126F8E7AA23064A1B01136097
:103CD0002133FF33D3600449044B19605368002B30
:103CE000FCDA70470040024000B0FA000060024079
:103CF0007047C04610B50148FEF7DCFF947600100F
:103D000070B5074D074EB54209D20024013E761B1F
:103D1000B60808CD984723000134B342F9D170BDED
:103D2000D87500101476001070B5074D074EB542D7
:103D300009D20024013E761BB60808CD984723001F
:103D40000134B342F9D170BD0C7600101476001026
:103D5000054B064A06491A60064A074B1A601000CE
:103D60000B689843FBD1704700E00040BFCDFBFEDD
:103D700008C00040FE7F3C0000F00040044BDB6CBC
:103D8000002B03D18022034BD2021A607047C04639
:103D9000000011504C201150044A054B1A60054A8E
:103DA0001368DB018033FBD17047C046FFFFFF0182
:103DB00000F0004008C000404022034B9A675A6759
:103DC0001A67DA667047C04600F0014010B5FFF789
:103DD0002DF810BDF8B52749274C284D641AA610B8
:103DE0003200302E00D930222800920000F04EFC24
:103DF000BC2C3BD830202F232C196407204A801B71
:103E0000E40F9B1B052B16D93700002C02D0B30002
:103E1000771CEA50001B33199B004108EB18C900BE
:103E2000C9181A605A6008339942FAD10123034233
:103E30001CD09843C619B300EA50731C2F2E15D01E
:103E40009B00EA50B31C2E2E10D09B00EA50F31CAE
:103E50002D2E0BD09B00EA50331D2C2E06D09B003C
:103E6000EA50731D2B2E01D09B00EA50054B9D603C
:103E7000F8BDC04600010010C00100100000002085
:103E8000C101001000ED00E0002310B5294C82B004
:103E9000A367FFF719FF0122274B1A60636C012B00
:103EA000FCD10322254B1A60224A936B012BFCD1D3
:103EB000013300930121224A22480433FFF778FEA0
:103EC000052301210093204A2048FFF771FE0022BC
:103ED000022104201E4BFFF7F1FD002201210520E5
:103EE0001C4BFFF7EBFD0022002107201A4BFFF7C8
:103EF000E5FD002200210820174BFFF7DFFD80239E
:103F0000DB000093002200210920134BFFF75CFD2A
:103F10000022104B00210620FFF7D0FD0420FFF700
:103F200041FE0E4900F04CF801000020FFF792FE20
:103F300002B010BD008000403CB0004030B00040F6
:103F4000002F685900800240008C864700C0024064
:103F5000001BB70040597307006CDC0240420F00A1
:103F600001480421014B1847E0110020853C001056
:103F7000124A936F9B0815D29066D166002905D02E
:103F8000FFE7FFE7FFE7516F106F704704B580212F
:103F90000906C2175140002800D0C84303F0D4FAE4
:103FA000002104BDF0B5146E556E576F166FFFF704
:103FB000E3FF1466556657671667F0BD000000D032
:103FC000114A936F9B0813D210665166002905D0E1
:103FD000FFE7FFE7FFE7516F106F704704B5002858
:103FE00001D00020C04303F0AFFA002104BDC04659
:103FF000F0B5146E556E576F166FFFF7E5FF146638
:10400000556657671667F0BD000000D04840414034
:10401000484018B4134B5B68019308BD18B4114BAA
:104020001B68019308BD94460F4A926F920805D20F
:10403000624618B40B4BDB68019308BD0A4AF0B521
:10404000146E556E576F166F6246FFF7F2FF064A01
:104050001466556657671667F0BD18B4014B9B6828
:10406000019308BDF8180020000000D000210028AE
:1040700005D17047C1174840401AFAD0C90713B597
:10408000064B1B6898470CBC441CA2401005120B41
:104090000349091B09051943114310BDD42500200C
:1040A0001F04000010B54C00620D8023D218DB0005
:1040B000D21A5B057E2A10DD9E3A13DACC1709036B
:1040C000490819435242D140640001341532202A74
:1040D00005DAD0400843604310BD002010BD0846FB
:1040E000604310BDC80FC018013810BD18B4024B92
:1040F0005B6A019308BD0000F818002018B4024B59
:104100001B6E019308BD0000F8180020024A034B03
:1041100000B500F0BDF900BD182D4454FB21194035
:104120008A0002D3920D092A04DA18B4044BDB6B1F
:10413000019308BD00B5FFF7E9FF04BC9646F4E71C
:10414000F81800208A0002D3920D092A04DA18B464
:10415000044B1B6C019308BD00B5FFF7D7FF04BCEF
:104160009646F4E7F818002010B50148FEF7A2FDC6
:10417000A0760010132370B51D78012D19D014DD21
:104180001D48FFF777FD06001C48FFF773FD1C4C28
:1041900080223100200000F079FA022D06D0194863
:1041A000FFF760FD184B186070BD154C174BA364EA
:1041B000F5E7174B124C23606360A360E360236153
:1041C0006361A361E36123626362A362E3622363C9
:1041D0006363A363E36323646364A364E3642365A9
:1041E0006365A365E36523666366A366E366236789
:1041F0006367A367E367D9E75344000053460000B1
:10420000F81800204C330000D4250020A1440010F1
:1042100069410010F0B545464E46DE4657461C0043
:104220001300E0B589B0049305944D00129B9046AD
:1042300064006A0D81469446640D002B02D01A007A
:10424000002313608F4DAC456FD0002C6DD06346BA
:10425000002B00D174E002000B00AC4267D0651E59
:10426000654564DC8022CB0F9B460B0352031B0B7E
:1042700013431F00059B4E461B031B0B9A464346E8
:10428000029353461A430392654500D18FE05B4683
:10429000002B00D1ADE03B003200002756429F4189
:1042A00063461D1B002D00DCB4E00120039B40424F
:1042B0001911FFF785FE00239B461D3381469A4660
:1042C000A846079418E032009A4001923300AB40B0
:1042D00020000093E117029A039B00F0F7F8009E7C
:1042E000019F5B46A346AB409B4443465B1B361A8B
:1042F0008F419846002B26DD45460C2D00DD0C2510
:104300004B46BC115C4353465B1B1C412B000134E4
:104310006410203BD7D5202332005B1BDA4013000A
:104320003A00AA401A430192D0E70022564B1000EF
:10433000190009B0F0BCBB46B246A946A046F0BD84
:1043400000220023F3E7079C029A039BBB4200DD97
:104350007CE000D176E0029A039BB61A9F41BB42F3
:1043600000DD8BE000D185E0029A039BB61A9F41E5
:1043700002239C46E3443200029803993B009219C1
:104380007B418B420BDC01D1824208D802998A42E0
:104390001BD1039A934218D15B46DB0715D5029ACD
:1043A000039BB61A9F4101239C46E3440DE09742CC
:1043B0003FDD029A039B594692185B41002948D180
:1043C000B61A9F4101232C009B46059B002B02DA65
:1043D0005B465B429B46129B002B01D05A461A60FB
:1043E0002A4A3000121B3900FFF788FE02000B003A
:1043F0009DE763461D1B002D00DD56E7029A039BD7
:10440000BB42CCDC33D0029A039BB61A9F410123F6
:104410009B46B0E700239B46029A039BB6185F4178
:10442000002F1FDAB6185F4102235B429C46E3442B
:10443000A1E7029B039CA74201D19E42B9D802008A
:104440000B0074E7029BB34200D884E7002F92DA96
:10445000E2E7921BBB411F0001235B4216002C00C8
:104460009B46B2E701235B429C46E34483E7B242AA
:10447000C9D994E7029BB34200D875E701239C4653
:10448000E34478E7FF0700000000F07F33040000FA
:1044900010B5002482B00094FFF7BCFE02B010BD3E
:1044A00007B5604601880A0A0230DF2AFAD1C9B28C
:1044B000820804D3028840880004104300E00068AA
:1044C000014A5050039007BDF81800205143434360
:1044D000C9188C46110C83B24B4310B4040C6143D1
:1044E00092B280B2504362431C041B0C001910BCF2
:1044F00059411304120CC018514161447047000027
:104500004840414048400E4B5B6818470C4B1B68C5
:1045100018470C4A936F9B0802D2094BDB68184777
:10452000F0B5146E556E576F166FFFF7F6FF054A1C
:104530001466556657671667F0BD014B9B681847B0
:10454000D8250020000000D0491A002808D10846CC
:1045500070470000C10FC90700D54042002817D09E
:10456000F44603B40B4B1B68984706BC81409E3849
:104570004042803107D20B0607D04900490AC005E6
:104580001043084360470130F8E7490A8902F5E71C
:1045900070470000D4250020014B5B6A18470000DB
:1045A000D825002010B50148FEF784FB3C760010AA
:1045B000132310B510481C78FFF75CFB0100012C99
:1045C0000AD003DD80220D4800F060F80C48FFF7A8
:1045D00049FB0C4B186010BD084C5422200000F021
:1045E00055F82200084980322368002B00D1216051
:1045F00004349442F8D1E9E753460000D82500205E
:104600004C330000D4250020A5450010F8B5060065
:104610000C000C4F380002F0CFFF2100300002F0F8
:10462000FFF90500380002F077FF7443002D05D034
:10463000054B2C199C4201D82800F8BD0348FEF711
:1046400039FBC0466817002000000420B87600102F
:1046500070B50400054D280002F0AEFF200002F006
:104660008BFE280002F058FF70BDC046681700207E
:1046700001480421014B1847F0110020853C00102F
:10468000014B1B6818470000F0110020014B5B68CC
:1046900018470000F011002010B5002800D110BD0F
:1046A00000F022F9FBE7C04610B5094A0300146880
:1046B00084B0002C08D0012200910648524203A980
:1046C000A047012004B010BD00F05AF90020F9E71E
:1046D000582500209946001000BEFDE7094A030056
:1046E0001068002805D00849C3188B4207D813600A
:1046F000704706480449C31810608B42F7D901205F
:104700004042F5E75021002000000420F42600205C
:1047100010B5FFF7E1FFC04670B5FFF7F1FA074D9E
:10472000074EB54209D20024013E761BB60808CDDB
:10473000984723000134B342F9D170BD14760010BC
:1047400024760010030010B5080011001B6898477C
:1047500010BDC046F0B5C64600B5437D07000D004C
:104760001600002B38D0002A2EDD00216A1E90464C
:104770006A5C037D4C1C00200A2A0CD0A64216D08D
:1047800043461B5D21000D3B5A4253416A5CDBB23C
:104790004C1C0A2AF2D1002BF0D1884217DB0221EF
:1047A00010483B689847A64207D02000E8E78642B9
:1047B00003DD311A3B6828189847AD19013D2B7865
:1047C0000D3B5A4253413B7580BCB846F0BD091AB7
:1047D0003B6828189847E2E70368110028009847CB
:1047E000F2E7C04650790010F0B5DE4657464E4617
:1047F0004546E0B585B017001C0006000D00FFF728
:10480000C9F80023314A12184B41802109068B4216
:1048100002D301222E4B52422E4908008A4602F052
:10482000B3FE01906B1C03D1300002F0C9FD0500FE
:10483000002C26D0284B9846284B1C68002C15D0FD
:10484000002F21D1264F02E02469002C0ED02368CE
:10485000002BF9D03B68002B01D09C42F4D1200002
:104860002A003100C0472469002CF0D1019B002BA5
:1048700028D1280005B0F0BCBB46B246A946A046E8
:10488000F0BD184B9846D7E7154B994602ABDF1D94
:104890000A239B4602E02469002CE7D02368002B02
:1048A000F9D04B461B68002B01D0A342F3D12A005C
:1048B00031002000C0475B460122390020003B70D8
:1048C000C047E8E7504602F027FED2E740420F001B
:1048D000FFFFFF7F70170020554700104021002088
:1048E0004821002045470010F0B5CE46474680B528
:1048F00083B06B460600DD1D2870FFF74BF80023E0
:104900001A4A12184B41802109068B4202D3012218
:10491000174B524217490800884602F035FE164BE5
:1049200081461C68002C14D0144F02E02469002C2E
:104930000FD02368002BF9D03B68002B01D09C429C
:10494000F4D1200001222900FFF704FF2469002C84
:10495000EFD14B46002B05D1300003B0C0BCB946A7
:10496000B046F0BD404602F0D7FDF5E740420F00EB
:10497000FFFFFF7F7017002040210020482100200A
:1049800070B5040002F01CFD0123010005000122A6
:104990002000FFF729FF084B1C68002C06D0636835
:1049A000002B05D098472469002CF8D1280070BD51
:1049B0002469002CF3D1F9E740210020F8B500F07C
:1049C00043F90C23194DFF22AB6705201849FEF768
:1049D00095FA184C402200212000FFF751FE402795
:1049E000002301262121144A66702783A2601360E8
:1049F00063545F31618445396354104A10496360E0
:104A0000E2602787A1620B606362E26202F08CFDC4
:104A100080239B052E64EB6490230A4A0120EA5010
:104A20008022094B5202DA64F8BDC04600001150E2
:104A30006503002054210020840010500001105014
:104A40008000105010D001000020115010B501213D
:104A50000520FEF70BFA10BD10B500220021024818
:104A600000F012F910BDC04674210020044B1970EB
:104A7000002904D080219023024A8902D150704736
:104A8000EC260020002011500B785B0602D14B78F9
:104A9000052B00D070478A78014B1A60FAE7C046B0
:104AA00000001150F0B5C646C87800B58007830FE6
:104AB0001800012B60D08F780A794B797F2139401B
:104AC000FC091B024E001343334D32195201AA1840
:104AD000977001276740577000275B055B0DD77003
:104AE0001383D076B846CA00012C32D02B4FBC4677
:104AF0008F016244BC46AC446746BA6047461760C3
:104B0000002932D0264AC90090466246414451608D
:104B10003F223F339343022837D0224937190A688E
:104B20007F01D3180B602049EF19FA608B422ED811
:104B300036197601AD19EB7E1C499B064A4013439A
:104B40008022120613436A681360012080BCB846B5
:104B5000F0BD174FBC468F016244BC46AC4467466B
:104B6000BA6247461760002908D1002364012C1956
:104B70006360104BE360E8E70020E7E70B4AC900F9
:104B80009046624641445162C2E75B00C5E7FFF7C9
:104B9000B1F8FA68CCE7C0465421002084001050D8
:104BA000040010506C250020FF0F10500000105022
:104BB000800010500001105010B502F0B5FC10BD7F
:104BC00010B57F200C0020404000E40911000019BE
:104BD0001A00034B4001C01800F056F8012010BD28
:104BE000542100207F23180010B50840CA090B4249
:104BF00003D107497D3B9B1A8B66400080188022B9
:104C0000044B40010021C018120102F0CDFC10BD80
:104C100000201150542100207F22130010B50B40BA
:104C20000A4200D110BDC9095B005B1804485B0152
:104C3000C018002300220349C37002F0B5FCF1E75D
:104C400054210020FFF7FFFF80220A4B520410B5C9
:104C50001A60094B09491A6010000B689843FBD190
:104C60008022002152010648FFF70AFD0922054B68
:104C70005A6710BD00E0004000F0004008C000404E
:104C80000000105000001150002310B5C382013302
:104C9000828283760161040002F06EFC002804D059
:104CA00080219023074A8902D150200002F08CFC19
:104CB000002802D00123237710BD200002F06CFCF5
:104CC000FAE7C04600201150002070477047C046E8
:104CD0007047C04600207047002070470020704792
:104CE0007047C0467047C0467047C0467047C046D0
:104CF000024B5878431E9841C0B27047E41E002012
:104D0000024B18784007C00F7047C046E41E0020D1
:104D1000F0B5D6464F464646C0B52F4B07009A46DB
:104D20001B780E00FF2B01D0012041E000293ED06E
:104D3000002154222948FFF7A3FC0022284C294BCC
:104D400020001A70FEF75EFA274B1C60274C2000EB
:104D5000143CFEF765FA200001F0E0F8244B254DE5
:104D60001C60254B002B28D0280000E000BF234BFF
:104D700018602B78224A00249146204A90460EE083
:104D800043461B6862019B18002B10D05B68002B08
:104D90000DD0984701342B78E4B2A3420FD3A3423D
:104DA000EED8E31A5B014B445B68002BF1D1002085
:104DB000E0BCBA46B146A846F0BD2B78DAE75346C8
:104DC000310038001F70FFF7F9FD0028EFD03800E0
:104DD000FFF73CFE0120EBE71C120020E41E002040
:104DE000DC1E0020ED260020381F002014120020B9
:104DF0003C1F0020EB26002000000000B41D002016
:104E0000FC790010F0B5DE4657464E464546E0B503
:104E1000CA4B8FB003931B78FF2B00D146E1C84BE0
:104E2000C84E9B465F46C84B0BAC0293C74B0193E1
:104E300035686A69EFF3108172B61368002BFCD0F5
:104E4000BFF35F8FA9612800210000F0C5FF6A69E8
:104E5000AB69BFF35F8F0021116083F310880028D6
:104E600000D123E16378082BE2D89B00FB589F46D2
:104E70006368002BDCD0A0689847D9E77F222179AE
:104E8000B14D0A405300EB189846C809804440468B
:104E90000123303005799D430571057903339D4326
:104EA0000571002A00D108E14346A94A1B7D12780A
:104EB000934200D3F8E0A74A5B011568ED18002D76
:104EC00000D1F3E0A36862792078AD69A847AFE725
:104ED000A14A1378002B00D1E8E01378013BDBB244
:104EE00013701378002BA3D10122974D01212B7849
:104EF000042013432B703423EA5C8A43EA54EA5CAF
:104F00008243EA540133EA5C8A43EA54EA5C82430E
:104F1000EA5423780020984600F060FC6022237950
:104F20001A40602A00D1F3E0402A00D1F9E0DB0604
:104F3000DB0E012B00D117E1022B00D1CCE0002BBE
:104F400000D0E5E0202A00D10FE2002A00D0DFE007
:104F50006379092B00D9DBE0804A9B00D3589F4638
:104F6000794D2B78DB0700D462E7FFF7BFFE5FE7E0
:104F7000029BDB78DB0700D45AE76068FFF7A8FEE6
:104F800056E7714D2B78DB0700D451E728780007EE
:104F9000C00FFFF7A9FE4BE723786C4A984693466B
:104FA0006B4B6C4A9946310092463A0046464F4652
:104FB0000025914688461B780EE053461B686A011F
:104FC0009B18002B00D17EE0DB683000984701354C
:104FD0003B78EDB2AB420CD39D42EED3EB1A5B01B2
:104FE0005B44DB683000984701353B78EDB2AB425B
:104FF000F2D2554D542200212800FFF741FB102228
:10500000FF21281DFFF73CFB28002022FF21143040
:1050100046464F46FFF734FB00F0D6FB2379AB70D2
:1050200006E723784B4A9846494B92469946320008
:10503000BB46464600254F4690461B780DE053463A
:105040001B686A019B18002B41D0DB683000984731
:1050500001353B78EDB2AB420ED3AB42EFD8019AAB
:10506000EB1A94465B016344DB68300098470135D6
:105070003B78EDB2AB42F0D2029D542200212800D1
:10508000FFF7FEFA1022FF213548FFF7F9FA280052
:105090002022FF21143046465F46FFF7F1FA00F068
:1050A00093FBFFF71FFEC3E6934213D00FB0F0BC93
:1050B000BB46B246A946A046F0BDA36862792078F7
:1050C00000F0A0FBB4E646464F461F4DA4E7464617
:1050D0005F46E4E71D4DF5E67023217A0B4217D1B8
:1050E000C80983460F330B405B0099461848EB18FC
:1050F0005B441B7D0078834261D216485B010068E7
:1051000082469A44002A00D14EE15346002B5ED1DC
:1051100020780021FFF766FD80212078FFF762FDEF
:1051200086E6104800F05AFB012140460CAAFFF722
:10513000CBFD002800D07BE6EAE7C0461C12002029
:10514000547900103C1F0020E41E0020FC79001060
:10515000EB260020B41D0020ED26002078790010F9
:10516000E81E0020C94C0010237A0F2BD0D8D54A56
:10517000EB181B791278934234D3C9D1D24D6869A8
:1051800000F02CFB012140466B690CAA98470028CF
:1051900000D04DE66022150023791D401A42B7D198
:1051A00063790A3B012BB3D800F018FB63790A2B13
:1051B00000D17DE140460CA900F09AFA38E683421E
:1051C00000D0ECE0C04B9A46002A00D1ECE05346F8
:1051D000586900F003FB5346012140465B690CAA65
:1051E0009847A6E7B94A5B011568ED18002DC6D1AE
:1051F0008EE7A3799A466B789A45DBD06B78002BC3
:1052000000D028E153466B70002B00D120E15046BE
:105210000138C0B2FDF7AAFC002800D171E1437843
:10522000022B00D06DE10122C179A9468B114911F1
:1052300013400A40302112015B0113432A788A434C
:1052400013432B7009239B4683445D46B346C378C2
:1052500082781B021343C31806939A4B0497059355
:10526000994B0893994B9A46994B0993069BAB42ED
:1052700000D849E16B7801220B2B03D12B78EA7817
:10528000ED186B78042B00D038E1069B00265B1BE1
:105290009BB20793059B17001B7818E053461B68C9
:1052A00072019B18002B00D128E1290040461B69A0
:1052B000079A9847082803D9079B834200D30BE13C
:1052C000059B01361B78F6B2B34200D216E1B34219
:1052D000E4D8089AF31A94465B016344E5E76B78D7
:1052E0000AAA02321370404601230CA900F016FAF4
:1052F0009EE5E3881A0AD8B20F2A00D908E7754953
:105300009300CB589F460CA800F06EFA4046A17956
:10531000FFF7A2FB02222B7813432B7088E5E3886A
:10532000012B00D0F4E608222B78404693430CA9C9
:105330002B7000F0DDF97BE5022029780AAB9A1C7E
:105340008B068908DB0F01400B4313804046022384
:105350000CA900F0E3F96BE5E388012B00D0D7E658
:1053600008222B7813432B7024E7237A0F2B00D9C4
:10537000CEE6544AEB181B791278934228D2534A4E
:105380005B011568ED18002D00D1C1E6686900F0D9
:1053900025FA012140466B690CAA9847C9E6002A04
:1053A00000D0B5E600239A466279022013000492E9
:1053B0008343012B11D0002A00D0A9E62B004B44D7
:1053C0005B4430331B790AAA9B07DB0F0232BCE730
:1053D000934200D09CE63C4DD8E7E388002B12D1E5
:1053E000039B1878049B012B23D0FFF7FBFB4B4654
:1053F0000221EB185B4430331A790A4301211A71F8
:105400001A790A431A715346002B00D110E55869E6
:1054100000F0E4F9534601215B690CAA4046984725
:10542000002000F0DBF93523EB5CDB0700D5FFE45F
:10543000C0E6FFF7F1FB4B460221EB185B4430332B
:105440001A798A431A711A7904998A431A71DAE728
:10545000FFF748FCAEE600214046FFF707FB404659
:10546000FFF7AAFB00229346174AAB780592174A2A
:10547000049306922A00134B5D46994693461B7887
:105480000EE0069B6A011B689B18002B55D0DB6859
:10549000404698474B4601351B78EDB2AB4238D3B6
:1054A0009D42EED3059AEB1A94465B016344EEE706
:1054B0000AAB9A1C404601230CA9157000F02EF986
:1054C000B6E4C046EB260020FC790010B41D002095
:1054D000F81E0020A07900103A000700002A3CD0F6
:1054E000AB789A18D2B204E00133DBB20E719A4263
:1054F00033D04946C9180879FF28F5D05E464D4695
:10550000049F00236B7003E65E46049FFFF7E8FBF1
:1055100050E65D46542200212800FFF7B1F8102222
:10552000FF21281DFFF7ACF828002022FF211430AE
:10553000FFF7A6F8049BAB7064E65D46FAE7FFF759
:10554000C9FB021E00D1E3E5D37891781B020B431F
:1055500040460CA900F0E2F8EBE5330029003A00E0
:10556000099800F01FFC059BED191B78B34200D38E
:105570007CE6C3E7FFF7B0FB021E00D1C8E540465A
:1055800013780CA900F0CAF8D3E52189FDF7FCFADD
:10559000021EF4D1BCE5022A0FD0FFF79FFB021ECA
:1055A000D2D1B5E5FDF7CCFA021E00D1B0E5122349
:1055B00040460CA900F0B2F8BBE5FDF7D7FA021E91
:1055C000C2D1A5E5F8B557464E46DE4645460C0025
:1055D000E0B516001F00002A3CD01F4B00259A465C
:1055E000702399461D4B9B4617E05B462000997837
:1055F00000F09AFB00281FD021004046FFF752FA26
:10560000002819D0A378DA09012A1CD00A9A01359A
:1056100013702378E418B5421CDA6378052B0BD19C
:10562000E3789B079B0FBB4206D153464A461B7843
:105630009846A3781A42D8D00020F0BCBB46B246A8
:10564000A946A046F8BD0B9A013513702378E418DB
:10565000B542E2DB0120F0E71C120020E41E00202E
:105660000B007F2010B51840DB0934334000044A9A
:10567000C018044B1168C01800F02EFB10BDC046C6
:10568000381F0020E41E002070B57F240F480C4016
:1056900064000419CD09641930342079C00701D59C
:1056A000002070BD01262579094835430078257111
:1056B000FFF786FA0028F4D101222379934323715E
:1056C0002379033293432371EAE7C046E41E0020A6
:1056D0001C1200207F22054B0A405200C9099B186A
:1056E0005B1830331879C007C00F7047E41E0020E4
:1056F00070B5094C0600082220000D00FEF7C6FF19
:1057000000238021E360A3602B78300099430022BE
:105710000023FFF7B9FF70BDF81D0020F8B5CE4695
:1057200047469046264E80B58146082230000D003F
:105730001F00FEF7ABFF4346B3600023F381EC7913
:10574000AB7924021C43231CBC4200D93B1C9FB2F2
:10575000B381002C0ED0002F18D04346002B2CD044
:105760003B1C402F1BD89FB233787F2B1CD80021C5
:10577000144A0FE080212B780022994348460023E9
:10578000FFF782FFC0BCB946B046F8BD7F230022B8
:10579000317899433B004846FFF776FFF2E7402314
:1057A0009FB233787F2BE2D9064C3A004146200065
:1057B000FEF76CFF80212200ECE70020E2E7C04604
:1057C000F81D0020B81D002010B514220021024849
:1057D000FEF756FF10BDC046F81D0020014B1861B2
:1057E0007047C046F81D002010B5054C0100082286
:1057F0002000FEF74BFF0023A360E36010BDC0460E
:10580000F81D002070B5384C1D0023780600DA0919
:10581000C9098A4210D00020002D00D070BD21009F
:105820003000FFF731F92369002B03D02200032158
:10583000300098470120F1E7A0687F2B05D80028A9
:1058400034D02A002949FEF721FFE289A1685219C4
:10585000E38892B24919E281A160934214D03F2DAE
:1058600012D9A389981A051C80B240282AD820781A
:10587000ADB27F2828D800219A4232D01B4A2B0093
:105880003000FFF701FFC9E72369002B05D0220094
:1058900002213000984700280AD080212378002276
:1058A000994330000023FFF7EFFEB7E70020B5E78C
:1058B00000213000FFF796F930008021FFF792F9C0
:1058C0000120ABE74025D2E79A4207D0074C2A00D7
:1058D0002000FEF7DBFE80212200D0E7802100229D
:1058E000CDE70022CBE7C046F81D0020B81D002000
:1058F0007047C046012070477047C0467047C04699
:1059000042000C4B1218920010B59B185C78FFF700
:10591000EFF9002801D1002010BDFFF7F1F90028B0
:10592000F9D1002CF7D02100FFF7D4FE0123584015
:10593000C0B2F1E7CC1E0020F0B5C6460E0015003F
:105940001C0000B5002803D0002080BCB846F0BD84
:10595000144B002059789846FFF782FE0028F3D0B8
:10596000002E0FD1402CEFD80F4F22002900380015
:10597000FEF78CFE43463A00597800202300FFF7DB
:1059800083FEE2E74023094FFE543F2CDCD8380069
:105990002200290041300134FEF778FEA4B24037DE
:1059A000E8E7C046CC1E00204C1E00200C1E002044
:1059B00010B50C2200210248FEF762FE10BDC04661
:1059C000CC1E00200120704710B50C220021024897
:1059D000FEF756FE10BDC046CC1E0020F0B54B7938
:1059E00006000D0083B0032B0AD10879C400241AE5
:1059F0001234A4B2944203D8194F7B78002B03D001
:105A00000024200003B0F0BD097869184B78212BE1
:105A1000F6D1B9600B780200C9187B1C0193BB1C3E
:105A2000009330000323FFF7CDFD0028E8D0AB79C9
:105A3000012B01D1EB79FB700123BB71AB78B978F5
:105A40003B70BB68DA791B7A1B021343BB800029C9
:105A5000D7D040233000034AFFF716FED1E7C046F7
:105A6000CC1E00208C1E00201F23F0B514001278DD
:105A7000050083B01340012B1BD1604E2079337891
:105A8000984216D1602318001040134208D02028F5
:105A90000FD163780B2B0CD8594A9B00D3589F46E3
:105AA000012918D1E378A17862781B020B43062AFA
:105AB00002D0002003B0F0BD1B0A212B00D181E0F1
:105AC000222BF6D10020FDF73FF821000200B38819
:105AD0002800FFF723FE0120ECE70129FBD1E17844
